{"contracts/SimpleHTLC.sol":{"SimpleHTLC":{"abi":[{"anonymous":false,"inputs":[{"indexed":true,"internalType":"bytes32","name":"swapId","type":"bytes32"},{"indexed":true,"internalType":"address","name":"initiator","type":"address"},{"indexed":true,"internalType":"address","name":"recipient","type":"address"},{"indexed":false,"internalType":"address","name":"token","type":"address"},{"indexed":false,"internalType":"uint256","name":"amount","type":"uint256"},{"indexed":false,"internalType":"bytes32","name":"hashlock","type":"bytes32"},{"indexed":false,"internalType":"uint256","name":"timelock","type":"uint256"}],"name":"SwapInitiated","type":"event"},{"anonymous":false,"inputs":[{"indexed":true,"internalType":"bytes32","name":"swapId","type":"bytes32"}],"name":"SwapRefunded","type":"event"},{"anonymous":false,"inputs":[{"indexed":true,"internalType":"bytes32","name":"swapId","type":"bytes32"},{"indexed":false,"internalType":"string","name":"secret","type":"string"}],"name":"SwapWithdrawn","type":"event"},{"inputs":[],"name":"FEE_BASIS_POINTS","outputs":[{"internalType":"uint256","name":"","type":"uint256"}],"stateMutability":"view","type":"function"},{"inputs":[],"name":"MAX_TIMELOCK","outputs":[{"internalType":"uint256","name":"","type":"uint256"}],"stateMutability":"view","type":"function"},{"inputs":[],"name":"MIN_TIMELOCK","outputs":[{"internalType":"uint256","name":"","type":"uint256"}],"stateMutability":"view","type":"function"},{"inputs":[],"name":"emergencyWithdraw","outputs":[],"stateMutability":"nonpayable","type":"function"},{"inputs":[{"internalType":"bytes32","name":"swapId","type":"bytes32"}],"name":"getSwap","outputs":[{"internalType":"address","name":"initiator","type":"address"},{"internalType":"address","name":"recipient","type":"address"},{"internalType":"address","name":"token","type":"address"},{"internalType":"uint256","name":"amount","type":"uint256"},{"internalType":"bytes32","name":"hashlock","type":"bytes32"},{"internalType":"uint256","name":"timelock","type":"uint256"},{"internalType":"bool","name":"withdrawn","type":"bool"},{"internalType":"bool","name":"refunded","type":"bool"},{"internalType":"string","name":"secret","type":"string"}],"stateMutability":"view","type":"function"},{"inputs":[{"internalType":"address","name":"recipient","type":"address"},{"internalType":"address","name":"token","type":"address"},{"internalType":"uint256","name":"amount","type":"uint256"},{"internalType":"bytes32","name":"hashlock","type":"bytes32"},{"internalType":"uint256","name":"timelock","type":"uint256"}],"name":"initiateSwap","outputs":[],"stateMutability":"payable","type":"function"},{"inputs":[{"internalType":"bytes32","name":"swapId","type":"bytes32"}],"name":"refund","outputs":[],"stateMutability":"nonpayable","type":"function"},{"inputs":[{"internalType":"bytes32","name":"","type":"bytes32"}],"name":"swaps","outputs":[{"internalType":"address","name":"initiator","type":"address"},{"internalType":"address","name":"recipient","type":"address"},{"internalType":"address","name":"token","type":"address"},{"internalType":"uint256","name":"amount","type":"uint256"},{"internalType":"bytes32","name":"hashlock","type":"bytes32"},{"internalType":"uint256","name":"timelock","type":"uint256"},{"internalType":"bool","name":"withdrawn","type":"bool"},{"internalType":"bool","name":"refunded","type":"bool"},{"internalType":"string","name":"secret","type":"string"}],"stateMutability":"view","type":"function"},{"inputs":[{"internalType":"bytes32","name":"swapId","type":"bytes32"},{"internalType":"string","name":"secret","type":"string"}],"name":"withdraw","outputs":[],"stateMutability":"nonpayable","type":"function"},{"inputs":[],"name":"withdrawFees","outputs":[],"stateMutability":"nonpayable","type":"function"}],"evm":{"bytecode":{"linkReferences":{},"object":"60808060405234610016576110a2908161001c8239f35b600080fdfe6080604052600436101561001257600080fd5b60003560e01c806306a5366514610a5d5780633da0e66e146100ac578063476343ee146109b45780637249fbb6146107fd578063824899811461021257806394f1825b146101f4578063a525ad3c146101d8578063db2e21bc14610128578063eb84e7f2146100ac5763fb0c75491461008a57600080fd5b346100a75760003660031901126100a7576020604051610e108152f35b600080fd5b346100a75760203660031901126100a7576004356000526000602052604060002060018060a01b0361012481835416826001850154169260028501541693600381015491600482015460058301549061010c600760068601549501610e2e565b9460405198899860ff808860081c169716958a610d43565b0390f35b346100a75760003660031901126100a75747801561019e57600080808093335af1610151610fea565b501561015957005b60405162461bcd60e51b815260206004820152601b60248201527f456d657267656e6379207769746864726177616c206661696c656400000000006044820152606490fd5b60405162461bcd60e51b81526020600482015260126024820152714e6f2045544820746f20776974686472617760701b6044820152606490fd5b346100a75760003660031901126100a757602060405160198152f35b346100a75760003660031901126100a7576020604051620151808152f35b60a03660031901126100a7576004356001600160a01b03811690036100a7576024356001600160a01b03811690036100a7576004356001600160a01b0316156107c4576044351561077f57610e104201804211610680576084351061074557620151804201804211610680576084351161070c57606435156106d4576040513360601b60208201526bffffffffffffffffffffffff198060043560601b16603483015260243560601b166048820152604435605c820152606435607c820152608435609c820152609c81528060c081011067ffffffffffffffff60c0830111176105e45760c08101604052805160208201209081600052600060205260018060a01b03604060002054166106965750601960443502906044358204601903610680576044356127108304810311610680576024356001600160a01b03166106365760443534036105fa575b60405191610120830183811067ffffffffffffffff8211176105e45760405233835260018060a01b0360043516602084015260018060a01b036024351660408401526127108104604435036060840152606435608084015260843560a0840152600060c0840152600060e084015260405180602081011067ffffffffffffffff6020830111176105e4576020810160405260008152610100840152816000526000602052604060002092610100600760018060a01b03835116956bffffffffffffffffffffffff60a01b96878254161781556001966001820160018060a01b0360208701511682825416179055600282019060018060a01b0360408701511690825416179055606084015160038201556080840151600482015560a084015160058201556006810160c08501511515815460ff61ff0060e0890151151560081b1692169061ffff191617179055019101519384519067ffffffffffffffff82116105e4576104d5826104cf8554610dd2565b85610f94565b602090601f831160011461057a5750819061050a9394959660009261056f575b50508160011b916000199060031b1c19161790565b90555b6127106040519160018060a01b03602435168352046044350360208201526064356040820152608435606082015260018060a01b0360043516917f9fba3d24d594c6fe983302709ea37fdeceb7e556ea94cf695c806048e8ef9e8560803393a4005b0151905086806104f5565b90601f19831696846000526020600020926000905b8982106105cb57505083600195969798106105b2575b505050811b01905561050d565b015160001960f88460031b161c191690558580806105a5565b909293602082819287860151815501950193019061058f565b634e487b7160e01b600052604160045260246000fd5b60405162461bcd60e51b8152602060048201526014602482015273125b98dbdc9c9958dd0811551208185b5bdd5b9d60621b6044820152606490fd5b341561035d57606460405162461bcd60e51b815260206004820152602060248201527f455448206e6f7420616363657074656420666f7220746f6b656e2073776170736044820152fd5b634e487b7160e01b600052601160045260246000fd5b60c060649162461bcd60e51b82820152602060c4820152601360e4820152725377617020616c72656164792065786973747360681b61010482015201fd5b60405162461bcd60e51b815260206004820152601060248201526f496e76616c696420686173686c6f636b60801b6044820152606490fd5b60405162461bcd60e51b815260206004820152601160248201527054696d656c6f636b20746f6f206c6f6e6760781b6044820152606490fd5b60405162461bcd60e51b8152602060048201526012602482015271151a5b595b1bd8dac81d1bdbc81cda1bdc9d60721b6044820152606490fd5b60405162461bcd60e51b815260206004820152601d60248201527f416d6f756e74206d7573742062652067726561746572207468616e20300000006044820152606490fd5b60405162461bcd60e51b8152602060048201526011602482015270125b9d985b1a59081c9958da5c1a595b9d607a1b6044820152606490fd5b346100a75760203660031901126100a757600435600081815260208190526040902080546001600160a01b0390811690610838821515610ed3565b33820361096f5760068301805461085260ff821615610f15565b61086260ff8260081c1615610f55565b600585015442106109335761ff0019166101001790556002830154166108c85760008080809360036108a1960154905af161089b610fea565b5061102a565b7fc506b8643b74e7a2fbb400c79e929dd5dfffb301fb07afb3b0e8e7c47925cf5a600080a2005b60405162461bcd60e51b815260206004820152603a60248201527f4552433230207472616e7366657273206e6f7420696d706c656d656e7465642060448201527f696e20746869732073696d706c69666965642076657273696f6e0000000000006064820152608490fd5b60405162461bcd60e51b8152602060048201526014602482015273151a5b595b1bd8dac81b9bdd08195e1c1a5c995960621b6044820152606490fd5b60405162461bcd60e51b815260206004820152601960248201527f4f6e6c7920696e69746961746f722063616e20726566756e64000000000000006044820152606490fd5b346100a75760003660031901126100a757478015610a2257600080808093335af16109dd610fea565b50156109e557005b60405162461bcd60e51b8152602060048201526015602482015274119959481dda5d1a191c985dd85b0819985a5b1959605a1b6044820152606490fd5b60405162461bcd60e51b81526020600482015260136024820152724e6f206665657320746f20776974686472617760681b6044820152606490fd5b346100a75760403660031901126100a757600435602480359067ffffffffffffffff908183116100a757366023840112156100a75782600401359182116100a75780830192368284830101116100a7578460005260209060008252604060002060018060a01b0391610ad3838354161515610ed3565b6001906001830195848754163303610d0057600684018054610af860ff821615610f15565b610b0860ff8260081c1615610f55565b6005860154421015610cc9578a8a610b398a6040518381948383019687378101600083820152038084520182610e0c565b519020600487015403610c94579060018a939260ff19161790556007850193610b6c83610b668754610dd2565b87610f94565b600090601f8411600114610c255750908291610ba094600093610c18575b5050508160011b916000199060031b1c19161790565b90555b600281015482166108c8577f131889cd7db85ba9c0b47ce492c8aeb9dc8b9e732f758ff6dd1263d8c0d6a09595610bf260008080808a97966003899860409c5416910154905af161089b610fea565b8451958487958652850152848401376000828201840152601f01601f19168101030190a2005b01013590508b8080610b8a565b9392601f1981168660005289600020956000905b8b838310610c775750505010610c5b575b50505050600186811b019055610ba3565b60001960f88b60031b161c199201013516905588808080610c4a565b878601870135895597810197948501948e94509190910190610c39565b60405162461bcd60e51b815260048101899052600e818501526d125b9d985b1a59081cd958dc995d60921b6044820152606490fd5b60405162461bcd60e51b8152600481018990526010818501526f151a5b595b1bd8dac8195e1c1a5c995960821b6044820152606490fd5b85601b6064926040519262461bcd60e51b845260048401528201527f4f6e6c7920726563697069656e742063616e20776974686472617700000000006044820152fd5b979491969390989592986101209960018060a01b038092168a52816020991660208b01521660408901526060880152608087015260a0860152151560c0850152151560e0840152836101008401528051809484015260005b848110610dbd57505050610140916000838284010152601f8019910116010190565b81810183015184820161014001528201610d9b565b90600182811c92168015610e02575b6020831014610dec57565b634e487b7160e01b600052602260045260246000fd5b91607f1691610de1565b90601f8019910116810190811067ffffffffffffffff8211176105e457604052565b90604051918260008254610e4181610dd2565b90818452602094600191600181169081600014610eb15750600114610e72575b505050610e7092500383610e0c565b565b600090815285812095935091905b818310610e99575050610e709350820101388080610e61565b85548884018501529485019487945091830191610e80565b92505050610e7094925060ff191682840152151560051b820101388080610e61565b15610eda57565b60405162461bcd60e51b815260206004820152601360248201527214ddd85c08191bd95cc81b9bdd08195e1a5cdd606a1b6044820152606490fd5b15610f1c57565b60405162461bcd60e51b815260206004820152601160248201527020b63932b0b23c903bb4ba34323930bbb760791b6044820152606490fd5b15610f5c57565b60405162461bcd60e51b815260206004820152601060248201526f105b1c9958591e481c99599d5b99195960821b6044820152606490fd5b90601f8111610fa257505050565b6000916000526020600020906020601f850160051c83019410610fe0575b601f0160051c01915b828110610fd557505050565b818155600101610fc9565b9092508290610fc0565b3d15611025573d9067ffffffffffffffff82116105e45760405191611019601f8201601f191660200184610e0c565b82523d6000602084013e565b606090565b1561103157565b60405162461bcd60e51b8152602060048201526013602482015272115512081d1c985b9cd9995c8819985a5b1959606a1b6044820152606490fdfea2646970667358221220d36a11d362f935f6714dd317bedb476bf0267efae58e5b9c2bfb2f543575394364736f6c63430008180033","opcodes":"PUSH1 0x80 DUP1 PUSH1 0x40 MSTORE CALLVALUE PUSH2 0x16 JUMPI PUSH2 0x10A2 SWAP1 DUP2 PUSH2 0x1C DUP3 CODECOPY RETURN JUMPDEST PUSH1 0x0 DUP1 REVERT INVALID PUSH1 0x80 PUSH1 0x40 MSTORE PUSH1 0x4 CALLDATASIZE LT ISZERO PUSH2 0x12 JUMPI PUSH1 0x0 DUP1 REVERT JUMPDEST PUSH1 0x0 CALLDATALOAD PUSH1 0xE0 SHR DUP1 PUSH4 0x6A53665 EQ PUSH2 0xA5D JUMPI DUP1 PUSH4 0x3DA0E66E EQ PUSH2 0xAC JUMPI DUP1 PUSH4 0x476343EE EQ PUSH2 0x9B4 JUMPI DUP1 PUSH4 0x7249FBB6 EQ PUSH2 0x7FD JUMPI DUP1 PUSH4 0x82489981 EQ PUSH2 0x212 JUMPI DUP1 PUSH4 0x94F1825B EQ PUSH2 0x1F4 JUMPI DUP1 PUSH4 0xA525AD3C EQ PUSH2 0x1D8 JUMPI DUP1 PUSH4 0xDB2E21BC EQ PUSH2 0x128 JUMPI DUP1 PUSH4 0xEB84E7F2 EQ PUSH2 0xAC JUMPI PUSH4 0xFB0C7549 EQ PUSH2 0x8A JUMPI PUSH1 0x0 DUP1 REVERT JUMPDEST CALLVALUE PUSH2 0xA7 JUMPI PUSH1 0x0 CALLDATASIZE PUSH1 0x3 NOT ADD SLT PUSH2 0xA7 JUMPI PUSH1 0x20 PUSH1 0x40 MLOAD PUSH2 0xE10 DUP2 MSTORE RETURN JUMPDEST PUSH1 0x0 DUP1 REVERT JUMPDEST CALLVALUE PUSH2 0xA7 JUMPI PUSH1 0x20 CALLDATASIZE PUSH1 0x3 NOT ADD SLT PUSH2 0xA7 JUMPI PUSH1 0x4 CALLDATALOAD PUSH1 0x0 MSTORE PUSH1 0x0 PUSH1 0x20 MSTORE PUSH1 0x40 PUSH1 0x0 KECCAK256 PUSH1 0x1 DUP1 PUSH1 0xA0 SHL SUB PUSH2 0x124 DUP2 DUP4 SLOAD AND DUP3 PUSH1 0x1 DUP6 ADD SLOAD AND SWAP3 PUSH1 0x2 DUP6 ADD SLOAD AND SWAP4 PUSH1 0x3 DUP2 ADD SLOAD SWAP2 PUSH1 0x4 DUP3 ADD SLOAD PUSH1 0x5 DUP4 ADD SLOAD SWAP1 PUSH2 0x10C PUSH1 0x7 PUSH1 0x6 DUP7 ADD SLOAD SWAP6 ADD PUSH2 0xE2E JUMP JUMPDEST SWAP5 PUSH1 0x40 MLOAD SWAP9 DUP10 SWAP9 PUSH1 0xFF DUP1 DUP9 PUSH1 0x8 SHR AND SWAP8 AND SWAP6 DUP11 PUSH2 0xD43 JUMP JUMPDEST SUB SWAP1 RETURN JUMPDEST CALLVALUE PUSH2 0xA7 JUMPI PUSH1 0x0 CALLDATASIZE PUSH1 0x3 NOT ADD SLT PUSH2 0xA7 JUMPI SELFBALANCE DUP1 ISZERO PUSH2 0x19E JUMPI PUSH1 0x0 DUP1 DUP1 DUP1 SWAP4 CALLER GAS CALL PUSH2 0x151 PUSH2 0xFEA JUMP JUMPDEST POP ISZERO PUSH2 0x159 JUMPI STOP JUMPDEST PUSH1 0x40 MLOAD PUSH3 0x461BCD PUSH1 0xE5 SHL DUP2 MSTORE PUSH1 0x20 PUSH1 0x4 DUP3 ADD MSTORE PUSH1 0x1B PUSH1 0x24 DUP3 ADD MSTORE PUSH32 0x456D657267656E6379207769746864726177616C206661696C65640000000000 PUSH1 0x44 DUP3 ADD MSTORE PUSH1 0x64 SWAP1 REVERT JUMPDEST PUSH1 0x40 MLOAD PUSH3 0x461BCD PUSH1 0xE5 SHL DUP2 MSTORE PUSH1 0x20 PUSH1 0x4 DUP3 ADD MSTORE PUSH1 0x12 PUSH1 0x24 DUP3 ADD MSTORE PUSH18 0x4E6F2045544820746F207769746864726177 PUSH1 0x70 SHL PUSH1 0x44 DUP3 ADD MSTORE PUSH1 0x64 SWAP1 REVERT JUMPDEST CALLVALUE PUSH2 0xA7 JUMPI PUSH1 0x0 CALLDATASIZE PUSH1 0x3 NOT ADD SLT PUSH2 0xA7 JUMPI PUSH1 0x20 PUSH1 0x40 MLOAD PUSH1 0x19 DUP2 MSTORE RETURN JUMPDEST CALLVALUE PUSH2 0xA7 JUMPI PUSH1 0x0 CALLDATASIZE PUSH1 0x3 NOT ADD SLT PUSH2 0xA7 JUMPI PUSH1 0x20 PUSH1 0x40 MLOAD PUSH3 0x15180 DUP2 MSTORE RETURN JUMPDEST PUSH1 0xA0 CALLDATASIZE PUSH1 0x3 NOT ADD SLT PUSH2 0xA7 JUMPI PUSH1 0x4 CALLDATALOAD PUSH1 0x1 PUSH1 0x1 PUSH1 0xA0 SHL SUB DUP2 AND SWAP1 SUB PUSH2 0xA7 JUMPI PUSH1 0x24 CALLDATALOAD PUSH1 0x1 PUSH1 0x1 PUSH1 0xA0 SHL SUB DUP2 AND SWAP1 SUB PUSH2 0xA7 JUMPI PUSH1 0x4 CALLDATALOAD PUSH1 0x1 PUSH1 0x1 PUSH1 0xA0 SHL SUB AND ISZERO PUSH2 0x7C4 JUMPI PUSH1 0x44 CALLDATALOAD ISZERO PUSH2 0x77F JUMPI PUSH2 0xE10 TIMESTAMP ADD DUP1 TIMESTAMP GT PUSH2 0x680 JUMPI PUSH1 0x84 CALLDATALOAD LT PUSH2 0x745 JUMPI PUSH3 0x15180 TIMESTAMP ADD DUP1 TIMESTAMP GT PUSH2 0x680 JUMPI PUSH1 0x84 CALLDATALOAD GT PUSH2 0x70C JUMPI PUSH1 0x64 CALLDATALOAD ISZERO PUSH2 0x6D4 JUMPI PUSH1 0x40 MLOAD CALLER PUSH1 0x60 SHL PUSH1 0x20 DUP3 ADD MSTORE PUSH12 0xFFFFFFFFFFFFFFFFFFFFFFFF NOT DUP1 PUSH1 0x4 CALLDATALOAD PUSH1 0x60 SHL AND PUSH1 0x34 DUP4 ADD MSTORE PUSH1 0x24 CALLDATALOAD PUSH1 0x60 SHL AND PUSH1 0x48 DUP3 ADD MSTORE PUSH1 0x44 CALLDATALOAD PUSH1 0x5C DUP3 ADD MSTORE PUSH1 0x64 CALLDATALOAD PUSH1 0x7C DUP3 ADD MSTORE PUSH1 0x84 CALLDATALOAD PUSH1 0x9C DUP3 ADD MSTORE PUSH1 0x9C DUP2 MSTORE DUP1 PUSH1 0xC0 DUP2 ADD LT PUSH8 0xFFFFFFFFFFFFFFFF PUSH1 0xC0 DUP4 ADD GT OR PUSH2 0x5E4 JUMPI PUSH1 0xC0 DUP2 ADD PUSH1 0x40 MSTORE DUP1 MLOAD PUSH1 0x20 DUP3 ADD KECCAK256 SWAP1 DUP2 PUSH1 0x0 MSTORE PUSH1 0x0 PUSH1 0x20 MSTORE PUSH1 0x1 DUP1 PUSH1 0xA0 SHL SUB PUSH1 0x40 PUSH1 0x0 KECCAK256 SLOAD AND PUSH2 0x696 JUMPI POP PUSH1 0x19 PUSH1 0x44 CALLDATALOAD MUL SWAP1 PUSH1 0x44 CALLDATALOAD DUP3 DIV PUSH1 0x19 SUB PUSH2 0x680 JUMPI PUSH1 0x44 CALLDATALOAD PUSH2 0x2710 DUP4 DIV DUP2 SUB GT PUSH2 0x680 JUMPI PUSH1 0x24 CALLDATALOAD PUSH1 0x1 PUSH1 0x1 PUSH1 0xA0 SHL SUB AND PUSH2 0x636 JUMPI PUSH1 0x44 CALLDATALOAD CALLVALUE SUB PUSH2 0x5FA JUMPI JUMPDEST PUSH1 0x40 MLOAD SWAP2 PUSH2 0x120 DUP4 ADD DUP4 DUP2 LT PUSH8 0xFFFFFFFFFFFFFFFF DUP3 GT OR PUSH2 0x5E4 JUMPI PUSH1 0x40 MSTORE CALLER DUP4 MSTORE PUSH1 0x1 DUP1 PUSH1 0xA0 SHL SUB PUSH1 0x4 CALLDATALOAD AND PUSH1 0x20 DUP5 ADD MSTORE PUSH1 0x1 DUP1 PUSH1 0xA0 SHL SUB PUSH1 0x24 CALLDATALOAD AND PUSH1 0x40 DUP5 ADD MSTORE PUSH2 0x2710 DUP2 DIV PUSH1 0x44 CALLDATALOAD SUB PUSH1 0x60 DUP5 ADD MSTORE PUSH1 0x64 CALLDATALOAD PUSH1 0x80 DUP5 ADD MSTORE PUSH1 0x84 CALLDATALOAD PUSH1 0xA0 DUP5 ADD MSTORE PUSH1 0x0 PUSH1 0xC0 DUP5 ADD MSTORE PUSH1 0x0 PUSH1 0xE0 DUP5 ADD MSTORE PUSH1 0x40 MLOAD DUP1 PUSH1 0x20 DUP2 ADD LT PUSH8 0xFFFFFFFFFFFFFFFF PUSH1 0x20 DUP4 ADD GT OR PUSH2 0x5E4 JUMPI PUSH1 0x20 DUP2 ADD PUSH1 0x40 MSTORE PUSH1 0x0 DUP2 MSTORE PUSH2 0x100 DUP5 ADD MSTORE DUP2 PUSH1 0x0 MSTORE PUSH1 0x0 PUSH1 0x20 MSTORE PUSH1 0x40 PUSH1 0x0 KECCAK256 SWAP3 PUSH2 0x100 PUSH1 0x7 PUSH1 0x1 DUP1 PUSH1 0xA0 SHL SUB DUP4 MLOAD AND SWAP6 PUSH12 0xFFFFFFFFFFFFFFFFFFFFFFFF PUSH1 0xA0 SHL SWAP7 DUP8 DUP3 SLOAD AND OR DUP2 SSTORE PUSH1 0x1 SWAP7 PUSH1 0x1 DUP3 ADD PUSH1 0x1 DUP1 PUSH1 0xA0 SHL SUB PUSH1 0x20 DUP8 ADD MLOAD AND DUP3 DUP3 SLOAD AND OR SWAP1 SSTORE PUSH1 0x2 DUP3 ADD SWAP1 PUSH1 0x1 DUP1 PUSH1 0xA0 SHL SUB PUSH1 0x40 DUP8 ADD MLOAD AND SWAP1 DUP3 SLOAD AND OR SWAP1 SSTORE PUSH1 0x60 DUP5 ADD MLOAD PUSH1 0x3 DUP3 ADD SSTORE PUSH1 0x80 DUP5 ADD MLOAD PUSH1 0x4 DUP3 ADD SSTORE PUSH1 0xA0 DUP5 ADD MLOAD PUSH1 0x5 DUP3 ADD SSTORE PUSH1 0x6 DUP2 ADD PUSH1 0xC0 DUP6 ADD MLOAD ISZERO ISZERO DUP2 SLOAD PUSH1 0xFF PUSH2 0xFF00 PUSH1 0xE0 DUP10 ADD MLOAD ISZERO ISZERO PUSH1 0x8 SHL AND SWAP3 AND SWAP1 PUSH2 0xFFFF NOT AND OR OR SWAP1 SSTORE ADD SWAP2 ADD MLOAD SWAP4 DUP5 MLOAD SWAP1 PUSH8 0xFFFFFFFFFFFFFFFF DUP3 GT PUSH2 0x5E4 JUMPI PUSH2 0x4D5 DUP3 PUSH2 0x4CF DUP6 SLOAD PUSH2 0xDD2 JUMP JUMPDEST DUP6 PUSH2 0xF94 JUMP JUMPDEST PUSH1 0x20 SWAP1 PUSH1 0x1F DUP4 GT PUSH1 0x1 EQ PUSH2 0x57A JUMPI POP DUP2 SWAP1 PUSH2 0x50A SWAP4 SWAP5 SWAP6 SWAP7 PUSH1 0x0 SWAP3 PUSH2 0x56F JUMPI JUMPDEST POP POP DUP2 PUSH1 0x1 SHL SWAP2 PUSH1 0x0 NOT SWAP1 PUSH1 0x3 SHL SHR NOT AND OR SWAP1 JUMP JUMPDEST SWAP1 SSTORE JUMPDEST PUSH2 0x2710 PUSH1 0x40 MLOAD SWAP2 PUSH1 0x1 DUP1 PUSH1 0xA0 SHL SUB PUSH1 0x24 CALLDATALOAD AND DUP4 MSTORE DIV PUSH1 0x44 CALLDATALOAD SUB PUSH1 0x20 DUP3 ADD MSTORE PUSH1 0x64 CALLDATALOAD PUSH1 0x40 DUP3 ADD MSTORE PUSH1 0x84 CALLDATALOAD PUSH1 0x60 DUP3 ADD MSTORE PUSH1 0x1 DUP1 PUSH1 0xA0 SHL SUB PUSH1 0x4 CALLDATALOAD AND SWAP2 PUSH32 0x9FBA3D24D594C6FE983302709EA37FDECEB7E556EA94CF695C806048E8EF9E85 PUSH1 0x80 CALLER SWAP4 LOG4 STOP JUMPDEST ADD MLOAD SWAP1 POP DUP7 DUP1 PUSH2 0x4F5 JUMP JUMPDEST SWAP1 PUSH1 0x1F NOT DUP4 AND SWAP7 DUP5 PUSH1 0x0 MSTORE PUSH1 0x20 PUSH1 0x0 KECCAK256 SWAP3 PUSH1 0x0 SWAP1 JUMPDEST DUP10 DUP3 LT PUSH2 0x5CB JUMPI POP POP DUP4 PUSH1 0x1 SWAP6 SWAP7 SWAP8 SWAP9 LT PUSH2 0x5B2 JUMPI JUMPDEST POP POP POP DUP2 SHL ADD SWAP1 SSTORE PUSH2 0x50D JUMP JUMPDEST ADD MLOAD PUSH1 0x0 NOT PUSH1 0xF8 DUP5 PUSH1 0x3 SHL AND SHR NOT AND SWAP1 SSTORE DUP6 DUP1 DUP1 PUSH2 0x5A5 JUMP JUMPDEST SWAP1 SWAP3 SWAP4 PUSH1 0x20 DUP3 DUP2 SWAP3 DUP8 DUP7 ADD MLOAD DUP2 SSTORE ADD SWAP6 ADD SWAP4 ADD SWAP1 PUSH2 0x58F JUMP JUMPDEST PUSH4 0x4E487B71 PUSH1 0xE0 SHL PUSH1 0x0 MSTORE PUSH1 0x41 PUSH1 0x4 MSTORE PUSH1 0x24 PUSH1 0x0 REVERT JUMPDEST PUSH1 0x40 MLOAD PUSH3 0x461BCD PUSH1 0xE5 SHL DUP2 MSTORE PUSH1 0x20 PUSH1 0x4 DUP3 ADD MSTORE PUSH1 0x14 PUSH1 0x24 DUP3 ADD MSTORE PUSH20 0x125B98DBDC9C9958DD0811551208185B5BDD5B9D PUSH1 0x62 SHL PUSH1 0x44 DUP3 ADD MSTORE PUSH1 0x64 SWAP1 REVERT JUMPDEST CALLVALUE ISZERO PUSH2 0x35D JUMPI PUSH1 0x64 PUSH1 0x40 MLOAD PUSH3 0x461BCD PUSH1 0xE5 SHL DUP2 MSTORE PUSH1 0x20 PUSH1 0x4 DUP3 ADD MSTORE PUSH1 0x20 PUSH1 0x24 DUP3 ADD MSTORE PUSH32 0x455448206E6F7420616363657074656420666F7220746F6B656E207377617073 PUSH1 0x44 DUP3 ADD MSTORE REVERT JUMPDEST PUSH4 0x4E487B71 PUSH1 0xE0 SHL PUSH1 0x0 MSTORE PUSH1 0x11 PUSH1 0x4 MSTORE PUSH1 0x24 PUSH1 0x0 REVERT JUMPDEST PUSH1 0xC0 PUSH1 0x64 SWAP2 PUSH3 0x461BCD PUSH1 0xE5 SHL DUP3 DUP3 ADD MSTORE PUSH1 0x20 PUSH1 0xC4 DUP3 ADD MSTORE PUSH1 0x13 PUSH1 0xE4 DUP3 ADD MSTORE PUSH19 0x5377617020616C726561647920657869737473 PUSH1 0x68 SHL PUSH2 0x104 DUP3 ADD MSTORE ADD REVERT JUMPDEST PUSH1 0x40 MLOAD PUSH3 0x461BCD PUSH1 0xE5 SHL DUP2 MSTORE PUSH1 0x20 PUSH1 0x4 DUP3 ADD MSTORE PUSH1 0x10 PUSH1 0x24 DUP3 ADD MSTORE PUSH16 0x496E76616C696420686173686C6F636B PUSH1 0x80 SHL PUSH1 0x44 DUP3 ADD MSTORE PUSH1 0x64 SWAP1 REVERT JUMPDEST PUSH1 0x40 MLOAD PUSH3 0x461BCD PUSH1 0xE5 SHL DUP2 MSTORE PUSH1 0x20 PUSH1 0x4 DUP3 ADD MSTORE PUSH1 0x11 PUSH1 0x24 DUP3 ADD MSTORE PUSH17 0x54696D656C6F636B20746F6F206C6F6E67 PUSH1 0x78 SHL PUSH1 0x44 DUP3 ADD MSTORE PUSH1 0x64 SWAP1 REVERT JUMPDEST PUSH1 0x40 MLOAD PUSH3 0x461BCD PUSH1 0xE5 SHL DUP2 MSTORE PUSH1 0x20 PUSH1 0x4 DUP3 ADD MSTORE PUSH1 0x12 PUSH1 0x24 DUP3 ADD MSTORE PUSH18 0x151A5B595B1BD8DAC81D1BDBC81CDA1BDC9D PUSH1 0x72 SHL PUSH1 0x44 DUP3 ADD MSTORE PUSH1 0x64 SWAP1 REVERT JUMPDEST PUSH1 0x40 MLOAD PUSH3 0x461BCD PUSH1 0xE5 SHL DUP2 MSTORE PUSH1 0x20 PUSH1 0x4 DUP3 ADD MSTORE PUSH1 0x1D PUSH1 0x24 DUP3 ADD MSTORE PUSH32 0x416D6F756E74206D7573742062652067726561746572207468616E2030000000 PUSH1 0x44 DUP3 ADD MSTORE PUSH1 0x64 SWAP1 REVERT JUMPDEST PUSH1 0x40 MLOAD PUSH3 0x461BCD PUSH1 0xE5 SHL DUP2 MSTORE PUSH1 0x20 PUSH1 0x4 DUP3 ADD MSTORE PUSH1 0x11 PUSH1 0x24 DUP3 ADD MSTORE PUSH17 0x125B9D985B1A59081C9958DA5C1A595B9D PUSH1 0x7A SHL PUSH1 0x44 DUP3 ADD MSTORE PUSH1 0x64 SWAP1 REVERT JUMPDEST CALLVALUE PUSH2 0xA7 JUMPI PUSH1 0x20 CALLDATASIZE PUSH1 0x3 NOT ADD SLT PUSH2 0xA7 JUMPI PUSH1 0x4 CALLDATALOAD PUSH1 0x0 DUP2 DUP2 MSTORE PUSH1 0x20 DUP2 SWAP1 MSTORE PUSH1 0x40 SWAP1 KECCAK256 DUP1 SLOAD PUSH1 0x1 PUSH1 0x1 PUSH1 0xA0 SHL SUB SWAP1 DUP2 AND SWAP1 PUSH2 0x838 DUP3 ISZERO ISZERO PUSH2 0xED3 JUMP JUMPDEST CALLER DUP3 SUB PUSH2 0x96F JUMPI PUSH1 0x6 DUP4 ADD DUP1 SLOAD PUSH2 0x852 PUSH1 0xFF DUP3 AND ISZERO PUSH2 0xF15 JUMP JUMPDEST PUSH2 0x862 PUSH1 0xFF DUP3 PUSH1 0x8 SHR AND ISZERO PUSH2 0xF55 JUMP JUMPDEST PUSH1 0x5 DUP6 ADD SLOAD TIMESTAMP LT PUSH2 0x933 JUMPI PUSH2 0xFF00 NOT AND PUSH2 0x100 OR SWAP1 SSTORE PUSH1 0x2 DUP4 ADD SLOAD AND PUSH2 0x8C8 JUMPI PUSH1 0x0 DUP1 DUP1 DUP1 SWAP4 PUSH1 0x3 PUSH2 0x8A1 SWAP7 ADD SLOAD SWAP1 GAS CALL PUSH2 0x89B PUSH2 0xFEA JUMP JUMPDEST POP PUSH2 0x102A JUMP JUMPDEST PUSH32 0xC506B8643B74E7A2FBB400C79E929DD5DFFFB301FB07AFB3B0E8E7C47925CF5A PUSH1 0x0 DUP1 LOG2 STOP JUMPDEST PUSH1 0x40 MLOAD PUSH3 0x461BCD PUSH1 0xE5 SHL DUP2 MSTORE PUSH1 0x20 PUSH1 0x4 DUP3 ADD MSTORE PUSH1 0x3A PUSH1 0x24 DUP3 ADD MSTORE PUSH32 0x4552433230207472616E7366657273206E6F7420696D706C656D656E74656420 PUSH1 0x44 DUP3 ADD MSTORE PUSH32 0x696E20746869732073696D706C69666965642076657273696F6E000000000000 PUSH1 0x64 DUP3 ADD MSTORE PUSH1 0x84 SWAP1 REVERT JUMPDEST PUSH1 0x40 MLOAD PUSH3 0x461BCD PUSH1 0xE5 SHL DUP2 MSTORE PUSH1 0x20 PUSH1 0x4 DUP3 ADD MSTORE PUSH1 0x14 PUSH1 0x24 DUP3 ADD MSTORE PUSH20 0x151A5B595B1BD8DAC81B9BDD08195E1C1A5C9959 PUSH1 0x62 SHL PUSH1 0x44 DUP3 ADD MSTORE PUSH1 0x64 SWAP1 REVERT JUMPDEST PUSH1 0x40 MLOAD PUSH3 0x461BCD PUSH1 0xE5 SHL DUP2 MSTORE PUSH1 0x20 PUSH1 0x4 DUP3 ADD MSTORE PUSH1 0x19 PUSH1 0x24 DUP3 ADD MSTORE PUSH32 0x4F6E6C7920696E69746961746F722063616E20726566756E6400000000000000 PUSH1 0x44 DUP3 ADD MSTORE PUSH1 0x64 SWAP1 REVERT JUMPDEST CALLVALUE PUSH2 0xA7 JUMPI PUSH1 0x0 CALLDATASIZE PUSH1 0x3 NOT ADD SLT PUSH2 0xA7 JUMPI SELFBALANCE DUP1 ISZERO PUSH2 0xA22 JUMPI PUSH1 0x0 DUP1 DUP1 DUP1 SWAP4 CALLER GAS CALL PUSH2 0x9DD PUSH2 0xFEA JUMP JUMPDEST POP ISZERO PUSH2 0x9E5 JUMPI STOP JUMPDEST PUSH1 0x40 MLOAD PUSH3 0x461BCD PUSH1 0xE5 SHL DUP2 MSTORE PUSH1 0x20 PUSH1 0x4 DUP3 ADD MSTORE PUSH1 0x15 PUSH1 0x24 DUP3 ADD MSTORE PUSH21 0x119959481DDA5D1A191C985DD85B0819985A5B1959 PUSH1 0x5A SHL PUSH1 0x44 DUP3 ADD MSTORE PUSH1 0x64 SWAP1 REVERT JUMPDEST PUSH1 0x40 MLOAD PUSH3 0x461BCD PUSH1 0xE5 SHL DUP2 MSTORE PUSH1 0x20 PUSH1 0x4 DUP3 ADD MSTORE PUSH1 0x13 PUSH1 0x24 DUP3 ADD MSTORE PUSH19 0x4E6F206665657320746F207769746864726177 PUSH1 0x68 SHL PUSH1 0x44 DUP3 ADD MSTORE PUSH1 0x64 SWAP1 REVERT JUMPDEST CALLVALUE PUSH2 0xA7 JUMPI PUSH1 0x40 CALLDATASIZE PUSH1 0x3 NOT ADD SLT PUSH2 0xA7 JUMPI PUSH1 0x4 CALLDATALOAD PUSH1 0x24 DUP1 CALLDATALOAD SWAP1 PUSH8 0xFFFFFFFFFFFFFFFF SWAP1 DUP2 DUP4 GT PUSH2 0xA7 JUMPI CALLDATASIZE PUSH1 0x23 DUP5 ADD SLT ISZERO PUSH2 0xA7 JUMPI DUP3 PUSH1 0x4 ADD CALLDATALOAD SWAP2 DUP3 GT PUSH2 0xA7 JUMPI DUP1 DUP4 ADD SWAP3 CALLDATASIZE DUP3 DUP5 DUP4 ADD ADD GT PUSH2 0xA7 JUMPI DUP5 PUSH1 0x0 MSTORE PUSH1 0x20 SWAP1 PUSH1 0x0 DUP3 MSTORE PUSH1 0x40 PUSH1 0x0 KECCAK256 PUSH1 0x1 DUP1 PUSH1 0xA0 SHL SUB SWAP2 PUSH2 0xAD3 DUP4 DUP4 SLOAD AND ISZERO ISZERO PUSH2 0xED3 JUMP JUMPDEST PUSH1 0x1 SWAP1 PUSH1 0x1 DUP4 ADD SWAP6 DUP5 DUP8 SLOAD AND CALLER SUB PUSH2 0xD00 JUMPI PUSH1 0x6 DUP5 ADD DUP1 SLOAD PUSH2 0xAF8 PUSH1 0xFF DUP3 AND ISZERO PUSH2 0xF15 JUMP JUMPDEST PUSH2 0xB08 PUSH1 0xFF DUP3 PUSH1 0x8 SHR AND ISZERO PUSH2 0xF55 JUMP JUMPDEST PUSH1 0x5 DUP7 ADD SLOAD TIMESTAMP LT ISZERO PUSH2 0xCC9 JUMPI DUP11 DUP11 PUSH2 0xB39 DUP11 PUSH1 0x40 MLOAD DUP4 DUP2 SWAP5 DUP4 DUP4 ADD SWAP7 DUP8 CALLDATACOPY DUP2 ADD PUSH1 0x0 DUP4 DUP3 ADD MSTORE SUB DUP1 DUP5 MSTORE ADD DUP3 PUSH2 0xE0C JUMP JUMPDEST MLOAD SWAP1 KECCAK256 PUSH1 0x4 DUP8 ADD SLOAD SUB PUSH2 0xC94 JUMPI SWAP1 PUSH1 0x1 DUP11 SWAP4 SWAP3 PUSH1 0xFF NOT AND OR SWAP1 SSTORE PUSH1 0x7 DUP6 ADD SWAP4 PUSH2 0xB6C DUP4 PUSH2 0xB66 DUP8 SLOAD PUSH2 0xDD2 JUMP JUMPDEST DUP8 PUSH2 0xF94 JUMP JUMPDEST PUSH1 0x0 SWAP1 PUSH1 0x1F DUP5 GT PUSH1 0x1 EQ PUSH2 0xC25 JUMPI POP SWAP1 DUP3 SWAP2 PUSH2 0xBA0 SWAP5 PUSH1 0x0 SWAP4 PUSH2 0xC18 JUMPI JUMPDEST POP POP POP DUP2 PUSH1 0x1 SHL SWAP2 PUSH1 0x0 NOT SWAP1 PUSH1 0x3 SHL SHR NOT AND OR SWAP1 JUMP JUMPDEST SWAP1 SSTORE JUMPDEST PUSH1 0x2 DUP2 ADD SLOAD DUP3 AND PUSH2 0x8C8 JUMPI PUSH32 0x131889CD7DB85BA9C0B47CE492C8AEB9DC8B9E732F758FF6DD1263D8C0D6A095 SWAP6 PUSH2 0xBF2 PUSH1 0x0 DUP1 DUP1 DUP1 DUP11 SWAP8 SWAP7 PUSH1 0x3 DUP10 SWAP9 PUSH1 0x40 SWAP13 SLOAD AND SWAP2 ADD SLOAD SWAP1 GAS CALL PUSH2 0x89B PUSH2 0xFEA JUMP JUMPDEST DUP5 MLOAD SWAP6 DUP5 DUP8 SWAP6 DUP7 MSTORE DUP6 ADD MSTORE DUP5 DUP5 ADD CALLDATACOPY PUSH1 0x0 DUP3 DUP3 ADD DUP5 ADD MSTORE PUSH1 0x1F ADD PUSH1 0x1F NOT AND DUP2 ADD SUB ADD SWAP1 LOG2 STOP JUMPDEST ADD ADD CALLDATALOAD SWAP1 POP DUP12 DUP1 DUP1 PUSH2 0xB8A JUMP JUMPDEST SWAP4 SWAP3 PUSH1 0x1F NOT DUP2 AND DUP7 PUSH1 0x0 MSTORE DUP10 PUSH1 0x0 KECCAK256 SWAP6 PUSH1 0x0 SWAP1 JUMPDEST DUP12 DUP4 DUP4 LT PUSH2 0xC77 JUMPI POP POP POP LT PUSH2 0xC5B JUMPI JUMPDEST POP POP POP POP PUSH1 0x1 DUP7 DUP2 SHL ADD SWAP1 SSTORE PUSH2 0xBA3 JUMP JUMPDEST PUSH1 0x0 NOT PUSH1 0xF8 DUP12 PUSH1 0x3 SHL AND SHR NOT SWAP3 ADD ADD CALLDATALOAD AND SWAP1 SSTORE DUP9 DUP1 DUP1 DUP1 PUSH2 0xC4A JUMP JUMPDEST DUP8 DUP7 ADD DUP8 ADD CALLDATALOAD DUP10 SSTORE SWAP8 DUP2 ADD SWAP8 SWAP5 DUP6 ADD SWAP5 DUP15 SWAP5 POP SWAP2 SWAP1 SWAP2 ADD SWAP1 PUSH2 0xC39 JUMP JUMPDEST PUSH1 0x40 MLOAD PUSH3 0x461BCD PUSH1 0xE5 SHL DUP2 MSTORE PUSH1 0x4 DUP2 ADD DUP10 SWAP1 MSTORE PUSH1 0xE DUP2 DUP6 ADD MSTORE PUSH14 0x125B9D985B1A59081CD958DC995D PUSH1 0x92 SHL PUSH1 0x44 DUP3 ADD MSTORE PUSH1 0x64 SWAP1 REVERT JUMPDEST PUSH1 0x40 MLOAD PUSH3 0x461BCD PUSH1 0xE5 SHL DUP2 MSTORE PUSH1 0x4 DUP2 ADD DUP10 SWAP1 MSTORE PUSH1 0x10 DUP2 DUP6 ADD MSTORE PUSH16 0x151A5B595B1BD8DAC8195E1C1A5C9959 PUSH1 0x82 SHL PUSH1 0x44 DUP3 ADD MSTORE PUSH1 0x64 SWAP1 REVERT JUMPDEST DUP6 PUSH1 0x1B PUSH1 0x64 SWAP3 PUSH1 0x40 MLOAD SWAP3 PUSH3 0x461BCD PUSH1 0xE5 SHL DUP5 MSTORE PUSH1 0x4 DUP5 ADD MSTORE DUP3 ADD MSTORE PUSH32 0x4F6E6C7920726563697069656E742063616E2077697468647261770000000000 PUSH1 0x44 DUP3 ADD MSTORE REVERT JUMPDEST SWAP8 SWAP5 SWAP2 SWAP7 SWAP4 SWAP1 SWAP9 SWAP6 SWAP3 SWAP9 PUSH2 0x120 SWAP10 PUSH1 0x1 DUP1 PUSH1 0xA0 SHL SUB DUP1 SWAP3 AND DUP11 MSTORE DUP2 PUSH1 0x20 SWAP10 AND PUSH1 0x20 DUP12 ADD MSTORE AND PUSH1 0x40 DUP10 ADD MSTORE PUSH1 0x60 DUP9 ADD MSTORE PUSH1 0x80 DUP8 ADD MSTORE PUSH1 0xA0 DUP7 ADD MSTORE ISZERO ISZERO PUSH1 0xC0 DUP6 ADD MSTORE ISZERO ISZERO PUSH1 0xE0 DUP5 ADD MSTORE DUP4 PUSH2 0x100 DUP5 ADD MSTORE DUP1 MLOAD DUP1 SWAP5 DUP5 ADD MSTORE PUSH1 0x0 JUMPDEST DUP5 DUP2 LT PUSH2 0xDBD JUMPI POP POP POP PUSH2 0x140 SWAP2 PUSH1 0x0 DUP4 DUP3 DUP5 ADD ADD MSTORE PUSH1 0x1F DUP1 NOT SWAP2 ADD AND ADD ADD SWAP1 JUMP JUMPDEST DUP2 DUP2 ADD DUP4 ADD MLOAD DUP5 DUP3 ADD PUSH2 0x140 ADD MSTORE DUP3 ADD PUSH2 0xD9B JUMP JUMPDEST SWAP1 PUSH1 0x1 DUP3 DUP2 SHR SWAP3 AND DUP1 ISZERO PUSH2 0xE02 JUMPI JUMPDEST PUSH1 0x20 DUP4 LT EQ PUSH2 0xDEC JUMPI JUMP JUMPDEST PUSH4 0x4E487B71 PUSH1 0xE0 SHL PUSH1 0x0 MSTORE PUSH1 0x22 PUSH1 0x4 MSTORE PUSH1 0x24 PUSH1 0x0 REVERT JUMPDEST SWAP2 PUSH1 0x7F AND SWAP2 PUSH2 0xDE1 JUMP JUMPDEST SWAP1 PUSH1 0x1F DUP1 NOT SWAP2 ADD AND DUP2 ADD SWAP1 DUP2 LT PUSH8 0xFFFFFFFFFFFFFFFF DUP3 GT OR PUSH2 0x5E4 JUMPI PUSH1 0x40 MSTORE JUMP JUMPDEST SWAP1 PUSH1 0x40 MLOAD SWAP2 DUP3 PUSH1 0x0 DUP3 SLOAD PUSH2 0xE41 DUP2 PUSH2 0xDD2 JUMP JUMPDEST SWAP1 DUP2 DUP5 MSTORE PUSH1 0x20 SWAP5 PUSH1 0x1 SWAP2 PUSH1 0x1 DUP2 AND SWAP1 DUP2 PUSH1 0x0 EQ PUSH2 0xEB1 JUMPI POP PUSH1 0x1 EQ PUSH2 0xE72 JUMPI JUMPDEST POP POP POP PUSH2 0xE70 SWAP3 POP SUB DUP4 PUSH2 0xE0C JUMP JUMPDEST JUMP JUMPDEST PUSH1 0x0 SWAP1 DUP2 MSTORE DUP6 DUP2 KECCAK256 SWAP6 SWAP4 POP SWAP2 SWAP1 JUMPDEST DUP2 DUP4 LT PUSH2 0xE99 JUMPI POP POP PUSH2 0xE70 SWAP4 POP DUP3 ADD ADD CODESIZE DUP1 DUP1 PUSH2 0xE61 JUMP JUMPDEST DUP6 SLOAD DUP9 DUP5 ADD DUP6 ADD MSTORE SWAP5 DUP6 ADD SWAP5 DUP8 SWAP5 POP SWAP2 DUP4 ADD SWAP2 PUSH2 0xE80 JUMP JUMPDEST SWAP3 POP POP POP PUSH2 0xE70 SWAP5 SWAP3 POP PUSH1 0xFF NOT AND DUP3 DUP5 ADD MSTORE ISZERO ISZERO PUSH1 0x5 SHL DUP3 ADD ADD CODESIZE DUP1 DUP1 PUSH2 0xE61 JUMP JUMPDEST ISZERO PUSH2 0xEDA JUMPI JUMP JUMPDEST PUSH1 0x40 MLOAD PUSH3 0x461BCD PUSH1 0xE5 SHL DUP2 MSTORE PUSH1 0x20 PUSH1 0x4 DUP3 ADD MSTORE PUSH1 0x13 PUSH1 0x24 DUP3 ADD MSTORE PUSH19 0x14DDD85C08191BD95CC81B9BDD08195E1A5CDD PUSH1 0x6A SHL PUSH1 0x44 DUP3 ADD MSTORE PUSH1 0x64 SWAP1 REVERT JUMPDEST ISZERO PUSH2 0xF1C JUMPI JUMP JUMPDEST PUSH1 0x40 MLOAD PUSH3 0x461BCD PUSH1 0xE5 SHL DUP2 MSTORE PUSH1 0x20 PUSH1 0x4 DUP3 ADD MSTORE PUSH1 0x11 PUSH1 0x24 DUP3 ADD MSTORE PUSH17 0x20B63932B0B23C903BB4BA34323930BBB7 PUSH1 0x79 SHL PUSH1 0x44 DUP3 ADD MSTORE PUSH1 0x64 SWAP1 REVERT JUMPDEST ISZERO PUSH2 0xF5C JUMPI JUMP JUMPDEST PUSH1 0x40 MLOAD PUSH3 0x461BCD PUSH1 0xE5 SHL DUP2 MSTORE PUSH1 0x20 PUSH1 0x4 DUP3 ADD MSTORE PUSH1 0x10 PUSH1 0x24 DUP3 ADD MSTORE PUSH16 0x105B1C9958591E481C99599D5B991959 PUSH1 0x82 SHL PUSH1 0x44 DUP3 ADD MSTORE PUSH1 0x64 SWAP1 REVERT JUMPDEST SWAP1 PUSH1 0x1F DUP2 GT PUSH2 0xFA2 JUMPI POP POP POP JUMP JUMPDEST PUSH1 0x0 SWAP2 PUSH1 0x0 MSTORE PUSH1 0x20 PUSH1 0x0 KECCAK256 SWAP1 PUSH1 0x20 PUSH1 0x1F DUP6 ADD PUSH1 0x5 SHR DUP4 ADD SWAP5 LT PUSH2 0xFE0 JUMPI JUMPDEST PUSH1 0x1F ADD PUSH1 0x5 SHR ADD SWAP2 JUMPDEST DUP3 DUP2 LT PUSH2 0xFD5 JUMPI POP POP POP JUMP JUMPDEST DUP2 DUP2 SSTORE PUSH1 0x1 ADD PUSH2 0xFC9 JUMP JUMPDEST SWAP1 SWAP3 POP DUP3 SWAP1 PUSH2 0xFC0 JUMP JUMPDEST RETURNDATASIZE ISZERO PUSH2 0x1025 JUMPI RETURNDATASIZE SWAP1 PUSH8 0xFFFFFFFFFFFFFFFF DUP3 GT PUSH2 0x5E4 JUMPI PUSH1 0x40 MLOAD SWAP2 PUSH2 0x1019 PUSH1 0x1F DUP3 ADD PUSH1 0x1F NOT AND PUSH1 0x20 ADD DUP5 PUSH2 0xE0C JUMP JUMPDEST DUP3 MSTORE RETURNDATASIZE PUSH1 0x0 PUSH1 0x20 DUP5 ADD RETURNDATACOPY JUMP JUMPDEST PUSH1 0x60 SWAP1 JUMP JUMPDEST ISZERO PUSH2 0x1031 JUMPI JUMP JUMPDEST PUSH1 0x40 MLOAD PUSH3 0x461BCD PUSH1 0xE5 SHL DUP2 MSTORE PUSH1 0x20 PUSH1 0x4 DUP3 ADD MSTORE PUSH1 0x13 PUSH1 0x24 DUP3 ADD MSTORE PUSH19 0x115512081D1C985B9CD9995C8819985A5B1959 PUSH1 0x6A SHL PUSH1 0x44 DUP3 ADD MSTORE PUSH1 0x64 SWAP1 REVERT INVALID LOG2 PUSH5 0x6970667358 0x22 SLT KECCAK256 0xD3 PUSH11 0x11D362F935F6714DD317BE 0xDB SELFBALANCE PUSH12 0xF0267EFAE58E5B9C2BFB2F54 CALLDATALOAD PUSH22 0x394364736F6C63430008180033000000000000000000 "},"methodIdentifiers":{"FEE_BASIS_POINTS()":"a525ad3c","MAX_TIMELOCK()":"94f1825b","MIN_TIMELOCK()":"fb0c7549","emergencyWithdraw()":"db2e21bc","getSwap(bytes32)":"3da0e66e","initiateSwap(address,address,uint256,bytes32,uint256)":"82489981","refund(bytes32)":"7249fbb6","swaps(bytes32)":"eb84e7f2","withdraw(bytes32,string)":"06a53665","withdrawFees()":"476343ee"}}}}}