{"contracts/SwapSageOracle.sol":{"SwapSageOracle":{"abi":[{"inputs":[],"stateMutability":"nonpayable","type":"constructor"},{"inputs":[{"internalType":"address","name":"owner","type":"address"}],"name":"OwnableInvalidOwner","type":"error"},{"inputs":[{"internalType":"address","name":"account","type":"address"}],"name":"OwnableUnauthorizedAccount","type":"error"},{"inputs":[],"name":"ReentrancyGuardReentrantCall","type":"error"},{"anonymous":false,"inputs":[{"indexed":true,"internalType":"address","name":"oracle","type":"address"},{"indexed":false,"internalType":"bool","name":"isActive","type":"bool"}],"name":"OracleUpdated","type":"event"},{"anonymous":false,"inputs":[{"indexed":true,"internalType":"address","name":"previousOwner","type":"address"},{"indexed":true,"internalType":"address","name":"newOwner","type":"address"}],"name":"OwnershipTransferred","type":"event"},{"anonymous":false,"inputs":[{"indexed":true,"internalType":"address","name":"token","type":"address"},{"indexed":false,"internalType":"uint256","name":"price","type":"uint256"},{"indexed":false,"internalType":"uint256","name":"timestamp","type":"uint256"}],"name":"PriceFeedUpdated","type":"event"},{"anonymous":false,"inputs":[{"indexed":true,"internalType":"bytes32","name":"swapHash","type":"bytes32"},{"indexed":false,"internalType":"address","name":"fromToken","type":"address"},{"indexed":false,"internalType":"address","name":"toToken","type":"address"},{"indexed":false,"internalType":"uint256","name":"expectedAmount","type":"uint256"},{"indexed":false,"internalType":"uint256","name":"confidence","type":"uint256"}],"name":"SwapRecommendationCreated","type":"event"},{"inputs":[],"name":"CONFIDENCE_DECIMALS","outputs":[{"internalType":"uint256","name":"","type":"uint256"}],"stateMutability":"view","type":"function"},{"inputs":[],"name":"PRICE_DECIMALS","outputs":[{"internalType":"uint256","name":"","type":"uint256"}],"stateMutability":"view","type":"function"},{"inputs":[{"internalType":"address","name":"","type":"address"}],"name":"authorizedOracles","outputs":[{"internalType":"bool","name":"","type":"bool"}],"stateMutability":"view","type":"function"},{"inputs":[{"internalType":"address","name":"fromToken","type":"address"},{"internalType":"address","name":"toToken","type":"address"},{"internalType":"uint256","name":"expectedAmount","type":"uint256"},{"internalType":"uint256","name":"confidence","type":"uint256"}],"name":"createSwapRecommendation","outputs":[],"stateMutability":"nonpayable","type":"function"},{"inputs":[{"internalType":"address","name":"token","type":"address"}],"name":"getPrice","outputs":[{"internalType":"uint256","name":"price","type":"uint256"},{"internalType":"uint256","name":"timestamp","type":"uint256"},{"internalType":"bool","name":"isValid","type":"bool"}],"stateMutability":"view","type":"function"},{"inputs":[{"internalType":"bytes32","name":"swapHash","type":"bytes32"}],"name":"getSwapRecommendation","outputs":[{"components":[{"internalType":"address","name":"fromToken","type":"address"},{"internalType":"address","name":"toToken","type":"address"},{"internalType":"uint256","name":"expectedAmount","type":"uint256"},{"internalType":"uint256","name":"confidence","type":"uint256"},{"internalType":"uint256","name":"timestamp","type":"uint256"},{"internalType":"bool","name":"isValid","type":"bool"}],"internalType":"struct SwapSageOracle.SwapRecommendation","name":"recommendation","type":"tuple"}],"stateMutability":"view","type":"function"},{"inputs":[{"internalType":"address","name":"token","type":"address"}],"name":"invalidatePriceFeed","outputs":[],"stateMutability":"nonpayable","type":"function"},{"inputs":[{"internalType":"bytes32","name":"swapHash","type":"bytes32"}],"name":"invalidateSwapRecommendation","outputs":[],"stateMutability":"nonpayable","type":"function"},{"inputs":[],"name":"minConfidence","outputs":[{"internalType":"uint256","name":"","type":"uint256"}],"stateMutability":"view","type":"function"},{"inputs":[],"name":"owner","outputs":[{"internalType":"address","name":"","type":"address"}],"stateMutability":"view","type":"function"},{"inputs":[{"internalType":"address","name":"","type":"address"}],"name":"priceFeeds","outputs":[{"internalType":"address","name":"token","type":"address"},{"internalType":"uint256","name":"price","type":"uint256"},{"internalType":"uint256","name":"timestamp","type":"uint256"},{"internalType":"bool","name":"isValid","type":"bool"}],"stateMutability":"view","type":"function"},{"inputs":[],"name":"renounceOwnership","outputs":[],"stateMutability":"nonpayable","type":"function"},{"inputs":[{"internalType":"address","name":"oracle","type":"address"},{"internalType":"bool","name":"isActive","type":"bool"}],"name":"setAuthorizedOracle","outputs":[],"stateMutability":"nonpayable","type":"function"},{"inputs":[{"internalType":"uint256","name":"newMinConfidence","type":"uint256"}],"name":"setMinConfidence","outputs":[],"stateMutability":"nonpayable","type":"function"},{"inputs":[{"internalType":"bytes32","name":"","type":"bytes32"}],"name":"swapRecommendations","outputs":[{"internalType":"address","name":"fromToken","type":"address"},{"internalType":"address","name":"toToken","type":"address"},{"internalType":"uint256","name":"expectedAmount","type":"uint256"},{"internalType":"uint256","name":"confidence","type":"uint256"},{"internalType":"uint256","name":"timestamp","type":"uint256"},{"internalType":"bool","name":"isValid","type":"bool"}],"stateMutability":"view","type":"function"},{"inputs":[{"internalType":"address","name":"newOwner","type":"address"}],"name":"transferOwnership","outputs":[],"stateMutability":"nonpayable","type":"function"},{"inputs":[{"internalType":"address","name":"token","type":"address"},{"internalType":"uint256","name":"price","type":"uint256"}],"name":"updatePriceFeed","outputs":[],"stateMutability":"nonpayable","type":"function"}],"evm":{"bytecode":{"linkReferences":{},"object":"60806040908082523461010a5733156100f4575060008054336001600160a01b0319808316821784558451926001600160a01b03929083167f8be0079c531659141344cd1fd0a4f28419497f9722a3daafe3b4186f6b6457e08680a360018055611b58600555608083016001600160401b038111848210176100e0579060039392918652848352602083019063773594008252868401924284528760608601976001895280805260026020522094511690845416178355516001830155516002820155019051151560ff8019835416911617905551610ae090816101108239f35b634e487b7160e01b85526041600452602485fd5b631e4fbdf760e01b815260006004820152602490fd5b600080fdfe6040608081526004908136101561001557600080fd5b600091823560e01c806309e8a4d41461070a5780631a369632146106d6578063226c6d75146106065780632b10f5fd146104c857806341976e091461044e5780635764390c1461041e57806361c992a3146103e2578063715018a6146103855780637c6be6fa146103415780638c3f45ef146102d45780638da5cb5b146102ac5780639dcb511a14610249578063c7a6de4d146101c1578063d52b7a14146101a2578063de3f2afd14610185578063f1a640f8146101655763f2fde38b146100dc57600080fd5b34610161576020366003190112610161576100f5610974565b906100fe610a7e565b6001600160a01b0391821692831561014b57505082546001600160a01b0319811683178455167f8be0079c531659141344cd1fd0a4f28419497f9722a3daafe3b4186f6b6457e08380a380f35b51631e4fbdf760e01b8152908101849052602490fd5b8280fd5b5050346101815781600319360112610181576020905160088152f35b5080fd5b505034610181578160031936011261018157602090516127108152f35b5050346101815781600319360112610181576020906005549051908152f35b5090346101615780600319360112610161576101db610974565b9060243590811515908183036102455761023d6020937f94c9cbe1d9aa7af08484f82ab0179d6db973a391236668c34192d954ff32c06c9561021b610a7e565b60018060a01b03169687895285528288209060ff801983541691151516179055565b51908152a280f35b8580fd5b505034610181576020366003190112610181576080916001600160a01b039190819083610274610974565b168152600260205220918254169160018101549160ff6003600284015493015416928151948552602085015283015215156060820152f35b505034610181578160031936011261018157905490516001600160a01b039091168152602090f35b509034610161576020366003190112610161578060c0938335815260036020522060018060a01b039283825416936001830154169260028301549060ff600560038601549486015495015416948151968752602087015285015260608401526080830152151560a0820152f35b5050346101815760203660031901126101815760039061035f610974565b610367610a7e565b6001600160a01b031683526002602052822001805460ff1916905580f35b83346103df57806003193601126103df5761039e610a7e565b80546001600160a01b03198116825581906001600160a01b03167f8be0079c531659141344cd1fd0a4f28419497f9722a3daafe3b4186f6b6457e08280a380f35b80fd5b50346101615760203660031901126101615760209260ff918391906001600160a01b0361040d610974565b168252855220541690519015158152f35b838234610181576020366003190112610181573561043a610a7e565b6104486127108211156109cc565b60055580f35b505034610181576020366003190112610181576060916001600160a01b0391839181908461047a610974565b16815260026020522081519361048f85610a3f565b815416845260018101549384602082015260ff600360028401549384868501520154161515938491015281519384526020840152820152f35b5090346101615780600319360112610161576104e2610974565b91602435903385528060205260ff838620541680156105f3575b6105059061098f565b61050d610a5b565b81156105c05750907f7f0087464ace68eb51ed07d9daf1bd00eb6e1d36e4889a096a0eaf702f7af558916105ad825161054581610a3f565b600360018060a01b038097169687835260208301858152868401904282526060850192600184528a8c526002602052888c209551166001600160601b0360a01b86541617855551600185015551600284015551151591019060ff801983541691151516179055565b8151908152426020820152a26001805580f35b606490602084519162461bcd60e51b8352820152600d60248201526c496e76616c696420707269636560981b6044820152fd5b5084546001600160a01b031633146104fc565b503461016157602036600319011261016157818360c09460a0835161062a81610a0d565b828152826020820152828582015282606082015282608082015201528235815260036020522082519161065c83610a0d565b60018060a01b0393848354169485855280600185015416906020860191825260028501549183870192835260a060ff600560038901549760608b019889528901549860808b01998a5201541697019615158752835197885251166020870152519085015251606084015251608083015251151560a0820152f35b509034610161576020366003190112610161576005916106f4610a7e565b3583526003602052822001805460ff1916905580f35b5091903461018157608036600319011261018157610726610974565b90602435906001600160a01b039081831680840361024557604435926064359433885260209189835260ff858a2054168015610968575b6107669061098f565b61076e610a5b565b808816978489146109375786156109035761078d6127108911156109cc565b60055488106108cf57855190848201936001600160601b0319809260601b16855260601b1660348201528660488201524260688201526068815260a081019281841067ffffffffffffffff8511176108bc579088888c9d93868a52835190209c8d956107f888610a0d565b8d8852808b60c08701938c855260e088019586526101008801968752610120880197428952610140019960018b52815260038c5220985116906001600160601b0360a01b91828a5416178955600189019251169082541617905551600286015551600385015551908301555115159060050190610880919060ff801983541691151516179055565b8251958652850152830152606082015260807f7a6f15baf00ad1e749ace07cd494c0a2004f12a6889cca6c1ef493d9df3c4f8d91a26001805580f35b634e487b7160e01b8b5260418c5260248bfd5b855162461bcd60e51b8152808c01859052600e60248201526d4c6f7720636f6e666964656e636560901b6044820152606490fd5b855162461bcd60e51b8152808c01859052600e60248201526d125b9d985b1a5908185b5bdd5b9d60921b6044820152606490fd5b855162461bcd60e51b8152808c01859052600b60248201526a53616d6520746f6b656e7360a81b6044820152606490fd5b5088548116331461075d565b600435906001600160a01b038216820361098a57565b600080fd5b1561099657565b60405162461bcd60e51b815260206004820152600e60248201526d139bdd08185d5d1a1bdc9a5e995960921b6044820152606490fd5b156109d357565b60405162461bcd60e51b8152602060048201526012602482015271496e76616c696420636f6e666964656e636560701b6044820152606490fd5b60c0810190811067ffffffffffffffff821117610a2957604052565b634e487b7160e01b600052604160045260246000fd5b6080810190811067ffffffffffffffff821117610a2957604052565b600260015414610a6c576002600155565b604051633ee5aeb560e01b8152600490fd5b6000546001600160a01b03163303610a9257565b60405163118cdaa760e01b8152336004820152602490fdfea2646970667358221220ac6f35123bab65051bde5d3fc72f9a53606cd67ef2d77fc0da80896527c263b064736f6c63430008180033","opcodes":"PUSH1 0x80 PUSH1 0x40 SWAP1 DUP1 DUP3 MSTORE CALLVALUE PUSH2 0x10A JUMPI CALLER ISZERO PUSH2 0xF4 JUMPI POP PUSH1 0x0 DUP1 SLOAD CALLER PUSH1 0x1 PUSH1 0x1 PUSH1 0xA0 SHL SUB NOT DUP1 DUP4 AND DUP3 OR DUP5 SSTORE DUP5 MLOAD SWAP3 PUSH1 0x1 PUSH1 0x1 PUSH1 0xA0 SHL SUB SWAP3 SWAP1 DUP4 AND PUSH32 0x8BE0079C531659141344CD1FD0A4F28419497F9722A3DAAFE3B4186F6B6457E0 DUP7 DUP1 LOG3 PUSH1 0x1 DUP1 SSTORE PUSH2 0x1B58 PUSH1 0x5 SSTORE PUSH1 0x80 DUP4 ADD PUSH1 0x1 PUSH1 0x1 PUSH1 0x40 SHL SUB DUP2 GT DUP5 DUP3 LT OR PUSH2 0xE0 JUMPI SWAP1 PUSH1 0x3 SWAP4 SWAP3 SWAP2 DUP7 MSTORE DUP5 DUP4 MSTORE PUSH1 0x20 DUP4 ADD SWAP1 PUSH4 0x77359400 DUP3 MSTORE DUP7 DUP5 ADD SWAP3 TIMESTAMP DUP5 MSTORE DUP8 PUSH1 0x60 DUP7 ADD SWAP8 PUSH1 0x1 DUP10 MSTORE DUP1 DUP1 MSTORE PUSH1 0x2 PUSH1 0x20 MSTORE KECCAK256 SWAP5 MLOAD AND SWAP1 DUP5 SLOAD AND OR DUP4 SSTORE MLOAD PUSH1 0x1 DUP4 ADD SSTORE MLOAD PUSH1 0x2 DUP3 ADD SSTORE ADD SWAP1 MLOAD ISZERO ISZERO PUSH1 0xFF DUP1 NOT DUP4 SLOAD AND SWAP2 AND OR SWAP1 SSTORE MLOAD PUSH2 0xAE0 SWAP1 DUP2 PUSH2 0x110 DUP3 CODECOPY RETURN JUMPDEST PUSH4 0x4E487B71 PUSH1 0xE0 SHL DUP6 MSTORE PUSH1 0x41 PUSH1 0x4 MSTORE PUSH1 0x24 DUP6 REVERT JUMPDEST PUSH4 0x1E4FBDF7 PUSH1 0xE0 SHL DUP2 MSTORE PUSH1 0x0 PUSH1 0x4 DUP3 ADD MSTORE PUSH1 0x24 SWAP1 REVERT JUMPDEST PUSH1 0x0 DUP1 REVERT INVALID PUSH1 0x40 PUSH1 0x80 DUP2 MSTORE PUSH1 0x4 SWAP1 DUP2 CALLDATASIZE LT ISZERO PUSH2 0x15 JUMPI PUSH1 0x0 DUP1 REVERT JUMPDEST PUSH1 0x0 SWAP2 DUP3 CALLDATALOAD PUSH1 0xE0 SHR DUP1 PUSH4 0x9E8A4D4 EQ PUSH2 0x70A JUMPI DUP1 PUSH4 0x1A369632 EQ PUSH2 0x6D6 JUMPI DUP1 PUSH4 0x226C6D75 EQ PUSH2 0x606 JUMPI DUP1 PUSH4 0x2B10F5FD EQ PUSH2 0x4C8 JUMPI DUP1 PUSH4 0x41976E09 EQ PUSH2 0x44E JUMPI DUP1 PUSH4 0x5764390C EQ PUSH2 0x41E JUMPI DUP1 PUSH4 0x61C992A3 EQ PUSH2 0x3E2 JUMPI DUP1 PUSH4 0x715018A6 EQ PUSH2 0x385 JUMPI DUP1 PUSH4 0x7C6BE6FA EQ PUSH2 0x341 JUMPI DUP1 PUSH4 0x8C3F45EF EQ PUSH2 0x2D4 JUMPI DUP1 PUSH4 0x8DA5CB5B EQ PUSH2 0x2AC JUMPI DUP1 PUSH4 0x9DCB511A EQ PUSH2 0x249 JUMPI DUP1 PUSH4 0xC7A6DE4D EQ PUSH2 0x1C1 JUMPI DUP1 PUSH4 0xD52B7A14 EQ PUSH2 0x1A2 JUMPI DUP1 PUSH4 0xDE3F2AFD EQ PUSH2 0x185 JUMPI DUP1 PUSH4 0xF1A640F8 EQ PUSH2 0x165 JUMPI PUSH4 0xF2FDE38B EQ PUSH2 0xDC JUMPI PUSH1 0x0 DUP1 REVERT JUMPDEST CALLVALUE PUSH2 0x161 JUMPI PUSH1 0x20 CALLDATASIZE PUSH1 0x3 NOT ADD SLT PUSH2 0x161 JUMPI PUSH2 0xF5 PUSH2 0x974 JUMP JUMPDEST SWAP1 PUSH2 0xFE PUSH2 0xA7E JUMP JUMPDEST PUSH1 0x1 PUSH1 0x1 PUSH1 0xA0 SHL SUB SWAP2 DUP3 AND SWAP3 DUP4 ISZERO PUSH2 0x14B JUMPI POP POP DUP3 SLOAD PUSH1 0x1 PUSH1 0x1 PUSH1 0xA0 SHL SUB NOT DUP2 AND DUP4 OR DUP5 SSTORE AND PUSH32 0x8BE0079C531659141344CD1FD0A4F28419497F9722A3DAAFE3B4186F6B6457E0 DUP4 DUP1 LOG3 DUP1 RETURN JUMPDEST MLOAD PUSH4 0x1E4FBDF7 PUSH1 0xE0 SHL DUP2 MSTORE SWAP1 DUP2 ADD DUP5 SWAP1 MSTORE PUSH1 0x24 SWAP1 REVERT JUMPDEST DUP3 DUP1 REVERT JUMPDEST POP POP CALLVALUE PUSH2 0x181 JUMPI DUP2 PUSH1 0x3 NOT CALLDATASIZE ADD SLT PUSH2 0x181 JUMPI PUSH1 0x20 SWAP1 MLOAD PUSH1 0x8 DUP2 MSTORE RETURN JUMPDEST POP DUP1 REVERT JUMPDEST POP POP CALLVALUE PUSH2 0x181 JUMPI DUP2 PUSH1 0x3 NOT CALLDATASIZE ADD SLT PUSH2 0x181 JUMPI PUSH1 0x20 SWAP1 MLOAD PUSH2 0x2710 DUP2 MSTORE RETURN JUMPDEST POP POP CALLVALUE PUSH2 0x181 JUMPI DUP2 PUSH1 0x3 NOT CALLDATASIZE ADD SLT PUSH2 0x181 JUMPI PUSH1 0x20 SWAP1 PUSH1 0x5 SLOAD SWAP1 MLOAD SWAP1 DUP2 MSTORE RETURN JUMPDEST POP SWAP1 CALLVALUE PUSH2 0x161 JUMPI DUP1 PUSH1 0x3 NOT CALLDATASIZE ADD SLT PUSH2 0x161 JUMPI PUSH2 0x1DB PUSH2 0x974 JUMP JUMPDEST SWAP1 PUSH1 0x24 CALLDATALOAD SWAP1 DUP2 ISZERO ISZERO SWAP1 DUP2 DUP4 SUB PUSH2 0x245 JUMPI PUSH2 0x23D PUSH1 0x20 SWAP4 PUSH32 0x94C9CBE1D9AA7AF08484F82AB0179D6DB973A391236668C34192D954FF32C06C SWAP6 PUSH2 0x21B PUSH2 0xA7E JUMP JUMPDEST PUSH1 0x1 DUP1 PUSH1 0xA0 SHL SUB AND SWAP7 DUP8 DUP10 MSTORE DUP6 MSTORE DUP3 DUP9 KECCAK256 SWAP1 PUSH1 0xFF DUP1 NOT DUP4 SLOAD AND SWAP2 ISZERO ISZERO AND OR SWAP1 SSTORE JUMP JUMPDEST MLOAD SWAP1 DUP2 MSTORE LOG2 DUP1 RETURN JUMPDEST DUP6 DUP1 REVERT JUMPDEST POP POP CALLVALUE PUSH2 0x181 JUMPI PUSH1 0x20 CALLDATASIZE PUSH1 0x3 NOT ADD SLT PUSH2 0x181 JUMPI PUSH1 0x80 SWAP2 PUSH1 0x1 PUSH1 0x1 PUSH1 0xA0 SHL SUB SWAP2 SWAP1 DUP2 SWAP1 DUP4 PUSH2 0x274 PUSH2 0x974 JUMP JUMPDEST AND DUP2 MSTORE PUSH1 0x2 PUSH1 0x20 MSTORE KECCAK256 SWAP2 DUP3 SLOAD AND SWAP2 PUSH1 0x1 DUP2 ADD SLOAD SWAP2 PUSH1 0xFF PUSH1 0x3 PUSH1 0x2 DUP5 ADD SLOAD SWAP4 ADD SLOAD AND SWAP3 DUP2 MLOAD SWAP5 DUP6 MSTORE PUSH1 0x20 DUP6 ADD MSTORE DUP4 ADD MSTORE ISZERO ISZERO PUSH1 0x60 DUP3 ADD MSTORE RETURN JUMPDEST POP POP CALLVALUE PUSH2 0x181 JUMPI DUP2 PUSH1 0x3 NOT CALLDATASIZE ADD SLT PUSH2 0x181 JUMPI SWAP1 SLOAD SWAP1 MLOAD PUSH1 0x1 PUSH1 0x1 PUSH1 0xA0 SHL SUB SWAP1 SWAP2 AND DUP2 MSTORE PUSH1 0x20 SWAP1 RETURN JUMPDEST POP SWAP1 CALLVALUE PUSH2 0x161 JUMPI PUSH1 0x20 CALLDATASIZE PUSH1 0x3 NOT ADD SLT PUSH2 0x161 JUMPI DUP1 PUSH1 0xC0 SWAP4 DUP4 CALLDATALOAD DUP2 MSTORE PUSH1 0x3 PUSH1 0x20 MSTORE KECCAK256 PUSH1 0x1 DUP1 PUSH1 0xA0 SHL SUB SWAP3 DUP4 DUP3 SLOAD AND SWAP4 PUSH1 0x1 DUP4 ADD SLOAD AND SWAP3 PUSH1 0x2 DUP4 ADD SLOAD SWAP1 PUSH1 0xFF PUSH1 0x5 PUSH1 0x3 DUP7 ADD SLOAD SWAP5 DUP7 ADD SLOAD SWAP6 ADD SLOAD AND SWAP5 DUP2 MLOAD SWAP7 DUP8 MSTORE PUSH1 0x20 DUP8 ADD MSTORE DUP6 ADD MSTORE PUSH1 0x60 DUP5 ADD MSTORE PUSH1 0x80 DUP4 ADD MSTORE ISZERO ISZERO PUSH1 0xA0 DUP3 ADD MSTORE RETURN JUMPDEST POP POP CALLVALUE PUSH2 0x181 JUMPI PUSH1 0x20 CALLDATASIZE PUSH1 0x3 NOT ADD SLT PUSH2 0x181 JUMPI PUSH1 0x3 SWAP1 PUSH2 0x35F PUSH2 0x974 JUMP JUMPDEST PUSH2 0x367 PUSH2 0xA7E JUMP JUMPDEST PUSH1 0x1 PUSH1 0x1 PUSH1 0xA0 SHL SUB AND DUP4 MSTORE PUSH1 0x2 PUSH1 0x20 MSTORE DUP3 KECCAK256 ADD DUP1 SLOAD PUSH1 0xFF NOT AND SWAP1 SSTORE DUP1 RETURN JUMPDEST DUP4 CALLVALUE PUSH2 0x3DF JUMPI DUP1 PUSH1 0x3 NOT CALLDATASIZE ADD SLT PUSH2 0x3DF JUMPI PUSH2 0x39E PUSH2 0xA7E JUMP JUMPDEST DUP1 SLOAD PUSH1 0x1 PUSH1 0x1 PUSH1 0xA0 SHL SUB NOT DUP2 AND DUP3 SSTORE DUP2 SWAP1 PUSH1 0x1 PUSH1 0x1 PUSH1 0xA0 SHL SUB AND PUSH32 0x8BE0079C531659141344CD1FD0A4F28419497F9722A3DAAFE3B4186F6B6457E0 DUP3 DUP1 LOG3 DUP1 RETURN JUMPDEST DUP1 REVERT JUMPDEST POP CALLVALUE PUSH2 0x161 JUMPI PUSH1 0x20 CALLDATASIZE PUSH1 0x3 NOT ADD SLT PUSH2 0x161 JUMPI PUSH1 0x20 SWAP3 PUSH1 0xFF SWAP2 DUP4 SWAP2 SWAP1 PUSH1 0x1 PUSH1 0x1 PUSH1 0xA0 SHL SUB PUSH2 0x40D PUSH2 0x974 JUMP JUMPDEST AND DUP3 MSTORE DUP6 MSTORE KECCAK256 SLOAD AND SWAP1 MLOAD SWAP1 ISZERO ISZERO DUP2 MSTORE RETURN JUMPDEST DUP4 DUP3 CALLVALUE PUSH2 0x181 JUMPI PUSH1 0x20 CALLDATASIZE PUSH1 0x3 NOT ADD SLT PUSH2 0x181 JUMPI CALLDATALOAD PUSH2 0x43A PUSH2 0xA7E JUMP JUMPDEST PUSH2 0x448 PUSH2 0x2710 DUP3 GT ISZERO PUSH2 0x9CC JUMP JUMPDEST PUSH1 0x5 SSTORE DUP1 RETURN JUMPDEST POP POP CALLVALUE PUSH2 0x181 JUMPI PUSH1 0x20 CALLDATASIZE PUSH1 0x3 NOT ADD SLT PUSH2 0x181 JUMPI PUSH1 0x60 SWAP2 PUSH1 0x1 PUSH1 0x1 PUSH1 0xA0 SHL SUB SWAP2 DUP4 SWAP2 DUP2 SWAP1 DUP5 PUSH2 0x47A PUSH2 0x974 JUMP JUMPDEST AND DUP2 MSTORE PUSH1 0x2 PUSH1 0x20 MSTORE KECCAK256 DUP2 MLOAD SWAP4 PUSH2 0x48F DUP6 PUSH2 0xA3F JUMP JUMPDEST DUP2 SLOAD AND DUP5 MSTORE PUSH1 0x1 DUP2 ADD SLOAD SWAP4 DUP5 PUSH1 0x20 DUP3 ADD MSTORE PUSH1 0xFF PUSH1 0x3 PUSH1 0x2 DUP5 ADD SLOAD SWAP4 DUP5 DUP7 DUP6 ADD MSTORE ADD SLOAD AND ISZERO ISZERO SWAP4 DUP5 SWAP2 ADD MSTORE DUP2 MLOAD SWAP4 DUP5 MSTORE PUSH1 0x20 DUP5 ADD MSTORE DUP3 ADD MSTORE RETURN JUMPDEST POP SWAP1 CALLVALUE PUSH2 0x161 JUMPI DUP1 PUSH1 0x3 NOT CALLDATASIZE ADD SLT PUSH2 0x161 JUMPI PUSH2 0x4E2 PUSH2 0x974 JUMP JUMPDEST SWAP2 PUSH1 0x24 CALLDATALOAD SWAP1 CALLER DUP6 MSTORE DUP1 PUSH1 0x20 MSTORE PUSH1 0xFF DUP4 DUP7 KECCAK256 SLOAD AND DUP1 ISZERO PUSH2 0x5F3 JUMPI JUMPDEST PUSH2 0x505 SWAP1 PUSH2 0x98F JUMP JUMPDEST PUSH2 0x50D PUSH2 0xA5B JUMP JUMPDEST DUP2 ISZERO PUSH2 0x5C0 JUMPI POP SWAP1 PUSH32 0x7F0087464ACE68EB51ED07D9DAF1BD00EB6E1D36E4889A096A0EAF702F7AF558 SWAP2 PUSH2 0x5AD DUP3 MLOAD PUSH2 0x545 DUP2 PUSH2 0xA3F JUMP JUMPDEST PUSH1 0x3 PUSH1 0x1 DUP1 PUSH1 0xA0 SHL SUB DUP1 SWAP8 AND SWAP7 DUP8 DUP4 MSTORE PUSH1 0x20 DUP4 ADD DUP6 DUP2 MSTORE DUP7 DUP5 ADD SWAP1 TIMESTAMP DUP3 MSTORE PUSH1 0x60 DUP6 ADD SWAP3 PUSH1 0x1 DUP5 MSTORE DUP11 DUP13 MSTORE PUSH1 0x2 PUSH1 0x20 MSTORE DUP9 DUP13 KECCAK256 SWAP6 MLOAD AND PUSH1 0x1 PUSH1 0x1 PUSH1 0x60 SHL SUB PUSH1 0xA0 SHL DUP7 SLOAD AND OR DUP6 SSTORE MLOAD PUSH1 0x1 DUP6 ADD SSTORE MLOAD PUSH1 0x2 DUP5 ADD SSTORE MLOAD ISZERO ISZERO SWAP2 ADD SWAP1 PUSH1 0xFF DUP1 NOT DUP4 SLOAD AND SWAP2 ISZERO ISZERO AND OR SWAP1 SSTORE JUMP JUMPDEST DUP2 MLOAD SWAP1 DUP2 MSTORE TIMESTAMP PUSH1 0x20 DUP3 ADD MSTORE LOG2 PUSH1 0x1 DUP1 SSTORE DUP1 RETURN JUMPDEST PUSH1 0x64 SWAP1 PUSH1 0x20 DUP5 MLOAD SWAP2 PUSH3 0x461BCD PUSH1 0xE5 SHL DUP4 MSTORE DUP3 ADD MSTORE PUSH1 0xD PUSH1 0x24 DUP3 ADD MSTORE PUSH13 0x496E76616C6964207072696365 PUSH1 0x98 SHL PUSH1 0x44 DUP3 ADD MSTORE REVERT JUMPDEST POP DUP5 SLOAD PUSH1 0x1 PUSH1 0x1 PUSH1 0xA0 SHL SUB AND CALLER EQ PUSH2 0x4FC JUMP JUMPDEST POP CALLVALUE PUSH2 0x161 JUMPI PUSH1 0x20 CALLDATASIZE PUSH1 0x3 NOT ADD SLT PUSH2 0x161 JUMPI DUP2 DUP4 PUSH1 0xC0 SWAP5 PUSH1 0xA0 DUP4 MLOAD PUSH2 0x62A DUP2 PUSH2 0xA0D JUMP JUMPDEST DUP3 DUP2 MSTORE DUP3 PUSH1 0x20 DUP3 ADD MSTORE DUP3 DUP6 DUP3 ADD MSTORE DUP3 PUSH1 0x60 DUP3 ADD MSTORE DUP3 PUSH1 0x80 DUP3 ADD MSTORE ADD MSTORE DUP3 CALLDATALOAD DUP2 MSTORE PUSH1 0x3 PUSH1 0x20 MSTORE KECCAK256 DUP3 MLOAD SWAP2 PUSH2 0x65C DUP4 PUSH2 0xA0D JUMP JUMPDEST PUSH1 0x1 DUP1 PUSH1 0xA0 SHL SUB SWAP4 DUP5 DUP4 SLOAD AND SWAP5 DUP6 DUP6 MSTORE DUP1 PUSH1 0x1 DUP6 ADD SLOAD AND SWAP1 PUSH1 0x20 DUP7 ADD SWAP2 DUP3 MSTORE PUSH1 0x2 DUP6 ADD SLOAD SWAP2 DUP4 DUP8 ADD SWAP3 DUP4 MSTORE PUSH1 0xA0 PUSH1 0xFF PUSH1 0x5 PUSH1 0x3 DUP10 ADD SLOAD SWAP8 PUSH1 0x60 DUP12 ADD SWAP9 DUP10 MSTORE DUP10 ADD SLOAD SWAP9 PUSH1 0x80 DUP12 ADD SWAP10 DUP11 MSTORE ADD SLOAD AND SWAP8 ADD SWAP7 ISZERO ISZERO DUP8 MSTORE DUP4 MLOAD SWAP8 DUP9 MSTORE MLOAD AND PUSH1 0x20 DUP8 ADD MSTORE MLOAD SWAP1 DUP6 ADD MSTORE MLOAD PUSH1 0x60 DUP5 ADD MSTORE MLOAD PUSH1 0x80 DUP4 ADD MSTORE MLOAD ISZERO ISZERO PUSH1 0xA0 DUP3 ADD MSTORE RETURN JUMPDEST POP SWAP1 CALLVALUE PUSH2 0x161 JUMPI PUSH1 0x20 CALLDATASIZE PUSH1 0x3 NOT ADD SLT PUSH2 0x161 JUMPI PUSH1 0x5 SWAP2 PUSH2 0x6F4 PUSH2 0xA7E JUMP JUMPDEST CALLDATALOAD DUP4 MSTORE PUSH1 0x3 PUSH1 0x20 MSTORE DUP3 KECCAK256 ADD DUP1 SLOAD PUSH1 0xFF NOT AND SWAP1 SSTORE DUP1 RETURN JUMPDEST POP SWAP2 SWAP1 CALLVALUE PUSH2 0x181 JUMPI PUSH1 0x80 CALLDATASIZE PUSH1 0x3 NOT ADD SLT PUSH2 0x181 JUMPI PUSH2 0x726 PUSH2 0x974 JUMP JUMPDEST SWAP1 PUSH1 0x24 CALLDATALOAD SWAP1 PUSH1 0x1 PUSH1 0x1 PUSH1 0xA0 SHL SUB SWAP1 DUP2 DUP4 AND DUP1 DUP5 SUB PUSH2 0x245 JUMPI PUSH1 0x44 CALLDATALOAD SWAP3 PUSH1 0x64 CALLDATALOAD SWAP5 CALLER DUP9 MSTORE PUSH1 0x20 SWAP2 DUP10 DUP4 MSTORE PUSH1 0xFF DUP6 DUP11 KECCAK256 SLOAD AND DUP1 ISZERO PUSH2 0x968 JUMPI JUMPDEST PUSH2 0x766 SWAP1 PUSH2 0x98F JUMP JUMPDEST PUSH2 0x76E PUSH2 0xA5B JUMP JUMPDEST DUP1 DUP9 AND SWAP8 DUP5 DUP10 EQ PUSH2 0x937 JUMPI DUP7 ISZERO PUSH2 0x903 JUMPI PUSH2 0x78D PUSH2 0x2710 DUP10 GT ISZERO PUSH2 0x9CC JUMP JUMPDEST PUSH1 0x5 SLOAD DUP9 LT PUSH2 0x8CF JUMPI DUP6 MLOAD SWAP1 DUP5 DUP3 ADD SWAP4 PUSH1 0x1 PUSH1 0x1 PUSH1 0x60 SHL SUB NOT DUP1 SWAP3 PUSH1 0x60 SHL AND DUP6 MSTORE PUSH1 0x60 SHL AND PUSH1 0x34 DUP3 ADD MSTORE DUP7 PUSH1 0x48 DUP3 ADD MSTORE TIMESTAMP PUSH1 0x68 DUP3 ADD MSTORE PUSH1 0x68 DUP2 MSTORE PUSH1 0xA0 DUP2 ADD SWAP3 DUP2 DUP5 LT PUSH8 0xFFFFFFFFFFFFFFFF DUP6 GT OR PUSH2 0x8BC JUMPI SWAP1 DUP9 DUP9 DUP13 SWAP14 SWAP4 DUP7 DUP11 MSTORE DUP4 MLOAD SWAP1 KECCAK256 SWAP13 DUP14 SWAP6 PUSH2 0x7F8 DUP9 PUSH2 0xA0D JUMP JUMPDEST DUP14 DUP9 MSTORE DUP1 DUP12 PUSH1 0xC0 DUP8 ADD SWAP4 DUP13 DUP6 MSTORE PUSH1 0xE0 DUP9 ADD SWAP6 DUP7 MSTORE PUSH2 0x100 DUP9 ADD SWAP7 DUP8 MSTORE PUSH2 0x120 DUP9 ADD SWAP8 TIMESTAMP DUP10 MSTORE PUSH2 0x140 ADD SWAP10 PUSH1 0x1 DUP12 MSTORE DUP2 MSTORE PUSH1 0x3 DUP13 MSTORE KECCAK256 SWAP9 MLOAD AND SWAP1 PUSH1 0x1 PUSH1 0x1 PUSH1 0x60 SHL SUB PUSH1 0xA0 SHL SWAP2 DUP3 DUP11 SLOAD AND OR DUP10 SSTORE PUSH1 0x1 DUP10 ADD SWAP3 MLOAD AND SWAP1 DUP3 SLOAD AND OR SWAP1 SSTORE MLOAD PUSH1 0x2 DUP7 ADD SSTORE MLOAD PUSH1 0x3 DUP6 ADD SSTORE MLOAD SWAP1 DUP4 ADD SSTORE MLOAD ISZERO ISZERO SWAP1 PUSH1 0x5 ADD SWAP1 PUSH2 0x880 SWAP2 SWAP1 PUSH1 0xFF DUP1 NOT DUP4 SLOAD AND SWAP2 ISZERO ISZERO AND OR SWAP1 SSTORE JUMP JUMPDEST DUP3 MLOAD SWAP6 DUP7 MSTORE DUP6 ADD MSTORE DUP4 ADD MSTORE PUSH1 0x60 DUP3 ADD MSTORE PUSH1 0x80 PUSH32 0x7A6F15BAF00AD1E749ACE07CD494C0A2004F12A6889CCA6C1EF493D9DF3C4F8D SWAP2 LOG2 PUSH1 0x1 DUP1 SSTORE DUP1 RETURN JUMPDEST PUSH4 0x4E487B71 PUSH1 0xE0 SHL DUP12 MSTORE PUSH1 0x41 DUP13 MSTORE PUSH1 0x24 DUP12 REVERT JUMPDEST DUP6 MLOAD PUSH3 0x461BCD PUSH1 0xE5 SHL DUP2 MSTORE DUP1 DUP13 ADD DUP6 SWAP1 MSTORE PUSH1 0xE PUSH1 0x24 DUP3 ADD MSTORE PUSH14 0x4C6F7720636F6E666964656E6365 PUSH1 0x90 SHL PUSH1 0x44 DUP3 ADD MSTORE PUSH1 0x64 SWAP1 REVERT JUMPDEST DUP6 MLOAD PUSH3 0x461BCD PUSH1 0xE5 SHL DUP2 MSTORE DUP1 DUP13 ADD DUP6 SWAP1 MSTORE PUSH1 0xE PUSH1 0x24 DUP3 ADD MSTORE PUSH14 0x125B9D985B1A5908185B5BDD5B9D PUSH1 0x92 SHL PUSH1 0x44 DUP3 ADD MSTORE PUSH1 0x64 SWAP1 REVERT JUMPDEST DUP6 MLOAD PUSH3 0x461BCD PUSH1 0xE5 SHL DUP2 MSTORE DUP1 DUP13 ADD DUP6 SWAP1 MSTORE PUSH1 0xB PUSH1 0x24 DUP3 ADD MSTORE PUSH11 0x53616D6520746F6B656E73 PUSH1 0xA8 SHL PUSH1 0x44 DUP3 ADD MSTORE PUSH1 0x64 SWAP1 REVERT JUMPDEST POP DUP9 SLOAD DUP2 AND CALLER EQ PUSH2 0x75D JUMP JUMPDEST PUSH1 0x4 CALLDATALOAD SWAP1 PUSH1 0x1 PUSH1 0x1 PUSH1 0xA0 SHL SUB DUP3 AND DUP3 SUB PUSH2 0x98A JUMPI JUMP JUMPDEST PUSH1 0x0 DUP1 REVERT JUMPDEST ISZERO PUSH2 0x996 JUMPI JUMP JUMPDEST PUSH1 0x40 MLOAD PUSH3 0x461BCD PUSH1 0xE5 SHL DUP2 MSTORE PUSH1 0x20 PUSH1 0x4 DUP3 ADD MSTORE PUSH1 0xE PUSH1 0x24 DUP3 ADD MSTORE PUSH14 0x139BDD08185D5D1A1BDC9A5E9959 PUSH1 0x92 SHL PUSH1 0x44 DUP3 ADD MSTORE PUSH1 0x64 SWAP1 REVERT JUMPDEST ISZERO PUSH2 0x9D3 JUMPI JUMP JUMPDEST PUSH1 0x40 MLOAD PUSH3 0x461BCD PUSH1 0xE5 SHL DUP2 MSTORE PUSH1 0x20 PUSH1 0x4 DUP3 ADD MSTORE PUSH1 0x12 PUSH1 0x24 DUP3 ADD MSTORE PUSH18 0x496E76616C696420636F6E666964656E6365 PUSH1 0x70 SHL PUSH1 0x44 DUP3 ADD MSTORE PUSH1 0x64 SWAP1 REVERT JUMPDEST PUSH1 0xC0 DUP2 ADD SWAP1 DUP2 LT PUSH8 0xFFFFFFFFFFFFFFFF DUP3 GT OR PUSH2 0xA29 JUMPI PUSH1 0x40 MSTORE JUMP JUMPDEST PUSH4 0x4E487B71 PUSH1 0xE0 SHL PUSH1 0x0 MSTORE PUSH1 0x41 PUSH1 0x4 MSTORE PUSH1 0x24 PUSH1 0x0 REVERT JUMPDEST PUSH1 0x80 DUP2 ADD SWAP1 DUP2 LT PUSH8 0xFFFFFFFFFFFFFFFF DUP3 GT OR PUSH2 0xA29 JUMPI PUSH1 0x40 MSTORE JUMP JUMPDEST PUSH1 0x2 PUSH1 0x1 SLOAD EQ PUSH2 0xA6C JUMPI PUSH1 0x2 PUSH1 0x1 SSTORE JUMP JUMPDEST PUSH1 0x40 MLOAD PUSH4 0x3EE5AEB5 PUSH1 0xE0 SHL DUP2 MSTORE PUSH1 0x4 SWAP1 REVERT JUMPDEST PUSH1 0x0 SLOAD PUSH1 0x1 PUSH1 0x1 PUSH1 0xA0 SHL SUB AND CALLER SUB PUSH2 0xA92 JUMPI JUMP JUMPDEST PUSH1 0x40 MLOAD PUSH4 0x118CDAA7 PUSH1 0xE0 SHL DUP2 MSTORE CALLER PUSH1 0x4 DUP3 ADD MSTORE PUSH1 0x24 SWAP1 REVERT INVALID LOG2 PUSH5 0x6970667358 0x22 SLT KECCAK256 0xAC PUSH16 0x35123BAB65051BDE5D3FC72F9A53606C 0xD6 PUSH31 0xF2D77FC0DA80896527C263B064736F6C634300081800330000000000000000 "},"methodIdentifiers":{"CONFIDENCE_DECIMALS()":"de3f2afd","PRICE_DECIMALS()":"f1a640f8","authorizedOracles(address)":"61c992a3","createSwapRecommendation(address,address,uint256,uint256)":"09e8a4d4","getPrice(address)":"41976e09","getSwapRecommendation(bytes32)":"226c6d75","invalidatePriceFeed(address)":"7c6be6fa","invalidateSwapRecommendation(bytes32)":"1a369632","minConfidence()":"d52b7a14","owner()":"8da5cb5b","priceFeeds(address)":"9dcb511a","renounceOwnership()":"715018a6","setAuthorizedOracle(address,bool)":"c7a6de4d","setMinConfidence(uint256)":"5764390c","swapRecommendations(bytes32)":"8c3f45ef","transferOwnership(address)":"f2fde38b","updatePriceFeed(address,uint256)":"2b10f5fd"}}}}}