{"contracts/SwapSageExecutor.sol":{"SwapSageExecutor":{"abi":[{"inputs":[{"internalType":"address","name":"_oracle","type":"address"}],"stateMutability":"nonpayable","type":"constructor"},{"inputs":[{"internalType":"address","name":"owner","type":"address"}],"name":"OwnableInvalidOwner","type":"error"},{"inputs":[{"internalType":"address","name":"account","type":"address"}],"name":"OwnableUnauthorizedAccount","type":"error"},{"inputs":[],"name":"ReentrancyGuardReentrantCall","type":"error"},{"inputs":[{"internalType":"address","name":"token","type":"address"}],"name":"SafeERC20FailedOperation","type":"error"},{"anonymous":false,"inputs":[{"indexed":true,"internalType":"address","name":"executor","type":"address"},{"indexed":false,"internalType":"bool","name":"isActive","type":"bool"}],"name":"ExecutorUpdated","type":"event"},{"anonymous":false,"inputs":[{"indexed":true,"internalType":"address","name":"previousOwner","type":"address"},{"indexed":true,"internalType":"address","name":"newOwner","type":"address"}],"name":"OwnershipTransferred","type":"event"},{"anonymous":false,"inputs":[{"indexed":true,"internalType":"bytes32","name":"routeId","type":"bytes32"},{"indexed":false,"internalType":"address","name":"fromToken","type":"address"},{"indexed":false,"internalType":"address","name":"toToken","type":"address"},{"indexed":false,"internalType":"uint256","name":"expectedOutput","type":"uint256"},{"indexed":false,"internalType":"uint256","name":"confidence","type":"uint256"}],"name":"RouteOptimized","type":"event"},{"anonymous":false,"inputs":[{"indexed":true,"internalType":"bytes32","name":"executionId","type":"bytes32"},{"indexed":true,"internalType":"address","name":"user","type":"address"},{"indexed":false,"internalType":"address","name":"fromToken","type":"address"},{"indexed":false,"internalType":"address","name":"toToken","type":"address"},{"indexed":false,"internalType":"uint256","name":"fromAmount","type":"uint256"},{"indexed":false,"internalType":"uint256","name":"actualAmount","type":"uint256"},{"indexed":false,"internalType":"uint256","name":"gasUsed","type":"uint256"},{"indexed":false,"internalType":"bool","name":"success","type":"bool"}],"name":"SwapExecuted","type":"event"},{"inputs":[],"name":"EXECUTION_FEE","outputs":[{"internalType":"uint256","name":"","type":"uint256"}],"stateMutability":"view","type":"function"},{"inputs":[],"name":"MAX_SLIPPAGE","outputs":[{"internalType":"uint256","name":"","type":"uint256"}],"stateMutability":"view","type":"function"},{"inputs":[],"name":"MIN_CONFIDENCE","outputs":[{"internalType":"uint256","name":"","type":"uint256"}],"stateMutability":"view","type":"function"},{"inputs":[{"internalType":"address","name":"","type":"address"}],"name":"authorizedExecutors","outputs":[{"internalType":"bool","name":"","type":"bool"}],"stateMutability":"view","type":"function"},{"inputs":[{"internalType":"address","name":"fromToken","type":"address"},{"internalType":"address","name":"toToken","type":"address"},{"internalType":"uint256","name":"amount","type":"uint256"},{"internalType":"uint256","name":"minOutput","type":"uint256"},{"internalType":"bytes","name":"routeData","type":"bytes"}],"name":"executeSwap","outputs":[],"stateMutability":"payable","type":"function"},{"inputs":[{"internalType":"bytes32","name":"","type":"bytes32"}],"name":"executions","outputs":[{"internalType":"address","name":"user","type":"address"},{"internalType":"address","name":"fromToken","type":"address"},{"internalType":"address","name":"toToken","type":"address"},{"internalType":"uint256","name":"fromAmount","type":"uint256"},{"internalType":"uint256","name":"toAmount","type":"uint256"},{"internalType":"uint256","name":"actualAmount","type":"uint256"},{"internalType":"uint256","name":"gasUsed","type":"uint256"},{"internalType":"uint256","name":"timestamp","type":"uint256"},{"internalType":"bool","name":"success","type":"bool"},{"internalType":"string","name":"route","type":"string"}],"stateMutability":"view","type":"function"},{"inputs":[{"internalType":"bytes32","name":"executionId","type":"bytes32"}],"name":"getExecution","outputs":[{"components":[{"internalType":"address","name":"user","type":"address"},{"internalType":"address","name":"fromToken","type":"address"},{"internalType":"address","name":"toToken","type":"address"},{"internalType":"uint256","name":"fromAmount","type":"uint256"},{"internalType":"uint256","name":"toAmount","type":"uint256"},{"internalType":"uint256","name":"actualAmount","type":"uint256"},{"internalType":"uint256","name":"gasUsed","type":"uint256"},{"internalType":"uint256","name":"timestamp","type":"uint256"},{"internalType":"bool","name":"success","type":"bool"},{"internalType":"string","name":"route","type":"string"}],"internalType":"struct SwapSageExecutor.SwapExecution","name":"execution","type":"tuple"}],"stateMutability":"view","type":"function"},{"inputs":[{"internalType":"address","name":"fromToken","type":"address"},{"internalType":"address","name":"toToken","type":"address"},{"internalType":"uint256","name":"amount","type":"uint256"}],"name":"getOptimalRoute","outputs":[{"internalType":"bytes","name":"route","type":"bytes"},{"internalType":"uint256","name":"expectedOutput","type":"uint256"},{"internalType":"uint256","name":"confidence","type":"uint256"}],"stateMutability":"view","type":"function"},{"inputs":[],"name":"oracle","outputs":[{"internalType":"contract SwapSageOracle","name":"","type":"address"}],"stateMutability":"view","type":"function"},{"inputs":[],"name":"owner","outputs":[{"internalType":"address","name":"","type":"address"}],"stateMutability":"view","type":"function"},{"inputs":[],"name":"renounceOwnership","outputs":[],"stateMutability":"nonpayable","type":"function"},{"inputs":[{"internalType":"address","name":"token","type":"address"},{"internalType":"uint256","name":"amount","type":"uint256"}],"name":"rescueTokens","outputs":[],"stateMutability":"nonpayable","type":"function"},{"inputs":[{"internalType":"address","name":"executor","type":"address"},{"internalType":"bool","name":"isActive","type":"bool"}],"name":"setAuthorizedExecutor","outputs":[],"stateMutability":"nonpayable","type":"function"},{"inputs":[{"internalType":"address","name":"newOwner","type":"address"}],"name":"transferOwnership","outputs":[],"stateMutability":"nonpayable","type":"function"},{"inputs":[{"internalType":"address","name":"newOracle","type":"address"}],"name":"updateOracle","outputs":[],"stateMutability":"nonpayable","type":"function"},{"inputs":[],"name":"withdrawFees","outputs":[],"stateMutability":"nonpayable","type":"function"},{"stateMutability":"payable","type":"receive"}],"evm":{"bytecode":{"linkReferences":{},"object":"6080346100ca57601f61149b38819003918201601f19168301916001600160401b038311848410176100cf578084926020946040528339810103126100ca57516001600160a01b0390818116908190036100ca5733156100b15760005460018060a01b0319903382821617600055604051933391167f8be0079c531659141344cd1fd0a4f28419497f9722a3daafe3b4186f6b6457e0600080a36001805560025416176002556113b590816100e68239f35b604051631e4fbdf760e01b815260006004820152602490fd5b600080fd5b634e487b7160e01b600052604160045260246000fdfe608080604052600436101561001d575b50361561001b57600080fd5b005b60003560e01c9081630fe11ab314610e50575080631cb44dfc14610dca578063232174c01461066857806341f937571461064b5780634675e8eb1461062e578063476343ee1461057457806357376198146104da578063679d86a71461049b578063715018a6146104425780637cae716e146103ba5780637dc0d1d0146103915780638da5cb5b1461036857806396150e08146102ae578063bdca8ccc14610185578063f2fde38b146100fc5763f9759518146100da573861000f565b346100f75760003660031901126100f75760206040516101f48152f35b600080fd5b346100f75760203660031901126100f757610115611014565b61011d6112ab565b6001600160a01b0390811690811561016c57600054826001600160601b0360a01b821617600055167f8be0079c531659141344cd1fd0a4f28419497f9722a3daafe3b4186f6b6457e0600080a3005b604051631e4fbdf760e01b815260006004820152602490fd5b346100f7576060806003193601126100f75761019f611014565b906101a861102a565b6001600160a01b0392831692908116906044359060249084906101cd8786141561117a565b6101d88415156111b4565b60025416604051928380926341976e0960e01b82528960048301525afa80156102a2576305f5e100916102209160009160009161026d575b5061021a90611215565b83611258565b04916040519460208601526040850152828401528060808401526080835261024783611097565b61025b604051938385948552840190610fd4565b90602083015261213460408301520390f35b61021a92506102929150873d891161029b575b61028a81836110b3565b8101906111f1565b91929050610210565b503d610280565b6040513d6000823e3d90fd5b346100f75760203660031901126100f7576004356000526003602052604060002060018060a01b0361036481835416928260018201541692600282015416936003820154916004810154600582015460068301549060078401549261031d600960ff60088801541696016110d5565b966040519a8b9a610140988c5260208c015260408b015260608a0152608089015260a088015260c087015260e0860152151561010085015280610120850152830190610fd4565b0390f35b346100f75760003660031901126100f7576000546040516001600160a01b039091168152602090f35b346100f75760003660031901126100f7576002546040516001600160a01b039091168152602090f35b346100f75760403660031901126100f7576103d3611014565b60243590811515908183036100f7577f9fdbc2d48b8a0db2f62663bf9312ad02f5b1f6414ad600b55a247d09aeec3ea2916104396020926104126112ab565b60018060a01b031694856000526004845260406000209060ff801983541691151516179055565b604051908152a2005b346100f75760003660031901126100f75761045b6112ab565b600080546001600160a01b0319811682556001600160a01b03167f8be0079c531659141344cd1fd0a4f28419497f9722a3daafe3b4186f6b6457e08280a3005b346100f75760203660031901126100f7576001600160a01b036104bc611014565b166000526004602052602060ff604060002054166040519015158152f35b346100f75760403660031901126100f7576104f3611014565b602435906104ff6112ab565b6001600160a01b03908116806105655750600080809381938254165af161052461126b565b501561052c57005b60405162461bcd60e51b8152602060048201526011602482015270115512081c995cd8dd594819985a5b1959607a1b6044820152606490fd5b61001b929160005416906112d7565b346100f75760003660031901126100f75761058d6112ab565b4780156105f35760008080809360018060a01b038254165af16105ae61126b565b50156105b657005b60405162461bcd60e51b8152602060048201526015602482015274119959481dda5d1a191c985dd85b0819985a5b1959605a1b6044820152606490fd5b60405162461bcd60e51b81526020600482015260136024820152724e6f206665657320746f20776974686472617760681b6044820152606490fd5b346100f75760003660031901126100f75760206040516103e88152f35b346100f75760003660031901126100f7576020604051611b588152f35b60a03660031901126100f75761067c611014565b61068461102a565b67ffffffffffffffff608435116100f7573660236084350112156100f757608435600401359067ffffffffffffffff82116100f757366024836084350101116100f757600260015414610db85760026001556106ee6001600160a01b03848116908316141561117a565b6106fb60443515156111b4565b60643515610d7e576040513360601b60208201526001600160601b0319808560601b1660348301528260601b166048820152604435605c82015242607c820152607c815261074881611097565b602081519101209182600052600360205260018060a01b0360406000205416610d39576002546040516341976e0960e01b81526001600160a01b038681166004830152909160609183916024918391165afa80156102a2576305f5e100916107c791600091600091610d12575b506107bf90611215565b604435611258565b04906064358210610ccd576103e8806044350290604435820414604435151715610be85761271060443591046044350311610be8576001600160a01b038516610c3a576044353403610bfe576020905b60843590810103126100f7576024608435013590606382029180830460631490151715610be8576064356064830410610baf576001600160a01b038316610b9357600080808060648604335af161086c61126b565b5015610b58575b5a604051916108818361107a565b33835260018060a01b038716602084015260018060a01b0385166040840152604435606084015260808301526064830460a083015260c08201524260e0820152600161010082015260405180604081011067ffffffffffffffff604083011117610b425760408101604052601281527141495f4f5054494d495a45445f524f55544560701b60208201526101208201528360005260036020526101206009604060002060018060a01b038451166001600160601b0360a01b90818354161782556001820160018060a01b0360208701511682825416179055600282019060018060a01b0360408701511690825416179055606084015160038201556080840151600482015560a0840151600582015560c0840151600682015560e084015160078201556109c46101008501511515600883019060ff801983541691151516179055565b0191015180519067ffffffffffffffff8211610b42576109e48354611040565b601f8111610afa575b50602090601f8311600114610a8e5760649493929160009183610a83575b50508160011b916000199060031b1c19161790555b5a926040519560018060a01b0316865260018060a01b0316602086015260443560408601520460608401526080830152600160a08301527f5e16fdda100e04b2c1aff0d7b552bec6047ba84a000d899b7487fb61acb3bf6960c03393a360018055005b015190508880610a0b565b90601f198316918460005260206000209260005b818110610ae2575091600193918560649897969410610ac9575b505050811b019055610a20565b015160001960f88460031b161c19169055888080610abc565b92936020600181928786015181550195019301610aa2565b836000526020600020601f840160051c81019160208510610b38575b601f0160051c01905b818110610b2c57506109ed565b60008155600101610b1f565b9091508190610b16565b634e487b7160e01b600052604160045260246000fd5b60405162461bcd60e51b8152602060048201526013602482015272115512081d1c985b9cd9995c8819985a5b1959606a1b6044820152606490fd5b610baa60648304336001600160a01b0386166112d7565b610873565b60405162461bcd60e51b81526020600482015260116024820152700a6d8d2e0e0c2ceca40e8dede40d0d2ced607b1b6044820152606490fd5b634e487b7160e01b600052601160045260246000fd5b60405162461bcd60e51b8152602060048201526014602482015273125b98dbdc9c9958dd0811551208185b5bdd5b9d60621b6044820152606490fd5b34610c8957602090610c846040516323b872dd60e01b84820152336024820152306044820152604435606482015260648152610c7581611097565b6001600160a01b038816611323565b610817565b606460405162461bcd60e51b815260206004820152602060248201527f455448206e6f7420616363657074656420666f7220746f6b656e2073776170736044820152fd5b60405162461bcd60e51b815260206004820152601c60248201527f496e73756666696369656e74206578706563746564206f7574707574000000006044820152606490fd5b6107bf9250610d30915060603d60601161029b5761028a81836110b3565b919290506107b5565b60405162461bcd60e51b815260206004820152601860248201527f457865637574696f6e20616c72656164792065786973747300000000000000006044820152606490fd5b60405162461bcd60e51b8152602060048201526012602482015271125b9d985b1a59081b5a5b881bdd5d1c1d5d60721b6044820152606490fd5b604051633ee5aeb560e01b8152600490fd5b346100f75760203660031901126100f757610de3611014565b610deb6112ab565b6001600160a01b03168015610e12576001600160601b0360a01b6002541617600255600080f35b60405162461bcd60e51b8152602060048201526016602482015275496e76616c6964206f7261636c65206164647265737360501b6044820152606490fd5b346100f75760203660031901126100f75761012081610e7060609361107a565b60008152600060208201526000604082015260008382015260006080820152600060a0820152600060c0820152600060e08201526000610100820152015260043560005260036020526101206040600020610f41600960405192610ed38461107a565b80546001600160a01b03908116855260018201548116602086015260028201541660408501526003810154606085015260048101546080850152600581015460a0850152600681015460c0850152600781015460e0850152600881015460ff161515610100850152016110d5565b828201526103646040519283926020845260018060a01b03815116602085015260018060a01b03602082015116604085015260018060a01b03604082015116606085015260608101516080850152608081015160a085015260a081015160c085015260c081015160e085015260e08101516101008501526101008101511515828501520151610140808401526101608301905b919082519283825260005b848110611000575050826000602080949584010152601f8019910116010190565b602081830181015184830182015201610fdf565b600435906001600160a01b03821682036100f757565b602435906001600160a01b03821682036100f757565b90600182811c92168015611070575b602083101461105a57565b634e487b7160e01b600052602260045260246000fd5b91607f169161104f565b610140810190811067ffffffffffffffff821117610b4257604052565b60a0810190811067ffffffffffffffff821117610b4257604052565b90601f8019910116810190811067ffffffffffffffff821117610b4257604052565b906040519182600082546110e881611040565b908184526020946001916001811690816000146111585750600114611119575b505050611117925003836110b3565b565b600090815285812095935091905b8183106111405750506111179350820101388080611108565b85548884018501529485019487945091830191611127565b9250505061111794925060ff191682840152151560051b820101388080611108565b1561118157565b60405162461bcd60e51b815260206004820152600b60248201526a53616d6520746f6b656e7360a81b6044820152606490fd5b156111bb57565b60405162461bcd60e51b815260206004820152600e60248201526d125b9d985b1a5908185b5bdd5b9d60921b6044820152606490fd5b908160609103126100f7578051916040602083015192015180151581036100f75790565b1561121c57565b60405162461bcd60e51b8152602060048201526014602482015273496e76616c6964206f7261636c6520707269636560601b6044820152606490fd5b81810292918115918404141715610be857565b3d156112a6573d9067ffffffffffffffff8211610b42576040519161129a601f8201601f1916602001846110b3565b82523d6000602084013e565b606090565b6000546001600160a01b031633036112bf57565b60405163118cdaa760e01b8152336004820152602490fd5b60405163a9059cbb60e01b60208201526001600160a01b039092166024830152604480830193909352918152608081019167ffffffffffffffff831182841017610b4257611117926040525b906000602091828151910182855af1156102a2576000513d61137657506001600160a01b0381163b155b6113545750565b604051635274afe760e01b81526001600160a01b039091166004820152602490fd5b6001141561134d56fea26469706673582212209e86d76a096dc6aeb09148820b75dbc8eac4b661d0d377673cef9545139a1e7a64736f6c63430008180033","opcodes":"PUSH1 0x80 CALLVALUE PUSH2 0xCA JUMPI PUSH1 0x1F PUSH2 0x149B CODESIZE DUP2 SWAP1 SUB SWAP2 DUP3 ADD PUSH1 0x1F NOT AND DUP4 ADD SWAP2 PUSH1 0x1 PUSH1 0x1 PUSH1 0x40 SHL SUB DUP4 GT DUP5 DUP5 LT OR PUSH2 0xCF JUMPI DUP1 DUP5 SWAP3 PUSH1 0x20 SWAP5 PUSH1 0x40 MSTORE DUP4 CODECOPY DUP2 ADD SUB SLT PUSH2 0xCA JUMPI MLOAD PUSH1 0x1 PUSH1 0x1 PUSH1 0xA0 SHL SUB SWAP1 DUP2 DUP2 AND SWAP1 DUP2 SWAP1 SUB PUSH2 0xCA JUMPI CALLER ISZERO PUSH2 0xB1 JUMPI PUSH1 0x0 SLOAD PUSH1 0x1 DUP1 PUSH1 0xA0 SHL SUB NOT SWAP1 CALLER DUP3 DUP3 AND OR PUSH1 0x0 SSTORE PUSH1 0x40 MLOAD SWAP4 CALLER SWAP2 AND PUSH32 0x8BE0079C531659141344CD1FD0A4F28419497F9722A3DAAFE3B4186F6B6457E0 PUSH1 0x0 DUP1 LOG3 PUSH1 0x1 DUP1 SSTORE PUSH1 0x2 SLOAD AND OR PUSH1 0x2 SSTORE PUSH2 0x13B5 SWAP1 DUP2 PUSH2 0xE6 DUP3 CODECOPY RETURN JUMPDEST PUSH1 0x40 MLOAD PUSH4 0x1E4FBDF7 PUSH1 0xE0 SHL DUP2 MSTORE PUSH1 0x0 PUSH1 0x4 DUP3 ADD MSTORE PUSH1 0x24 SWAP1 REVERT JUMPDEST PUSH1 0x0 DUP1 REVERT JUMPDEST PUSH4 0x4E487B71 PUSH1 0xE0 SHL PUSH1 0x0 MSTORE PUSH1 0x41 PUSH1 0x4 MSTORE PUSH1 0x24 PUSH1 0x0 REVERT INVALID PUSH1 0x80 DUP1 PUSH1 0x40 MSTORE PUSH1 0x4 CALLDATASIZE LT ISZERO PUSH2 0x1D JUMPI JUMPDEST POP CALLDATASIZE ISZERO PUSH2 0x1B JUMPI PUSH1 0x0 DUP1 REVERT JUMPDEST STOP JUMPDEST PUSH1 0x0 CALLDATALOAD PUSH1 0xE0 SHR SWAP1 DUP2 PUSH4 0xFE11AB3 EQ PUSH2 0xE50 JUMPI POP DUP1 PUSH4 0x1CB44DFC EQ PUSH2 0xDCA JUMPI DUP1 PUSH4 0x232174C0 EQ PUSH2 0x668 JUMPI DUP1 PUSH4 0x41F93757 EQ PUSH2 0x64B JUMPI DUP1 PUSH4 0x4675E8EB EQ PUSH2 0x62E JUMPI DUP1 PUSH4 0x476343EE EQ PUSH2 0x574 JUMPI DUP1 PUSH4 0x57376198 EQ PUSH2 0x4DA JUMPI DUP1 PUSH4 0x679D86A7 EQ PUSH2 0x49B JUMPI DUP1 PUSH4 0x715018A6 EQ PUSH2 0x442 JUMPI DUP1 PUSH4 0x7CAE716E EQ PUSH2 0x3BA JUMPI DUP1 PUSH4 0x7DC0D1D0 EQ PUSH2 0x391 JUMPI DUP1 PUSH4 0x8DA5CB5B EQ PUSH2 0x368 JUMPI DUP1 PUSH4 0x96150E08 EQ PUSH2 0x2AE JUMPI DUP1 PUSH4 0xBDCA8CCC EQ PUSH2 0x185 JUMPI DUP1 PUSH4 0xF2FDE38B EQ PUSH2 0xFC JUMPI PUSH4 0xF9759518 EQ PUSH2 0xDA JUMPI CODESIZE PUSH2 0xF JUMP JUMPDEST CALLVALUE PUSH2 0xF7 JUMPI PUSH1 0x0 CALLDATASIZE PUSH1 0x3 NOT ADD SLT PUSH2 0xF7 JUMPI PUSH1 0x20 PUSH1 0x40 MLOAD PUSH2 0x1F4 DUP2 MSTORE RETURN JUMPDEST PUSH1 0x0 DUP1 REVERT JUMPDEST CALLVALUE PUSH2 0xF7 JUMPI PUSH1 0x20 CALLDATASIZE PUSH1 0x3 NOT ADD SLT PUSH2 0xF7 JUMPI PUSH2 0x115 PUSH2 0x1014 JUMP JUMPDEST PUSH2 0x11D PUSH2 0x12AB JUMP JUMPDEST PUSH1 0x1 PUSH1 0x1 PUSH1 0xA0 SHL SUB SWAP1 DUP2 AND SWAP1 DUP2 ISZERO PUSH2 0x16C JUMPI PUSH1 0x0 SLOAD DUP3 PUSH1 0x1 PUSH1 0x1 PUSH1 0x60 SHL SUB PUSH1 0xA0 SHL DUP3 AND OR PUSH1 0x0 SSTORE AND PUSH32 0x8BE0079C531659141344CD1FD0A4F28419497F9722A3DAAFE3B4186F6B6457E0 PUSH1 0x0 DUP1 LOG3 STOP JUMPDEST PUSH1 0x40 MLOAD PUSH4 0x1E4FBDF7 PUSH1 0xE0 SHL DUP2 MSTORE PUSH1 0x0 PUSH1 0x4 DUP3 ADD MSTORE PUSH1 0x24 SWAP1 REVERT JUMPDEST CALLVALUE PUSH2 0xF7 JUMPI PUSH1 0x60 DUP1 PUSH1 0x3 NOT CALLDATASIZE ADD SLT PUSH2 0xF7 JUMPI PUSH2 0x19F PUSH2 0x1014 JUMP JUMPDEST SWAP1 PUSH2 0x1A8 PUSH2 0x102A JUMP JUMPDEST PUSH1 0x1 PUSH1 0x1 PUSH1 0xA0 SHL SUB SWAP3 DUP4 AND SWAP3 SWAP1 DUP2 AND SWAP1 PUSH1 0x44 CALLDATALOAD SWAP1 PUSH1 0x24 SWAP1 DUP5 SWAP1 PUSH2 0x1CD DUP8 DUP7 EQ ISZERO PUSH2 0x117A JUMP JUMPDEST PUSH2 0x1D8 DUP5 ISZERO ISZERO PUSH2 0x11B4 JUMP JUMPDEST PUSH1 0x2 SLOAD AND PUSH1 0x40 MLOAD SWAP3 DUP4 DUP1 SWAP3 PUSH4 0x41976E09 PUSH1 0xE0 SHL DUP3 MSTORE DUP10 PUSH1 0x4 DUP4 ADD MSTORE GAS STATICCALL DUP1 ISZERO PUSH2 0x2A2 JUMPI PUSH4 0x5F5E100 SWAP2 PUSH2 0x220 SWAP2 PUSH1 0x0 SWAP2 PUSH1 0x0 SWAP2 PUSH2 0x26D JUMPI JUMPDEST POP PUSH2 0x21A SWAP1 PUSH2 0x1215 JUMP JUMPDEST DUP4 PUSH2 0x1258 JUMP JUMPDEST DIV SWAP2 PUSH1 0x40 MLOAD SWAP5 PUSH1 0x20 DUP7 ADD MSTORE PUSH1 0x40 DUP6 ADD MSTORE DUP3 DUP5 ADD MSTORE DUP1 PUSH1 0x80 DUP5 ADD MSTORE PUSH1 0x80 DUP4 MSTORE PUSH2 0x247 DUP4 PUSH2 0x1097 JUMP JUMPDEST PUSH2 0x25B PUSH1 0x40 MLOAD SWAP4 DUP4 DUP6 SWAP5 DUP6 MSTORE DUP5 ADD SWAP1 PUSH2 0xFD4 JUMP JUMPDEST SWAP1 PUSH1 0x20 DUP4 ADD MSTORE PUSH2 0x2134 PUSH1 0x40 DUP4 ADD MSTORE SUB SWAP1 RETURN JUMPDEST PUSH2 0x21A SWAP3 POP PUSH2 0x292 SWAP2 POP DUP8 RETURNDATASIZE DUP10 GT PUSH2 0x29B JUMPI JUMPDEST PUSH2 0x28A DUP2 DUP4 PUSH2 0x10B3 JUMP JUMPDEST DUP2 ADD SWAP1 PUSH2 0x11F1 JUMP JUMPDEST SWAP2 SWAP3 SWAP1 POP PUSH2 0x210 JUMP JUMPDEST POP RETURNDATASIZE PUSH2 0x280 JUMP JUMPDEST PUSH1 0x40 MLOAD RETURNDATASIZE PUSH1 0x0 DUP3 RETURNDATACOPY RETURNDATASIZE SWAP1 REVERT JUMPDEST CALLVALUE PUSH2 0xF7 JUMPI PUSH1 0x20 CALLDATASIZE PUSH1 0x3 NOT ADD SLT PUSH2 0xF7 JUMPI PUSH1 0x4 CALLDATALOAD PUSH1 0x0 MSTORE PUSH1 0x3 PUSH1 0x20 MSTORE PUSH1 0x40 PUSH1 0x0 KECCAK256 PUSH1 0x1 DUP1 PUSH1 0xA0 SHL SUB PUSH2 0x364 DUP2 DUP4 SLOAD AND SWAP3 DUP3 PUSH1 0x1 DUP3 ADD SLOAD AND SWAP3 PUSH1 0x2 DUP3 ADD SLOAD AND SWAP4 PUSH1 0x3 DUP3 ADD SLOAD SWAP2 PUSH1 0x4 DUP2 ADD SLOAD PUSH1 0x5 DUP3 ADD SLOAD PUSH1 0x6 DUP4 ADD SLOAD SWAP1 PUSH1 0x7 DUP5 ADD SLOAD SWAP3 PUSH2 0x31D PUSH1 0x9 PUSH1 0xFF PUSH1 0x8 DUP9 ADD SLOAD AND SWAP7 ADD PUSH2 0x10D5 JUMP JUMPDEST SWAP7 PUSH1 0x40 MLOAD SWAP11 DUP12 SWAP11 PUSH2 0x140 SWAP9 DUP13 MSTORE PUSH1 0x20 DUP13 ADD MSTORE PUSH1 0x40 DUP12 ADD MSTORE PUSH1 0x60 DUP11 ADD MSTORE PUSH1 0x80 DUP10 ADD MSTORE PUSH1 0xA0 DUP9 ADD MSTORE PUSH1 0xC0 DUP8 ADD MSTORE PUSH1 0xE0 DUP7 ADD MSTORE ISZERO ISZERO PUSH2 0x100 DUP6 ADD MSTORE DUP1 PUSH2 0x120 DUP6 ADD MSTORE DUP4 ADD SWAP1 PUSH2 0xFD4 JUMP JUMPDEST SUB SWAP1 RETURN JUMPDEST CALLVALUE PUSH2 0xF7 JUMPI PUSH1 0x0 CALLDATASIZE PUSH1 0x3 NOT ADD SLT PUSH2 0xF7 JUMPI PUSH1 0x0 SLOAD PUSH1 0x40 MLOAD PUSH1 0x1 PUSH1 0x1 PUSH1 0xA0 SHL SUB SWAP1 SWAP2 AND DUP2 MSTORE PUSH1 0x20 SWAP1 RETURN JUMPDEST CALLVALUE PUSH2 0xF7 JUMPI PUSH1 0x0 CALLDATASIZE PUSH1 0x3 NOT ADD SLT PUSH2 0xF7 JUMPI PUSH1 0x2 SLOAD PUSH1 0x40 MLOAD PUSH1 0x1 PUSH1 0x1 PUSH1 0xA0 SHL SUB SWAP1 SWAP2 AND DUP2 MSTORE PUSH1 0x20 SWAP1 RETURN JUMPDEST CALLVALUE PUSH2 0xF7 JUMPI PUSH1 0x40 CALLDATASIZE PUSH1 0x3 NOT ADD SLT PUSH2 0xF7 JUMPI PUSH2 0x3D3 PUSH2 0x1014 JUMP JUMPDEST PUSH1 0x24 CALLDATALOAD SWAP1 DUP2 ISZERO ISZERO SWAP1 DUP2 DUP4 SUB PUSH2 0xF7 JUMPI PUSH32 0x9FDBC2D48B8A0DB2F62663BF9312AD02F5B1F6414AD600B55A247D09AEEC3EA2 SWAP2 PUSH2 0x439 PUSH1 0x20 SWAP3 PUSH2 0x412 PUSH2 0x12AB JUMP JUMPDEST PUSH1 0x1 DUP1 PUSH1 0xA0 SHL SUB AND SWAP5 DUP6 PUSH1 0x0 MSTORE PUSH1 0x4 DUP5 MSTORE PUSH1 0x40 PUSH1 0x0 KECCAK256 SWAP1 PUSH1 0xFF DUP1 NOT DUP4 SLOAD AND SWAP2 ISZERO ISZERO AND OR SWAP1 SSTORE JUMP JUMPDEST PUSH1 0x40 MLOAD SWAP1 DUP2 MSTORE LOG2 STOP JUMPDEST CALLVALUE PUSH2 0xF7 JUMPI PUSH1 0x0 CALLDATASIZE PUSH1 0x3 NOT ADD SLT PUSH2 0xF7 JUMPI PUSH2 0x45B PUSH2 0x12AB JUMP JUMPDEST PUSH1 0x0 DUP1 SLOAD PUSH1 0x1 PUSH1 0x1 PUSH1 0xA0 SHL SUB NOT DUP2 AND DUP3 SSTORE PUSH1 0x1 PUSH1 0x1 PUSH1 0xA0 SHL SUB AND PUSH32 0x8BE0079C531659141344CD1FD0A4F28419497F9722A3DAAFE3B4186F6B6457E0 DUP3 DUP1 LOG3 STOP JUMPDEST CALLVALUE PUSH2 0xF7 JUMPI PUSH1 0x20 CALLDATASIZE PUSH1 0x3 NOT ADD SLT PUSH2 0xF7 JUMPI PUSH1 0x1 PUSH1 0x1 PUSH1 0xA0 SHL SUB PUSH2 0x4BC PUSH2 0x1014 JUMP JUMPDEST AND PUSH1 0x0 MSTORE PUSH1 0x4 PUSH1 0x20 MSTORE PUSH1 0x20 PUSH1 0xFF PUSH1 0x40 PUSH1 0x0 KECCAK256 SLOAD AND PUSH1 0x40 MLOAD SWAP1 ISZERO ISZERO DUP2 MSTORE RETURN JUMPDEST CALLVALUE PUSH2 0xF7 JUMPI PUSH1 0x40 CALLDATASIZE PUSH1 0x3 NOT ADD SLT PUSH2 0xF7 JUMPI PUSH2 0x4F3 PUSH2 0x1014 JUMP JUMPDEST PUSH1 0x24 CALLDATALOAD SWAP1 PUSH2 0x4FF PUSH2 0x12AB JUMP JUMPDEST PUSH1 0x1 PUSH1 0x1 PUSH1 0xA0 SHL SUB SWAP1 DUP2 AND DUP1 PUSH2 0x565 JUMPI POP PUSH1 0x0 DUP1 DUP1 SWAP4 DUP2 SWAP4 DUP3 SLOAD AND GAS CALL PUSH2 0x524 PUSH2 0x126B JUMP JUMPDEST POP ISZERO PUSH2 0x52C JUMPI STOP JUMPDEST PUSH1 0x40 MLOAD PUSH3 0x461BCD PUSH1 0xE5 SHL DUP2 MSTORE PUSH1 0x20 PUSH1 0x4 DUP3 ADD MSTORE PUSH1 0x11 PUSH1 0x24 DUP3 ADD MSTORE PUSH17 0x115512081C995CD8DD594819985A5B1959 PUSH1 0x7A SHL PUSH1 0x44 DUP3 ADD MSTORE PUSH1 0x64 SWAP1 REVERT JUMPDEST PUSH2 0x1B SWAP3 SWAP2 PUSH1 0x0 SLOAD AND SWAP1 PUSH2 0x12D7 JUMP JUMPDEST CALLVALUE PUSH2 0xF7 JUMPI PUSH1 0x0 CALLDATASIZE PUSH1 0x3 NOT ADD SLT PUSH2 0xF7 JUMPI PUSH2 0x58D PUSH2 0x12AB JUMP JUMPDEST SELFBALANCE DUP1 ISZERO PUSH2 0x5F3 JUMPI PUSH1 0x0 DUP1 DUP1 DUP1 SWAP4 PUSH1 0x1 DUP1 PUSH1 0xA0 SHL SUB DUP3 SLOAD AND GAS CALL PUSH2 0x5AE PUSH2 0x126B JUMP JUMPDEST POP ISZERO PUSH2 0x5B6 JUMPI STOP JUMPDEST PUSH1 0x40 MLOAD PUSH3 0x461BCD PUSH1 0xE5 SHL DUP2 MSTORE PUSH1 0x20 PUSH1 0x4 DUP3 ADD MSTORE PUSH1 0x15 PUSH1 0x24 DUP3 ADD MSTORE PUSH21 0x119959481DDA5D1A191C985DD85B0819985A5B1959 PUSH1 0x5A SHL PUSH1 0x44 DUP3 ADD MSTORE PUSH1 0x64 SWAP1 REVERT JUMPDEST PUSH1 0x40 MLOAD PUSH3 0x461BCD PUSH1 0xE5 SHL DUP2 MSTORE PUSH1 0x20 PUSH1 0x4 DUP3 ADD MSTORE PUSH1 0x13 PUSH1 0x24 DUP3 ADD MSTORE PUSH19 0x4E6F206665657320746F207769746864726177 PUSH1 0x68 SHL PUSH1 0x44 DUP3 ADD MSTORE PUSH1 0x64 SWAP1 REVERT JUMPDEST CALLVALUE PUSH2 0xF7 JUMPI PUSH1 0x0 CALLDATASIZE PUSH1 0x3 NOT ADD SLT PUSH2 0xF7 JUMPI PUSH1 0x20 PUSH1 0x40 MLOAD PUSH2 0x3E8 DUP2 MSTORE RETURN JUMPDEST CALLVALUE PUSH2 0xF7 JUMPI PUSH1 0x0 CALLDATASIZE PUSH1 0x3 NOT ADD SLT PUSH2 0xF7 JUMPI PUSH1 0x20 PUSH1 0x40 MLOAD PUSH2 0x1B58 DUP2 MSTORE RETURN JUMPDEST PUSH1 0xA0 CALLDATASIZE PUSH1 0x3 NOT ADD SLT PUSH2 0xF7 JUMPI PUSH2 0x67C PUSH2 0x1014 JUMP JUMPDEST PUSH2 0x684 PUSH2 0x102A JUMP JUMPDEST PUSH8 0xFFFFFFFFFFFFFFFF PUSH1 0x84 CALLDATALOAD GT PUSH2 0xF7 JUMPI CALLDATASIZE PUSH1 0x23 PUSH1 0x84 CALLDATALOAD ADD SLT ISZERO PUSH2 0xF7 JUMPI PUSH1 0x84 CALLDATALOAD PUSH1 0x4 ADD CALLDATALOAD SWAP1 PUSH8 0xFFFFFFFFFFFFFFFF DUP3 GT PUSH2 0xF7 JUMPI CALLDATASIZE PUSH1 0x24 DUP4 PUSH1 0x84 CALLDATALOAD ADD ADD GT PUSH2 0xF7 JUMPI PUSH1 0x2 PUSH1 0x1 SLOAD EQ PUSH2 0xDB8 JUMPI PUSH1 0x2 PUSH1 0x1 SSTORE PUSH2 0x6EE PUSH1 0x1 PUSH1 0x1 PUSH1 0xA0 SHL SUB DUP5 DUP2 AND SWAP1 DUP4 AND EQ ISZERO PUSH2 0x117A JUMP JUMPDEST PUSH2 0x6FB PUSH1 0x44 CALLDATALOAD ISZERO ISZERO PUSH2 0x11B4 JUMP JUMPDEST PUSH1 0x64 CALLDATALOAD ISZERO PUSH2 0xD7E JUMPI PUSH1 0x40 MLOAD CALLER PUSH1 0x60 SHL PUSH1 0x20 DUP3 ADD MSTORE PUSH1 0x1 PUSH1 0x1 PUSH1 0x60 SHL SUB NOT DUP1 DUP6 PUSH1 0x60 SHL AND PUSH1 0x34 DUP4 ADD MSTORE DUP3 PUSH1 0x60 SHL AND PUSH1 0x48 DUP3 ADD MSTORE PUSH1 0x44 CALLDATALOAD PUSH1 0x5C DUP3 ADD MSTORE TIMESTAMP PUSH1 0x7C DUP3 ADD MSTORE PUSH1 0x7C DUP2 MSTORE PUSH2 0x748 DUP2 PUSH2 0x1097 JUMP JUMPDEST PUSH1 0x20 DUP2 MLOAD SWAP2 ADD KECCAK256 SWAP2 DUP3 PUSH1 0x0 MSTORE PUSH1 0x3 PUSH1 0x20 MSTORE PUSH1 0x1 DUP1 PUSH1 0xA0 SHL SUB PUSH1 0x40 PUSH1 0x0 KECCAK256 SLOAD AND PUSH2 0xD39 JUMPI PUSH1 0x2 SLOAD PUSH1 0x40 MLOAD PUSH4 0x41976E09 PUSH1 0xE0 SHL DUP2 MSTORE PUSH1 0x1 PUSH1 0x1 PUSH1 0xA0 SHL SUB DUP7 DUP2 AND PUSH1 0x4 DUP4 ADD MSTORE SWAP1 SWAP2 PUSH1 0x60 SWAP2 DUP4 SWAP2 PUSH1 0x24 SWAP2 DUP4 SWAP2 AND GAS STATICCALL DUP1 ISZERO PUSH2 0x2A2 JUMPI PUSH4 0x5F5E100 SWAP2 PUSH2 0x7C7 SWAP2 PUSH1 0x0 SWAP2 PUSH1 0x0 SWAP2 PUSH2 0xD12 JUMPI JUMPDEST POP PUSH2 0x7BF SWAP1 PUSH2 0x1215 JUMP JUMPDEST PUSH1 0x44 CALLDATALOAD PUSH2 0x1258 JUMP JUMPDEST DIV SWAP1 PUSH1 0x64 CALLDATALOAD DUP3 LT PUSH2 0xCCD JUMPI PUSH2 0x3E8 DUP1 PUSH1 0x44 CALLDATALOAD MUL SWAP1 PUSH1 0x44 CALLDATALOAD DUP3 DIV EQ PUSH1 0x44 CALLDATALOAD ISZERO OR ISZERO PUSH2 0xBE8 JUMPI PUSH2 0x2710 PUSH1 0x44 CALLDATALOAD SWAP2 DIV PUSH1 0x44 CALLDATALOAD SUB GT PUSH2 0xBE8 JUMPI PUSH1 0x1 PUSH1 0x1 PUSH1 0xA0 SHL SUB DUP6 AND PUSH2 0xC3A JUMPI PUSH1 0x44 CALLDATALOAD CALLVALUE SUB PUSH2 0xBFE JUMPI PUSH1 0x20 SWAP1 JUMPDEST PUSH1 0x84 CALLDATALOAD SWAP1 DUP2 ADD SUB SLT PUSH2 0xF7 JUMPI PUSH1 0x24 PUSH1 0x84 CALLDATALOAD ADD CALLDATALOAD SWAP1 PUSH1 0x63 DUP3 MUL SWAP2 DUP1 DUP4 DIV PUSH1 0x63 EQ SWAP1 ISZERO OR ISZERO PUSH2 0xBE8 JUMPI PUSH1 0x64 CALLDATALOAD PUSH1 0x64 DUP4 DIV LT PUSH2 0xBAF JUMPI PUSH1 0x1 PUSH1 0x1 PUSH1 0xA0 SHL SUB DUP4 AND PUSH2 0xB93 JUMPI PUSH1 0x0 DUP1 DUP1 DUP1 PUSH1 0x64 DUP7 DIV CALLER GAS CALL PUSH2 0x86C PUSH2 0x126B JUMP JUMPDEST POP ISZERO PUSH2 0xB58 JUMPI JUMPDEST GAS PUSH1 0x40 MLOAD SWAP2 PUSH2 0x881 DUP4 PUSH2 0x107A JUMP JUMPDEST CALLER DUP4 MSTORE PUSH1 0x1 DUP1 PUSH1 0xA0 SHL SUB DUP8 AND PUSH1 0x20 DUP5 ADD MSTORE PUSH1 0x1 DUP1 PUSH1 0xA0 SHL SUB DUP6 AND PUSH1 0x40 DUP5 ADD MSTORE PUSH1 0x44 CALLDATALOAD PUSH1 0x60 DUP5 ADD MSTORE PUSH1 0x80 DUP4 ADD MSTORE PUSH1 0x64 DUP4 DIV PUSH1 0xA0 DUP4 ADD MSTORE PUSH1 0xC0 DUP3 ADD MSTORE TIMESTAMP PUSH1 0xE0 DUP3 ADD MSTORE PUSH1 0x1 PUSH2 0x100 DUP3 ADD MSTORE PUSH1 0x40 MLOAD DUP1 PUSH1 0x40 DUP2 ADD LT PUSH8 0xFFFFFFFFFFFFFFFF PUSH1 0x40 DUP4 ADD GT OR PUSH2 0xB42 JUMPI PUSH1 0x40 DUP2 ADD PUSH1 0x40 MSTORE PUSH1 0x12 DUP2 MSTORE PUSH18 0x41495F4F5054494D495A45445F524F555445 PUSH1 0x70 SHL PUSH1 0x20 DUP3 ADD MSTORE PUSH2 0x120 DUP3 ADD MSTORE DUP4 PUSH1 0x0 MSTORE PUSH1 0x3 PUSH1 0x20 MSTORE PUSH2 0x120 PUSH1 0x9 PUSH1 0x40 PUSH1 0x0 KECCAK256 PUSH1 0x1 DUP1 PUSH1 0xA0 SHL SUB DUP5 MLOAD AND PUSH1 0x1 PUSH1 0x1 PUSH1 0x60 SHL SUB PUSH1 0xA0 SHL SWAP1 DUP2 DUP4 SLOAD AND OR DUP3 SSTORE PUSH1 0x1 DUP3 ADD PUSH1 0x1 DUP1 PUSH1 0xA0 SHL SUB PUSH1 0x20 DUP8 ADD MLOAD AND DUP3 DUP3 SLOAD AND OR SWAP1 SSTORE PUSH1 0x2 DUP3 ADD SWAP1 PUSH1 0x1 DUP1 PUSH1 0xA0 SHL SUB PUSH1 0x40 DUP8 ADD MLOAD AND SWAP1 DUP3 SLOAD AND OR SWAP1 SSTORE PUSH1 0x60 DUP5 ADD MLOAD PUSH1 0x3 DUP3 ADD SSTORE PUSH1 0x80 DUP5 ADD MLOAD PUSH1 0x4 DUP3 ADD SSTORE PUSH1 0xA0 DUP5 ADD MLOAD PUSH1 0x5 DUP3 ADD SSTORE PUSH1 0xC0 DUP5 ADD MLOAD PUSH1 0x6 DUP3 ADD SSTORE PUSH1 0xE0 DUP5 ADD MLOAD PUSH1 0x7 DUP3 ADD SSTORE PUSH2 0x9C4 PUSH2 0x100 DUP6 ADD MLOAD ISZERO ISZERO PUSH1 0x8 DUP4 ADD SWAP1 PUSH1 0xFF DUP1 NOT DUP4 SLOAD AND SWAP2 ISZERO ISZERO AND OR SWAP1 SSTORE JUMP JUMPDEST ADD SWAP2 ADD MLOAD DUP1 MLOAD SWAP1 PUSH8 0xFFFFFFFFFFFFFFFF DUP3 GT PUSH2 0xB42 JUMPI PUSH2 0x9E4 DUP4 SLOAD PUSH2 0x1040 JUMP JUMPDEST PUSH1 0x1F DUP2 GT PUSH2 0xAFA JUMPI JUMPDEST POP PUSH1 0x20 SWAP1 PUSH1 0x1F DUP4 GT PUSH1 0x1 EQ PUSH2 0xA8E JUMPI PUSH1 0x64 SWAP5 SWAP4 SWAP3 SWAP2 PUSH1 0x0 SWAP2 DUP4 PUSH2 0xA83 JUMPI JUMPDEST POP POP DUP2 PUSH1 0x1 SHL SWAP2 PUSH1 0x0 NOT SWAP1 PUSH1 0x3 SHL SHR NOT AND OR SWAP1 SSTORE JUMPDEST GAS SWAP3 PUSH1 0x40 MLOAD SWAP6 PUSH1 0x1 DUP1 PUSH1 0xA0 SHL SUB AND DUP7 MSTORE PUSH1 0x1 DUP1 PUSH1 0xA0 SHL SUB AND PUSH1 0x20 DUP7 ADD MSTORE PUSH1 0x44 CALLDATALOAD PUSH1 0x40 DUP7 ADD MSTORE DIV PUSH1 0x60 DUP5 ADD MSTORE PUSH1 0x80 DUP4 ADD MSTORE PUSH1 0x1 PUSH1 0xA0 DUP4 ADD MSTORE PUSH32 0x5E16FDDA100E04B2C1AFF0D7B552BEC6047BA84A000D899B7487FB61ACB3BF69 PUSH1 0xC0 CALLER SWAP4 LOG3 PUSH1 0x1 DUP1 SSTORE STOP JUMPDEST ADD MLOAD SWAP1 POP DUP9 DUP1 PUSH2 0xA0B JUMP JUMPDEST SWAP1 PUSH1 0x1F NOT DUP4 AND SWAP2 DUP5 PUSH1 0x0 MSTORE PUSH1 0x20 PUSH1 0x0 KECCAK256 SWAP3 PUSH1 0x0 JUMPDEST DUP2 DUP2 LT PUSH2 0xAE2 JUMPI POP SWAP2 PUSH1 0x1 SWAP4 SWAP2 DUP6 PUSH1 0x64 SWAP9 SWAP8 SWAP7 SWAP5 LT PUSH2 0xAC9 JUMPI JUMPDEST POP POP POP DUP2 SHL ADD SWAP1 SSTORE PUSH2 0xA20 JUMP JUMPDEST ADD MLOAD PUSH1 0x0 NOT PUSH1 0xF8 DUP5 PUSH1 0x3 SHL AND SHR NOT AND SWAP1 SSTORE DUP9 DUP1 DUP1 PUSH2 0xABC JUMP JUMPDEST SWAP3 SWAP4 PUSH1 0x20 PUSH1 0x1 DUP2 SWAP3 DUP8 DUP7 ADD MLOAD DUP2 SSTORE ADD SWAP6 ADD SWAP4 ADD PUSH2 0xAA2 JUMP JUMPDEST DUP4 PUSH1 0x0 MSTORE PUSH1 0x20 PUSH1 0x0 KECCAK256 PUSH1 0x1F DUP5 ADD PUSH1 0x5 SHR DUP2 ADD SWAP2 PUSH1 0x20 DUP6 LT PUSH2 0xB38 JUMPI JUMPDEST PUSH1 0x1F ADD PUSH1 0x5 SHR ADD SWAP1 JUMPDEST DUP2 DUP2 LT PUSH2 0xB2C JUMPI POP PUSH2 0x9ED JUMP JUMPDEST PUSH1 0x0 DUP2 SSTORE PUSH1 0x1 ADD PUSH2 0xB1F JUMP JUMPDEST SWAP1 SWAP2 POP DUP2 SWAP1 PUSH2 0xB16 JUMP JUMPDEST PUSH4 0x4E487B71 PUSH1 0xE0 SHL PUSH1 0x0 MSTORE PUSH1 0x41 PUSH1 0x4 MSTORE PUSH1 0x24 PUSH1 0x0 REVERT JUMPDEST PUSH1 0x40 MLOAD PUSH3 0x461BCD PUSH1 0xE5 SHL DUP2 MSTORE PUSH1 0x20 PUSH1 0x4 DUP3 ADD MSTORE PUSH1 0x13 PUSH1 0x24 DUP3 ADD MSTORE PUSH19 0x115512081D1C985B9CD9995C8819985A5B1959 PUSH1 0x6A SHL PUSH1 0x44 DUP3 ADD MSTORE PUSH1 0x64 SWAP1 REVERT JUMPDEST PUSH2 0xBAA PUSH1 0x64 DUP4 DIV CALLER PUSH1 0x1 PUSH1 0x1 PUSH1 0xA0 SHL SUB DUP7 AND PUSH2 0x12D7 JUMP JUMPDEST PUSH2 0x873 JUMP JUMPDEST PUSH1 0x40 MLOAD PUSH3 0x461BCD PUSH1 0xE5 SHL DUP2 MSTORE PUSH1 0x20 PUSH1 0x4 DUP3 ADD MSTORE PUSH1 0x11 PUSH1 0x24 DUP3 ADD MSTORE PUSH17 0xA6D8D2E0E0C2CECA40E8DEDE40D0D2CED PUSH1 0x7B SHL PUSH1 0x44 DUP3 ADD MSTORE PUSH1 0x64 SWAP1 REVERT JUMPDEST PUSH4 0x4E487B71 PUSH1 0xE0 SHL PUSH1 0x0 MSTORE PUSH1 0x11 PUSH1 0x4 MSTORE PUSH1 0x24 PUSH1 0x0 REVERT JUMPDEST PUSH1 0x40 MLOAD PUSH3 0x461BCD PUSH1 0xE5 SHL DUP2 MSTORE PUSH1 0x20 PUSH1 0x4 DUP3 ADD MSTORE PUSH1 0x14 PUSH1 0x24 DUP3 ADD MSTORE PUSH20 0x125B98DBDC9C9958DD0811551208185B5BDD5B9D PUSH1 0x62 SHL PUSH1 0x44 DUP3 ADD MSTORE PUSH1 0x64 SWAP1 REVERT JUMPDEST CALLVALUE PUSH2 0xC89 JUMPI PUSH1 0x20 SWAP1 PUSH2 0xC84 PUSH1 0x40 MLOAD PUSH4 0x23B872DD PUSH1 0xE0 SHL DUP5 DUP3 ADD MSTORE CALLER PUSH1 0x24 DUP3 ADD MSTORE ADDRESS PUSH1 0x44 DUP3 ADD MSTORE PUSH1 0x44 CALLDATALOAD PUSH1 0x64 DUP3 ADD MSTORE PUSH1 0x64 DUP2 MSTORE PUSH2 0xC75 DUP2 PUSH2 0x1097 JUMP JUMPDEST PUSH1 0x1 PUSH1 0x1 PUSH1 0xA0 SHL SUB DUP9 AND PUSH2 0x1323 JUMP JUMPDEST PUSH2 0x817 JUMP JUMPDEST PUSH1 0x64 PUSH1 0x40 MLOAD PUSH3 0x461BCD PUSH1 0xE5 SHL DUP2 MSTORE PUSH1 0x20 PUSH1 0x4 DUP3 ADD MSTORE PUSH1 0x20 PUSH1 0x24 DUP3 ADD MSTORE PUSH32 0x455448206E6F7420616363657074656420666F7220746F6B656E207377617073 PUSH1 0x44 DUP3 ADD MSTORE REVERT JUMPDEST PUSH1 0x40 MLOAD PUSH3 0x461BCD PUSH1 0xE5 SHL DUP2 MSTORE PUSH1 0x20 PUSH1 0x4 DUP3 ADD MSTORE PUSH1 0x1C PUSH1 0x24 DUP3 ADD MSTORE PUSH32 0x496E73756666696369656E74206578706563746564206F757470757400000000 PUSH1 0x44 DUP3 ADD MSTORE PUSH1 0x64 SWAP1 REVERT JUMPDEST PUSH2 0x7BF SWAP3 POP PUSH2 0xD30 SWAP2 POP PUSH1 0x60 RETURNDATASIZE PUSH1 0x60 GT PUSH2 0x29B JUMPI PUSH2 0x28A DUP2 DUP4 PUSH2 0x10B3 JUMP JUMPDEST SWAP2 SWAP3 SWAP1 POP PUSH2 0x7B5 JUMP JUMPDEST PUSH1 0x40 MLOAD PUSH3 0x461BCD PUSH1 0xE5 SHL DUP2 MSTORE PUSH1 0x20 PUSH1 0x4 DUP3 ADD MSTORE PUSH1 0x18 PUSH1 0x24 DUP3 ADD MSTORE PUSH32 0x457865637574696F6E20616C7265616479206578697374730000000000000000 PUSH1 0x44 DUP3 ADD MSTORE PUSH1 0x64 SWAP1 REVERT JUMPDEST PUSH1 0x40 MLOAD PUSH3 0x461BCD PUSH1 0xE5 SHL DUP2 MSTORE PUSH1 0x20 PUSH1 0x4 DUP3 ADD MSTORE PUSH1 0x12 PUSH1 0x24 DUP3 ADD MSTORE PUSH18 0x125B9D985B1A59081B5A5B881BDD5D1C1D5D PUSH1 0x72 SHL PUSH1 0x44 DUP3 ADD MSTORE PUSH1 0x64 SWAP1 REVERT JUMPDEST PUSH1 0x40 MLOAD PUSH4 0x3EE5AEB5 PUSH1 0xE0 SHL DUP2 MSTORE PUSH1 0x4 SWAP1 REVERT JUMPDEST CALLVALUE PUSH2 0xF7 JUMPI PUSH1 0x20 CALLDATASIZE PUSH1 0x3 NOT ADD SLT PUSH2 0xF7 JUMPI PUSH2 0xDE3 PUSH2 0x1014 JUMP JUMPDEST PUSH2 0xDEB PUSH2 0x12AB JUMP JUMPDEST PUSH1 0x1 PUSH1 0x1 PUSH1 0xA0 SHL SUB AND DUP1 ISZERO PUSH2 0xE12 JUMPI PUSH1 0x1 PUSH1 0x1 PUSH1 0x60 SHL SUB PUSH1 0xA0 SHL PUSH1 0x2 SLOAD AND OR PUSH1 0x2 SSTORE PUSH1 0x0 DUP1 RETURN JUMPDEST PUSH1 0x40 MLOAD PUSH3 0x461BCD PUSH1 0xE5 SHL DUP2 MSTORE PUSH1 0x20 PUSH1 0x4 DUP3 ADD MSTORE PUSH1 0x16 PUSH1 0x24 DUP3 ADD MSTORE PUSH22 0x496E76616C6964206F7261636C652061646472657373 PUSH1 0x50 SHL PUSH1 0x44 DUP3 ADD MSTORE PUSH1 0x64 SWAP1 REVERT JUMPDEST CALLVALUE PUSH2 0xF7 JUMPI PUSH1 0x20 CALLDATASIZE PUSH1 0x3 NOT ADD SLT PUSH2 0xF7 JUMPI PUSH2 0x120 DUP2 PUSH2 0xE70 PUSH1 0x60 SWAP4 PUSH2 0x107A JUMP JUMPDEST PUSH1 0x0 DUP2 MSTORE PUSH1 0x0 PUSH1 0x20 DUP3 ADD MSTORE PUSH1 0x0 PUSH1 0x40 DUP3 ADD MSTORE PUSH1 0x0 DUP4 DUP3 ADD MSTORE PUSH1 0x0 PUSH1 0x80 DUP3 ADD MSTORE PUSH1 0x0 PUSH1 0xA0 DUP3 ADD MSTORE PUSH1 0x0 PUSH1 0xC0 DUP3 ADD MSTORE PUSH1 0x0 PUSH1 0xE0 DUP3 ADD MSTORE PUSH1 0x0 PUSH2 0x100 DUP3 ADD MSTORE ADD MSTORE PUSH1 0x4 CALLDATALOAD PUSH1 0x0 MSTORE PUSH1 0x3 PUSH1 0x20 MSTORE PUSH2 0x120 PUSH1 0x40 PUSH1 0x0 KECCAK256 PUSH2 0xF41 PUSH1 0x9 PUSH1 0x40 MLOAD SWAP3 PUSH2 0xED3 DUP5 PUSH2 0x107A JUMP JUMPDEST DUP1 SLOAD PUSH1 0x1 PUSH1 0x1 PUSH1 0xA0 SHL SUB SWAP1 DUP2 AND DUP6 MSTORE PUSH1 0x1 DUP3 ADD SLOAD DUP2 AND PUSH1 0x20 DUP7 ADD MSTORE PUSH1 0x2 DUP3 ADD SLOAD AND PUSH1 0x40 DUP6 ADD MSTORE PUSH1 0x3 DUP2 ADD SLOAD PUSH1 0x60 DUP6 ADD MSTORE PUSH1 0x4 DUP2 ADD SLOAD PUSH1 0x80 DUP6 ADD MSTORE PUSH1 0x5 DUP2 ADD SLOAD PUSH1 0xA0 DUP6 ADD MSTORE PUSH1 0x6 DUP2 ADD SLOAD PUSH1 0xC0 DUP6 ADD MSTORE PUSH1 0x7 DUP2 ADD SLOAD PUSH1 0xE0 DUP6 ADD MSTORE PUSH1 0x8 DUP2 ADD SLOAD PUSH1 0xFF AND ISZERO ISZERO PUSH2 0x100 DUP6 ADD MSTORE ADD PUSH2 0x10D5 JUMP JUMPDEST DUP3 DUP3 ADD MSTORE PUSH2 0x364 PUSH1 0x40 MLOAD SWAP3 DUP4 SWAP3 PUSH1 0x20 DUP5 MSTORE PUSH1 0x1 DUP1 PUSH1 0xA0 SHL SUB DUP2 MLOAD AND PUSH1 0x20 DUP6 ADD MSTORE PUSH1 0x1 DUP1 PUSH1 0xA0 SHL SUB PUSH1 0x20 DUP3 ADD MLOAD AND PUSH1 0x40 DUP6 ADD MSTORE PUSH1 0x1 DUP1 PUSH1 0xA0 SHL SUB PUSH1 0x40 DUP3 ADD MLOAD AND PUSH1 0x60 DUP6 ADD MSTORE PUSH1 0x60 DUP2 ADD MLOAD PUSH1 0x80 DUP6 ADD MSTORE PUSH1 0x80 DUP2 ADD MLOAD PUSH1 0xA0 DUP6 ADD MSTORE PUSH1 0xA0 DUP2 ADD MLOAD PUSH1 0xC0 DUP6 ADD MSTORE PUSH1 0xC0 DUP2 ADD MLOAD PUSH1 0xE0 DUP6 ADD MSTORE PUSH1 0xE0 DUP2 ADD MLOAD PUSH2 0x100 DUP6 ADD MSTORE PUSH2 0x100 DUP2 ADD MLOAD ISZERO ISZERO DUP3 DUP6 ADD MSTORE ADD MLOAD PUSH2 0x140 DUP1 DUP5 ADD MSTORE PUSH2 0x160 DUP4 ADD SWAP1 JUMPDEST SWAP2 SWAP1 DUP3 MLOAD SWAP3 DUP4 DUP3 MSTORE PUSH1 0x0 JUMPDEST DUP5 DUP2 LT PUSH2 0x1000 JUMPI POP POP DUP3 PUSH1 0x0 PUSH1 0x20 DUP1 SWAP5 SWAP6 DUP5 ADD ADD MSTORE PUSH1 0x1F DUP1 NOT SWAP2 ADD AND ADD ADD SWAP1 JUMP JUMPDEST PUSH1 0x20 DUP2 DUP4 ADD DUP2 ADD MLOAD DUP5 DUP4 ADD DUP3 ADD MSTORE ADD PUSH2 0xFDF JUMP JUMPDEST PUSH1 0x4 CALLDATALOAD SWAP1 PUSH1 0x1 PUSH1 0x1 PUSH1 0xA0 SHL SUB DUP3 AND DUP3 SUB PUSH2 0xF7 JUMPI JUMP JUMPDEST PUSH1 0x24 CALLDATALOAD SWAP1 PUSH1 0x1 PUSH1 0x1 PUSH1 0xA0 SHL SUB DUP3 AND DUP3 SUB PUSH2 0xF7 JUMPI JUMP JUMPDEST SWAP1 PUSH1 0x1 DUP3 DUP2 SHR SWAP3 AND DUP1 ISZERO PUSH2 0x1070 JUMPI JUMPDEST PUSH1 0x20 DUP4 LT EQ PUSH2 0x105A JUMPI JUMP JUMPDEST PUSH4 0x4E487B71 PUSH1 0xE0 SHL PUSH1 0x0 MSTORE PUSH1 0x22 PUSH1 0x4 MSTORE PUSH1 0x24 PUSH1 0x0 REVERT JUMPDEST SWAP2 PUSH1 0x7F AND SWAP2 PUSH2 0x104F JUMP JUMPDEST PUSH2 0x140 DUP2 ADD SWAP1 DUP2 LT PUSH8 0xFFFFFFFFFFFFFFFF DUP3 GT OR PUSH2 0xB42 JUMPI PUSH1 0x40 MSTORE JUMP JUMPDEST PUSH1 0xA0 DUP2 ADD SWAP1 DUP2 LT PUSH8 0xFFFFFFFFFFFFFFFF DUP3 GT OR PUSH2 0xB42 JUMPI PUSH1 0x40 MSTORE JUMP JUMPDEST SWAP1 PUSH1 0x1F DUP1 NOT SWAP2 ADD AND DUP2 ADD SWAP1 DUP2 LT PUSH8 0xFFFFFFFFFFFFFFFF DUP3 GT OR PUSH2 0xB42 JUMPI PUSH1 0x40 MSTORE JUMP JUMPDEST SWAP1 PUSH1 0x40 MLOAD SWAP2 DUP3 PUSH1 0x0 DUP3 SLOAD PUSH2 0x10E8 DUP2 PUSH2 0x1040 JUMP JUMPDEST SWAP1 DUP2 DUP5 MSTORE PUSH1 0x20 SWAP5 PUSH1 0x1 SWAP2 PUSH1 0x1 DUP2 AND SWAP1 DUP2 PUSH1 0x0 EQ PUSH2 0x1158 JUMPI POP PUSH1 0x1 EQ PUSH2 0x1119 JUMPI JUMPDEST POP POP POP PUSH2 0x1117 SWAP3 POP SUB DUP4 PUSH2 0x10B3 JUMP JUMPDEST JUMP JUMPDEST PUSH1 0x0 SWAP1 DUP2 MSTORE DUP6 DUP2 KECCAK256 SWAP6 SWAP4 POP SWAP2 SWAP1 JUMPDEST DUP2 DUP4 LT PUSH2 0x1140 JUMPI POP POP PUSH2 0x1117 SWAP4 POP DUP3 ADD ADD CODESIZE DUP1 DUP1 PUSH2 0x1108 JUMP JUMPDEST DUP6 SLOAD DUP9 DUP5 ADD DUP6 ADD MSTORE SWAP5 DUP6 ADD SWAP5 DUP8 SWAP5 POP SWAP2 DUP4 ADD SWAP2 PUSH2 0x1127 JUMP JUMPDEST SWAP3 POP POP POP PUSH2 0x1117 SWAP5 SWAP3 POP PUSH1 0xFF NOT AND DUP3 DUP5 ADD MSTORE ISZERO ISZERO PUSH1 0x5 SHL DUP3 ADD ADD CODESIZE DUP1 DUP1 PUSH2 0x1108 JUMP JUMPDEST ISZERO PUSH2 0x1181 JUMPI JUMP JUMPDEST PUSH1 0x40 MLOAD PUSH3 0x461BCD PUSH1 0xE5 SHL DUP2 MSTORE PUSH1 0x20 PUSH1 0x4 DUP3 ADD MSTORE PUSH1 0xB PUSH1 0x24 DUP3 ADD MSTORE PUSH11 0x53616D6520746F6B656E73 PUSH1 0xA8 SHL PUSH1 0x44 DUP3 ADD MSTORE PUSH1 0x64 SWAP1 REVERT JUMPDEST ISZERO PUSH2 0x11BB JUMPI JUMP JUMPDEST PUSH1 0x40 MLOAD PUSH3 0x461BCD PUSH1 0xE5 SHL DUP2 MSTORE PUSH1 0x20 PUSH1 0x4 DUP3 ADD MSTORE PUSH1 0xE PUSH1 0x24 DUP3 ADD MSTORE PUSH14 0x125B9D985B1A5908185B5BDD5B9D PUSH1 0x92 SHL PUSH1 0x44 DUP3 ADD MSTORE PUSH1 0x64 SWAP1 REVERT JUMPDEST SWAP1 DUP2 PUSH1 0x60 SWAP2 SUB SLT PUSH2 0xF7 JUMPI DUP1 MLOAD SWAP2 PUSH1 0x40 PUSH1 0x20 DUP4 ADD MLOAD SWAP3 ADD MLOAD DUP1 ISZERO ISZERO DUP2 SUB PUSH2 0xF7 JUMPI SWAP1 JUMP JUMPDEST ISZERO PUSH2 0x121C JUMPI JUMP JUMPDEST PUSH1 0x40 MLOAD PUSH3 0x461BCD PUSH1 0xE5 SHL DUP2 MSTORE PUSH1 0x20 PUSH1 0x4 DUP3 ADD MSTORE PUSH1 0x14 PUSH1 0x24 DUP3 ADD MSTORE PUSH20 0x496E76616C6964206F7261636C65207072696365 PUSH1 0x60 SHL PUSH1 0x44 DUP3 ADD MSTORE PUSH1 0x64 SWAP1 REVERT JUMPDEST DUP2 DUP2 MUL SWAP3 SWAP2 DUP2 ISZERO SWAP2 DUP5 DIV EQ OR ISZERO PUSH2 0xBE8 JUMPI JUMP JUMPDEST RETURNDATASIZE ISZERO PUSH2 0x12A6 JUMPI RETURNDATASIZE SWAP1 PUSH8 0xFFFFFFFFFFFFFFFF DUP3 GT PUSH2 0xB42 JUMPI PUSH1 0x40 MLOAD SWAP2 PUSH2 0x129A PUSH1 0x1F DUP3 ADD PUSH1 0x1F NOT AND PUSH1 0x20 ADD DUP5 PUSH2 0x10B3 JUMP JUMPDEST DUP3 MSTORE RETURNDATASIZE PUSH1 0x0 PUSH1 0x20 DUP5 ADD RETURNDATACOPY JUMP JUMPDEST PUSH1 0x60 SWAP1 JUMP JUMPDEST PUSH1 0x0 SLOAD PUSH1 0x1 PUSH1 0x1 PUSH1 0xA0 SHL SUB AND CALLER SUB PUSH2 0x12BF JUMPI JUMP JUMPDEST PUSH1 0x40 MLOAD PUSH4 0x118CDAA7 PUSH1 0xE0 SHL DUP2 MSTORE CALLER PUSH1 0x4 DUP3 ADD MSTORE PUSH1 0x24 SWAP1 REVERT JUMPDEST PUSH1 0x40 MLOAD PUSH4 0xA9059CBB PUSH1 0xE0 SHL PUSH1 0x20 DUP3 ADD MSTORE PUSH1 0x1 PUSH1 0x1 PUSH1 0xA0 SHL SUB SWAP1 SWAP3 AND PUSH1 0x24 DUP4 ADD MSTORE PUSH1 0x44 DUP1 DUP4 ADD SWAP4 SWAP1 SWAP4 MSTORE SWAP2 DUP2 MSTORE PUSH1 0x80 DUP2 ADD SWAP2 PUSH8 0xFFFFFFFFFFFFFFFF DUP4 GT DUP3 DUP5 LT OR PUSH2 0xB42 JUMPI PUSH2 0x1117 SWAP3 PUSH1 0x40 MSTORE JUMPDEST SWAP1 PUSH1 0x0 PUSH1 0x20 SWAP2 DUP3 DUP2 MLOAD SWAP2 ADD DUP3 DUP6 GAS CALL ISZERO PUSH2 0x2A2 JUMPI PUSH1 0x0 MLOAD RETURNDATASIZE PUSH2 0x1376 JUMPI POP PUSH1 0x1 PUSH1 0x1 PUSH1 0xA0 SHL SUB DUP2 AND EXTCODESIZE ISZERO JUMPDEST PUSH2 0x1354 JUMPI POP JUMP JUMPDEST PUSH1 0x40 MLOAD PUSH4 0x5274AFE7 PUSH1 0xE0 SHL DUP2 MSTORE PUSH1 0x1 PUSH1 0x1 PUSH1 0xA0 SHL SUB SWAP1 SWAP2 AND PUSH1 0x4 DUP3 ADD MSTORE PUSH1 0x24 SWAP1 REVERT JUMPDEST PUSH1 0x1 EQ ISZERO PUSH2 0x134D JUMP INVALID LOG2 PUSH5 0x6970667358 0x22 SLT KECCAK256 SWAP15 DUP7 0xD7 PUSH11 0x96DC6AEB09148820B75DB 0xC8 0xEA 0xC4 0xB6 PUSH2 0xD0D3 PUSH24 0x673CEF9545139A1E7A64736F6C6343000818003300000000 "},"methodIdentifiers":{"EXECUTION_FEE()":"4675e8eb","MAX_SLIPPAGE()":"f9759518","MIN_CONFIDENCE()":"41f93757","authorizedExecutors(address)":"679d86a7","executeSwap(address,address,uint256,uint256,bytes)":"232174c0","executions(bytes32)":"96150e08","getExecution(bytes32)":"0fe11ab3","getOptimalRoute(address,address,uint256)":"bdca8ccc","oracle()":"7dc0d1d0","owner()":"8da5cb5b","renounceOwnership()":"715018a6","rescueTokens(address,uint256)":"57376198","setAuthorizedExecutor(address,bool)":"7cae716e","transferOwnership(address)":"f2fde38b","updateOracle(address)":"1cb44dfc","withdrawFees()":"476343ee"}}}}}