{
  "_format": "hh-sol-artifact-1",
  "contractName": "SimpleHTLC",
  "sourceName": "contracts/SimpleHTLC.sol",
  "abi": [
    {
      "anonymous": false,
      "inputs": [
        {
          "indexed": true,
          "internalType": "bytes32",
          "name": "swapId",
          "type": "bytes32"
        },
        {
          "indexed": true,
          "internalType": "address",
          "name": "initiator",
          "type": "address"
        },
        {
          "indexed": true,
          "internalType": "address",
          "name": "recipient",
          "type": "address"
        },
        {
          "indexed": false,
          "internalType": "address",
          "name": "token",
          "type": "address"
        },
        {
          "indexed": false,
          "internalType": "uint256",
          "name": "amount",
          "type": "uint256"
        },
        {
          "indexed": false,
          "internalType": "bytes32",
          "name": "hashlock",
          "type": "bytes32"
        },
        {
          "indexed": false,
          "internalType": "uint256",
          "name": "timelock",
          "type": "uint256"
        }
      ],
      "name": "SwapInitiated",
      "type": "event"
    },
    {
      "anonymous": false,
      "inputs": [
        {
          "indexed": true,
          "internalType": "bytes32",
          "name": "swapId",
          "type": "bytes32"
        }
      ],
      "name": "SwapRefunded",
      "type": "event"
    },
    {
      "anonymous": false,
      "inputs": [
        {
          "indexed": true,
          "internalType": "bytes32",
          "name": "swapId",
          "type": "bytes32"
        },
        {
          "indexed": false,
          "internalType": "string",
          "name": "secret",
          "type": "string"
        }
      ],
      "name": "SwapWithdrawn",
      "type": "event"
    },
    {
      "inputs": [],
      "name": "FEE_BASIS_POINTS",
      "outputs": [
        {
          "internalType": "uint256",
          "name": "",
          "type": "uint256"
        }
      ],
      "stateMutability": "view",
      "type": "function"
    },
    {
      "inputs": [],
      "name": "MAX_TIMELOCK",
      "outputs": [
        {
          "internalType": "uint256",
          "name": "",
          "type": "uint256"
        }
      ],
      "stateMutability": "view",
      "type": "function"
    },
    {
      "inputs": [],
      "name": "MIN_TIMELOCK",
      "outputs": [
        {
          "internalType": "uint256",
          "name": "",
          "type": "uint256"
        }
      ],
      "stateMutability": "view",
      "type": "function"
    },
    {
      "inputs": [],
      "name": "emergencyWithdraw",
      "outputs": [],
      "stateMutability": "nonpayable",
      "type": "function"
    },
    {
      "inputs": [
        {
          "internalType": "bytes32",
          "name": "swapId",
          "type": "bytes32"
        }
      ],
      "name": "getSwap",
      "outputs": [
        {
          "internalType": "address",
          "name": "initiator",
          "type": "address"
        },
        {
          "internalType": "address",
          "name": "recipient",
          "type": "address"
        },
        {
          "internalType": "address",
          "name": "token",
          "type": "address"
        },
        {
          "internalType": "uint256",
          "name": "amount",
          "type": "uint256"
        },
        {
          "internalType": "bytes32",
          "name": "hashlock",
          "type": "bytes32"
        },
        {
          "internalType": "uint256",
          "name": "timelock",
          "type": "uint256"
        },
        {
          "internalType": "bool",
          "name": "withdrawn",
          "type": "bool"
        },
        {
          "internalType": "bool",
          "name": "refunded",
          "type": "bool"
        },
        {
          "internalType": "string",
          "name": "secret",
          "type": "string"
        }
      ],
      "stateMutability": "view",
      "type": "function"
    },
    {
      "inputs": [
        {
          "internalType": "address",
          "name": "recipient",
          "type": "address"
        },
        {
          "internalType": "address",
          "name": "token",
          "type": "address"
        },
        {
          "internalType": "uint256",
          "name": "amount",
          "type": "uint256"
        },
        {
          "internalType": "bytes32",
          "name": "hashlock",
          "type": "bytes32"
        },
        {
          "internalType": "uint256",
          "name": "timelock",
          "type": "uint256"
        }
      ],
      "name": "initiateSwap",
      "outputs": [],
      "stateMutability": "payable",
      "type": "function"
    },
    {
      "inputs": [
        {
          "internalType": "bytes32",
          "name": "swapId",
          "type": "bytes32"
        }
      ],
      "name": "refund",
      "outputs": [],
      "stateMutability": "nonpayable",
      "type": "function"
    },
    {
      "inputs": [
        {
          "internalType": "bytes32",
          "name": "",
          "type": "bytes32"
        }
      ],
      "name": "swaps",
      "outputs": [
        {
          "internalType": "address",
          "name": "initiator",
          "type": "address"
        },
        {
          "internalType": "address",
          "name": "recipient",
          "type": "address"
        },
        {
          "internalType": "address",
          "name": "token",
          "type": "address"
        },
        {
          "internalType": "uint256",
          "name": "amount",
          "type": "uint256"
        },
        {
          "internalType": "bytes32",
          "name": "hashlock",
          "type": "bytes32"
        },
        {
          "internalType": "uint256",
          "name": "timelock",
          "type": "uint256"
        },
        {
          "internalType": "bool",
          "name": "withdrawn",
          "type": "bool"
        },
        {
          "internalType": "bool",
          "name": "refunded",
          "type": "bool"
        },
        {
          "internalType": "string",
          "name": "secret",
          "type": "string"
        }
      ],
      "stateMutability": "view",
      "type": "function"
    },
    {
      "inputs": [
        {
          "internalType": "bytes32",
          "name": "swapId",
          "type": "bytes32"
        },
        {
          "internalType": "string",
          "name": "secret",
          "type": "string"
        }
      ],
      "name": "withdraw",
      "outputs": [],
      "stateMutability": "nonpayable",
      "type": "function"
    },
    {
      "inputs": [],
      "name": "withdrawFees",
      "outputs": [],
      "stateMutability": "nonpayable",
      "type": "function"
    }
  ],
  "bytecode": "0x60808060405234610016576110a2908161001c8239f35b600080fdfe6080604052600436101561001257600080fd5b60003560e01c806306a5366514610a5d5780633da0e66e146100ac578063476343ee146109b45780637249fbb6146107fd578063824899811461021257806394f1825b146101f4578063a525ad3c146101d8578063db2e21bc14610128578063eb84e7f2146100ac5763fb0c75491461008a57600080fd5b346100a75760003660031901126100a7576020604051610e108152f35b600080fd5b346100a75760203660031901126100a7576004356000526000602052604060002060018060a01b0361012481835416826001850154169260028501541693600381015491600482015460058301549061010c600760068601549501610e2e565b9460405198899860ff808860081c169716958a610d43565b0390f35b346100a75760003660031901126100a75747801561019e57600080808093335af1610151610fea565b501561015957005b60405162461bcd60e51b815260206004820152601b60248201527f456d657267656e6379207769746864726177616c206661696c656400000000006044820152606490fd5b60405162461bcd60e51b81526020600482015260126024820152714e6f2045544820746f20776974686472617760701b6044820152606490fd5b346100a75760003660031901126100a757602060405160198152f35b346100a75760003660031901126100a7576020604051620151808152f35b60a03660031901126100a7576004356001600160a01b03811690036100a7576024356001600160a01b03811690036100a7576004356001600160a01b0316156107c4576044351561077f57610e104201804211610680576084351061074557620151804201804211610680576084351161070c57606435156106d4576040513360601b60208201526bffffffffffffffffffffffff198060043560601b16603483015260243560601b166048820152604435605c820152606435607c820152608435609c820152609c81528060c081011067ffffffffffffffff60c0830111176105e45760c08101604052805160208201209081600052600060205260018060a01b03604060002054166106965750601960443502906044358204601903610680576044356127108304810311610680576024356001600160a01b03166106365760443534036105fa575b60405191610120830183811067ffffffffffffffff8211176105e45760405233835260018060a01b0360043516602084015260018060a01b036024351660408401526127108104604435036060840152606435608084015260843560a0840152600060c0840152600060e084015260405180602081011067ffffffffffffffff6020830111176105e4576020810160405260008152610100840152816000526000602052604060002092610100600760018060a01b03835116956bffffffffffffffffffffffff60a01b96878254161781556001966001820160018060a01b0360208701511682825416179055600282019060018060a01b0360408701511690825416179055606084015160038201556080840151600482015560a084015160058201556006810160c08501511515815460ff61ff0060e0890151151560081b1692169061ffff191617179055019101519384519067ffffffffffffffff82116105e4576104d5826104cf8554610dd2565b85610f94565b602090601f831160011461057a5750819061050a9394959660009261056f575b50508160011b916000199060031b1c19161790565b90555b6127106040519160018060a01b03602435168352046044350360208201526064356040820152608435606082015260018060a01b0360043516917f9fba3d24d594c6fe983302709ea37fdeceb7e556ea94cf695c806048e8ef9e8560803393a4005b0151905086806104f5565b90601f19831696846000526020600020926000905b8982106105cb57505083600195969798106105b2575b505050811b01905561050d565b015160001960f88460031b161c191690558580806105a5565b909293602082819287860151815501950193019061058f565b634e487b7160e01b600052604160045260246000fd5b60405162461bcd60e51b8152602060048201526014602482015273125b98dbdc9c9958dd0811551208185b5bdd5b9d60621b6044820152606490fd5b341561035d57606460405162461bcd60e51b815260206004820152602060248201527f455448206e6f7420616363657074656420666f7220746f6b656e2073776170736044820152fd5b634e487b7160e01b600052601160045260246000fd5b60c060649162461bcd60e51b82820152602060c4820152601360e4820152725377617020616c72656164792065786973747360681b61010482015201fd5b60405162461bcd60e51b815260206004820152601060248201526f496e76616c696420686173686c6f636b60801b6044820152606490fd5b60405162461bcd60e51b815260206004820152601160248201527054696d656c6f636b20746f6f206c6f6e6760781b6044820152606490fd5b60405162461bcd60e51b8152602060048201526012602482015271151a5b595b1bd8dac81d1bdbc81cda1bdc9d60721b6044820152606490fd5b60405162461bcd60e51b815260206004820152601d60248201527f416d6f756e74206d7573742062652067726561746572207468616e20300000006044820152606490fd5b60405162461bcd60e51b8152602060048201526011602482015270125b9d985b1a59081c9958da5c1a595b9d607a1b6044820152606490fd5b346100a75760203660031901126100a757600435600081815260208190526040902080546001600160a01b0390811690610838821515610ed3565b33820361096f5760068301805461085260ff821615610f15565b61086260ff8260081c1615610f55565b600585015442106109335761ff0019166101001790556002830154166108c85760008080809360036108a1960154905af161089b610fea565b5061102a565b7fc506b8643b74e7a2fbb400c79e929dd5dfffb301fb07afb3b0e8e7c47925cf5a600080a2005b60405162461bcd60e51b815260206004820152603a60248201527f4552433230207472616e7366657273206e6f7420696d706c656d656e7465642060448201527f696e20746869732073696d706c69666965642076657273696f6e0000000000006064820152608490fd5b60405162461bcd60e51b8152602060048201526014602482015273151a5b595b1bd8dac81b9bdd08195e1c1a5c995960621b6044820152606490fd5b60405162461bcd60e51b815260206004820152601960248201527f4f6e6c7920696e69746961746f722063616e20726566756e64000000000000006044820152606490fd5b346100a75760003660031901126100a757478015610a2257600080808093335af16109dd610fea565b50156109e557005b60405162461bcd60e51b8152602060048201526015602482015274119959481dda5d1a191c985dd85b0819985a5b1959605a1b6044820152606490fd5b60405162461bcd60e51b81526020600482015260136024820152724e6f206665657320746f20776974686472617760681b6044820152606490fd5b346100a75760403660031901126100a757600435602480359067ffffffffffffffff908183116100a757366023840112156100a75782600401359182116100a75780830192368284830101116100a7578460005260209060008252604060002060018060a01b0391610ad3838354161515610ed3565b6001906001830195848754163303610d0057600684018054610af860ff821615610f15565b610b0860ff8260081c1615610f55565b6005860154421015610cc9578a8a610b398a6040518381948383019687378101600083820152038084520182610e0c565b519020600487015403610c94579060018a939260ff19161790556007850193610b6c83610b668754610dd2565b87610f94565b600090601f8411600114610c255750908291610ba094600093610c18575b5050508160011b916000199060031b1c19161790565b90555b600281015482166108c8577f131889cd7db85ba9c0b47ce492c8aeb9dc8b9e732f758ff6dd1263d8c0d6a09595610bf260008080808a97966003899860409c5416910154905af161089b610fea565b8451958487958652850152848401376000828201840152601f01601f19168101030190a2005b01013590508b8080610b8a565b9392601f1981168660005289600020956000905b8b838310610c775750505010610c5b575b50505050600186811b019055610ba3565b60001960f88b60031b161c199201013516905588808080610c4a565b878601870135895597810197948501948e94509190910190610c39565b60405162461bcd60e51b815260048101899052600e818501526d125b9d985b1a59081cd958dc995d60921b6044820152606490fd5b60405162461bcd60e51b8152600481018990526010818501526f151a5b595b1bd8dac8195e1c1a5c995960821b6044820152606490fd5b85601b6064926040519262461bcd60e51b845260048401528201527f4f6e6c7920726563697069656e742063616e20776974686472617700000000006044820152fd5b979491969390989592986101209960018060a01b038092168a52816020991660208b01521660408901526060880152608087015260a0860152151560c0850152151560e0840152836101008401528051809484015260005b848110610dbd57505050610140916000838284010152601f8019910116010190565b81810183015184820161014001528201610d9b565b90600182811c92168015610e02575b6020831014610dec57565b634e487b7160e01b600052602260045260246000fd5b91607f1691610de1565b90601f8019910116810190811067ffffffffffffffff8211176105e457604052565b90604051918260008254610e4181610dd2565b90818452602094600191600181169081600014610eb15750600114610e72575b505050610e7092500383610e0c565b565b600090815285812095935091905b818310610e99575050610e709350820101388080610e61565b85548884018501529485019487945091830191610e80565b92505050610e7094925060ff191682840152151560051b820101388080610e61565b15610eda57565b60405162461bcd60e51b815260206004820152601360248201527214ddd85c08191bd95cc81b9bdd08195e1a5cdd606a1b6044820152606490fd5b15610f1c57565b60405162461bcd60e51b815260206004820152601160248201527020b63932b0b23c903bb4ba34323930bbb760791b6044820152606490fd5b15610f5c57565b60405162461bcd60e51b815260206004820152601060248201526f105b1c9958591e481c99599d5b99195960821b6044820152606490fd5b90601f8111610fa257505050565b6000916000526020600020906020601f850160051c83019410610fe0575b601f0160051c01915b828110610fd557505050565b818155600101610fc9565b9092508290610fc0565b3d15611025573d9067ffffffffffffffff82116105e45760405191611019601f8201601f191660200184610e0c565b82523d6000602084013e565b606090565b1561103157565b60405162461bcd60e51b8152602060048201526013602482015272115512081d1c985b9cd9995c8819985a5b1959606a1b6044820152606490fdfea2646970667358221220d5eaa7162fa961a8a58a2d147a1265f75865fedbc1eb0993c6fac54052388e8064736f6c63430008180033",
  "linkReferences": {},
  "deployedLinkReferences": {}
}