{
  "_format": "hh-sol-artifact-1",
  "contractName": "SwapSageExecutor",
  "sourceName": "contracts/SwapSageExecutor.sol",
  "abi": [
    {
      "inputs": [
        {
          "internalType": "address",
          "name": "_oracle",
          "type": "address"
        }
      ],
      "stateMutability": "nonpayable",
      "type": "constructor"
    },
    {
      "inputs": [
        {
          "internalType": "address",
          "name": "owner",
          "type": "address"
        }
      ],
      "name": "OwnableInvalidOwner",
      "type": "error"
    },
    {
      "inputs": [
        {
          "internalType": "address",
          "name": "account",
          "type": "address"
        }
      ],
      "name": "OwnableUnauthorizedAccount",
      "type": "error"
    },
    {
      "inputs": [],
      "name": "ReentrancyGuardReentrantCall",
      "type": "error"
    },
    {
      "inputs": [
        {
          "internalType": "address",
          "name": "token",
          "type": "address"
        }
      ],
      "name": "SafeERC20FailedOperation",
      "type": "error"
    },
    {
      "anonymous": false,
      "inputs": [
        {
          "indexed": true,
          "internalType": "address",
          "name": "executor",
          "type": "address"
        },
        {
          "indexed": false,
          "internalType": "bool",
          "name": "isActive",
          "type": "bool"
        }
      ],
      "name": "ExecutorUpdated",
      "type": "event"
    },
    {
      "anonymous": false,
      "inputs": [
        {
          "indexed": true,
          "internalType": "address",
          "name": "previousOwner",
          "type": "address"
        },
        {
          "indexed": true,
          "internalType": "address",
          "name": "newOwner",
          "type": "address"
        }
      ],
      "name": "OwnershipTransferred",
      "type": "event"
    },
    {
      "anonymous": false,
      "inputs": [
        {
          "indexed": true,
          "internalType": "bytes32",
          "name": "routeId",
          "type": "bytes32"
        },
        {
          "indexed": false,
          "internalType": "address",
          "name": "fromToken",
          "type": "address"
        },
        {
          "indexed": false,
          "internalType": "address",
          "name": "toToken",
          "type": "address"
        },
        {
          "indexed": false,
          "internalType": "uint256",
          "name": "expectedOutput",
          "type": "uint256"
        },
        {
          "indexed": false,
          "internalType": "uint256",
          "name": "confidence",
          "type": "uint256"
        }
      ],
      "name": "RouteOptimized",
      "type": "event"
    },
    {
      "anonymous": false,
      "inputs": [
        {
          "indexed": true,
          "internalType": "bytes32",
          "name": "executionId",
          "type": "bytes32"
        },
        {
          "indexed": true,
          "internalType": "address",
          "name": "user",
          "type": "address"
        },
        {
          "indexed": false,
          "internalType": "address",
          "name": "fromToken",
          "type": "address"
        },
        {
          "indexed": false,
          "internalType": "address",
          "name": "toToken",
          "type": "address"
        },
        {
          "indexed": false,
          "internalType": "uint256",
          "name": "fromAmount",
          "type": "uint256"
        },
        {
          "indexed": false,
          "internalType": "uint256",
          "name": "actualAmount",
          "type": "uint256"
        },
        {
          "indexed": false,
          "internalType": "uint256",
          "name": "gasUsed",
          "type": "uint256"
        },
        {
          "indexed": false,
          "internalType": "bool",
          "name": "success",
          "type": "bool"
        }
      ],
      "name": "SwapExecuted",
      "type": "event"
    },
    {
      "inputs": [],
      "name": "EXECUTION_FEE",
      "outputs": [
        {
          "internalType": "uint256",
          "name": "",
          "type": "uint256"
        }
      ],
      "stateMutability": "view",
      "type": "function"
    },
    {
      "inputs": [],
      "name": "MAX_SLIPPAGE",
      "outputs": [
        {
          "internalType": "uint256",
          "name": "",
          "type": "uint256"
        }
      ],
      "stateMutability": "view",
      "type": "function"
    },
    {
      "inputs": [],
      "name": "MIN_CONFIDENCE",
      "outputs": [
        {
          "internalType": "uint256",
          "name": "",
          "type": "uint256"
        }
      ],
      "stateMutability": "view",
      "type": "function"
    },
    {
      "inputs": [
        {
          "internalType": "address",
          "name": "",
          "type": "address"
        }
      ],
      "name": "authorizedExecutors",
      "outputs": [
        {
          "internalType": "bool",
          "name": "",
          "type": "bool"
        }
      ],
      "stateMutability": "view",
      "type": "function"
    },
    {
      "inputs": [
        {
          "internalType": "address",
          "name": "fromToken",
          "type": "address"
        },
        {
          "internalType": "address",
          "name": "toToken",
          "type": "address"
        },
        {
          "internalType": "uint256",
          "name": "amount",
          "type": "uint256"
        },
        {
          "internalType": "uint256",
          "name": "minOutput",
          "type": "uint256"
        },
        {
          "internalType": "bytes",
          "name": "routeData",
          "type": "bytes"
        }
      ],
      "name": "executeSwap",
      "outputs": [],
      "stateMutability": "payable",
      "type": "function"
    },
    {
      "inputs": [
        {
          "internalType": "bytes32",
          "name": "",
          "type": "bytes32"
        }
      ],
      "name": "executions",
      "outputs": [
        {
          "internalType": "address",
          "name": "user",
          "type": "address"
        },
        {
          "internalType": "address",
          "name": "fromToken",
          "type": "address"
        },
        {
          "internalType": "address",
          "name": "toToken",
          "type": "address"
        },
        {
          "internalType": "uint256",
          "name": "fromAmount",
          "type": "uint256"
        },
        {
          "internalType": "uint256",
          "name": "toAmount",
          "type": "uint256"
        },
        {
          "internalType": "uint256",
          "name": "actualAmount",
          "type": "uint256"
        },
        {
          "internalType": "uint256",
          "name": "gasUsed",
          "type": "uint256"
        },
        {
          "internalType": "uint256",
          "name": "timestamp",
          "type": "uint256"
        },
        {
          "internalType": "bool",
          "name": "success",
          "type": "bool"
        },
        {
          "internalType": "string",
          "name": "route",
          "type": "string"
        }
      ],
      "stateMutability": "view",
      "type": "function"
    },
    {
      "inputs": [
        {
          "internalType": "bytes32",
          "name": "executionId",
          "type": "bytes32"
        }
      ],
      "name": "getExecution",
      "outputs": [
        {
          "components": [
            {
              "internalType": "address",
              "name": "user",
              "type": "address"
            },
            {
              "internalType": "address",
              "name": "fromToken",
              "type": "address"
            },
            {
              "internalType": "address",
              "name": "toToken",
              "type": "address"
            },
            {
              "internalType": "uint256",
              "name": "fromAmount",
              "type": "uint256"
            },
            {
              "internalType": "uint256",
              "name": "toAmount",
              "type": "uint256"
            },
            {
              "internalType": "uint256",
              "name": "actualAmount",
              "type": "uint256"
            },
            {
              "internalType": "uint256",
              "name": "gasUsed",
              "type": "uint256"
            },
            {
              "internalType": "uint256",
              "name": "timestamp",
              "type": "uint256"
            },
            {
              "internalType": "bool",
              "name": "success",
              "type": "bool"
            },
            {
              "internalType": "string",
              "name": "route",
              "type": "string"
            }
          ],
          "internalType": "struct SwapSageExecutor.SwapExecution",
          "name": "execution",
          "type": "tuple"
        }
      ],
      "stateMutability": "view",
      "type": "function"
    },
    {
      "inputs": [
        {
          "internalType": "address",
          "name": "fromToken",
          "type": "address"
        },
        {
          "internalType": "address",
          "name": "toToken",
          "type": "address"
        },
        {
          "internalType": "uint256",
          "name": "amount",
          "type": "uint256"
        }
      ],
      "name": "getOptimalRoute",
      "outputs": [
        {
          "internalType": "bytes",
          "name": "route",
          "type": "bytes"
        },
        {
          "internalType": "uint256",
          "name": "expectedOutput",
          "type": "uint256"
        },
        {
          "internalType": "uint256",
          "name": "confidence",
          "type": "uint256"
        }
      ],
      "stateMutability": "view",
      "type": "function"
    },
    {
      "inputs": [],
      "name": "oracle",
      "outputs": [
        {
          "internalType": "contract SwapSageOracle",
          "name": "",
          "type": "address"
        }
      ],
      "stateMutability": "view",
      "type": "function"
    },
    {
      "inputs": [],
      "name": "owner",
      "outputs": [
        {
          "internalType": "address",
          "name": "",
          "type": "address"
        }
      ],
      "stateMutability": "view",
      "type": "function"
    },
    {
      "inputs": [],
      "name": "renounceOwnership",
      "outputs": [],
      "stateMutability": "nonpayable",
      "type": "function"
    },
    {
      "inputs": [
        {
          "internalType": "address",
          "name": "token",
          "type": "address"
        },
        {
          "internalType": "uint256",
          "name": "amount",
          "type": "uint256"
        }
      ],
      "name": "rescueTokens",
      "outputs": [],
      "stateMutability": "nonpayable",
      "type": "function"
    },
    {
      "inputs": [
        {
          "internalType": "address",
          "name": "executor",
          "type": "address"
        },
        {
          "internalType": "bool",
          "name": "isActive",
          "type": "bool"
        }
      ],
      "name": "setAuthorizedExecutor",
      "outputs": [],
      "stateMutability": "nonpayable",
      "type": "function"
    },
    {
      "inputs": [
        {
          "internalType": "address",
          "name": "newOwner",
          "type": "address"
        }
      ],
      "name": "transferOwnership",
      "outputs": [],
      "stateMutability": "nonpayable",
      "type": "function"
    },
    {
      "inputs": [
        {
          "internalType": "address",
          "name": "newOracle",
          "type": "address"
        }
      ],
      "name": "updateOracle",
      "outputs": [],
      "stateMutability": "nonpayable",
      "type": "function"
    },
    {
      "inputs": [],
      "name": "withdrawFees",
      "outputs": [],
      "stateMutability": "nonpayable",
      "type": "function"
    },
    {
      "stateMutability": "payable",
      "type": "receive"
    }
  ],
  "bytecode": "0x6080346100ca57601f61149b38819003918201601f19168301916001600160401b038311848410176100cf578084926020946040528339810103126100ca57516001600160a01b0390818116908190036100ca5733156100b15760005460018060a01b0319903382821617600055604051933391167f8be0079c531659141344cd1fd0a4f28419497f9722a3daafe3b4186f6b6457e0600080a36001805560025416176002556113b590816100e68239f35b604051631e4fbdf760e01b815260006004820152602490fd5b600080fd5b634e487b7160e01b600052604160045260246000fdfe608080604052600436101561001d575b50361561001b57600080fd5b005b60003560e01c9081630fe11ab314610e50575080631cb44dfc14610dca578063232174c01461066857806341f937571461064b5780634675e8eb1461062e578063476343ee1461057457806357376198146104da578063679d86a71461049b578063715018a6146104425780637cae716e146103ba5780637dc0d1d0146103915780638da5cb5b1461036857806396150e08146102ae578063bdca8ccc14610185578063f2fde38b146100fc5763f9759518146100da573861000f565b346100f75760003660031901126100f75760206040516101f48152f35b600080fd5b346100f75760203660031901126100f757610115611014565b61011d6112ab565b6001600160a01b0390811690811561016c57600054826001600160601b0360a01b821617600055167f8be0079c531659141344cd1fd0a4f28419497f9722a3daafe3b4186f6b6457e0600080a3005b604051631e4fbdf760e01b815260006004820152602490fd5b346100f7576060806003193601126100f75761019f611014565b906101a861102a565b6001600160a01b0392831692908116906044359060249084906101cd8786141561117a565b6101d88415156111b4565b60025416604051928380926341976e0960e01b82528960048301525afa80156102a2576305f5e100916102209160009160009161026d575b5061021a90611215565b83611258565b04916040519460208601526040850152828401528060808401526080835261024783611097565b61025b604051938385948552840190610fd4565b90602083015261213460408301520390f35b61021a92506102929150873d891161029b575b61028a81836110b3565b8101906111f1565b91929050610210565b503d610280565b6040513d6000823e3d90fd5b346100f75760203660031901126100f7576004356000526003602052604060002060018060a01b0361036481835416928260018201541692600282015416936003820154916004810154600582015460068301549060078401549261031d600960ff60088801541696016110d5565b966040519a8b9a610140988c5260208c015260408b015260608a0152608089015260a088015260c087015260e0860152151561010085015280610120850152830190610fd4565b0390f35b346100f75760003660031901126100f7576000546040516001600160a01b039091168152602090f35b346100f75760003660031901126100f7576002546040516001600160a01b039091168152602090f35b346100f75760403660031901126100f7576103d3611014565b60243590811515908183036100f7577f9fdbc2d48b8a0db2f62663bf9312ad02f5b1f6414ad600b55a247d09aeec3ea2916104396020926104126112ab565b60018060a01b031694856000526004845260406000209060ff801983541691151516179055565b604051908152a2005b346100f75760003660031901126100f75761045b6112ab565b600080546001600160a01b0319811682556001600160a01b03167f8be0079c531659141344cd1fd0a4f28419497f9722a3daafe3b4186f6b6457e08280a3005b346100f75760203660031901126100f7576001600160a01b036104bc611014565b166000526004602052602060ff604060002054166040519015158152f35b346100f75760403660031901126100f7576104f3611014565b602435906104ff6112ab565b6001600160a01b03908116806105655750600080809381938254165af161052461126b565b501561052c57005b60405162461bcd60e51b8152602060048201526011602482015270115512081c995cd8dd594819985a5b1959607a1b6044820152606490fd5b61001b929160005416906112d7565b346100f75760003660031901126100f75761058d6112ab565b4780156105f35760008080809360018060a01b038254165af16105ae61126b565b50156105b657005b60405162461bcd60e51b8152602060048201526015602482015274119959481dda5d1a191c985dd85b0819985a5b1959605a1b6044820152606490fd5b60405162461bcd60e51b81526020600482015260136024820152724e6f206665657320746f20776974686472617760681b6044820152606490fd5b346100f75760003660031901126100f75760206040516103e88152f35b346100f75760003660031901126100f7576020604051611b588152f35b60a03660031901126100f75761067c611014565b61068461102a565b67ffffffffffffffff608435116100f7573660236084350112156100f757608435600401359067ffffffffffffffff82116100f757366024836084350101116100f757600260015414610db85760026001556106ee6001600160a01b03848116908316141561117a565b6106fb60443515156111b4565b60643515610d7e576040513360601b60208201526001600160601b0319808560601b1660348301528260601b166048820152604435605c82015242607c820152607c815261074881611097565b602081519101209182600052600360205260018060a01b0360406000205416610d39576002546040516341976e0960e01b81526001600160a01b038681166004830152909160609183916024918391165afa80156102a2576305f5e100916107c791600091600091610d12575b506107bf90611215565b604435611258565b04906064358210610ccd576103e8806044350290604435820414604435151715610be85761271060443591046044350311610be8576001600160a01b038516610c3a576044353403610bfe576020905b60843590810103126100f7576024608435013590606382029180830460631490151715610be8576064356064830410610baf576001600160a01b038316610b9357600080808060648604335af161086c61126b565b5015610b58575b5a604051916108818361107a565b33835260018060a01b038716602084015260018060a01b0385166040840152604435606084015260808301526064830460a083015260c08201524260e0820152600161010082015260405180604081011067ffffffffffffffff604083011117610b425760408101604052601281527141495f4f5054494d495a45445f524f55544560701b60208201526101208201528360005260036020526101206009604060002060018060a01b038451166001600160601b0360a01b90818354161782556001820160018060a01b0360208701511682825416179055600282019060018060a01b0360408701511690825416179055606084015160038201556080840151600482015560a0840151600582015560c0840151600682015560e084015160078201556109c46101008501511515600883019060ff801983541691151516179055565b0191015180519067ffffffffffffffff8211610b42576109e48354611040565b601f8111610afa575b50602090601f8311600114610a8e5760649493929160009183610a83575b50508160011b916000199060031b1c19161790555b5a926040519560018060a01b0316865260018060a01b0316602086015260443560408601520460608401526080830152600160a08301527f5e16fdda100e04b2c1aff0d7b552bec6047ba84a000d899b7487fb61acb3bf6960c03393a360018055005b015190508880610a0b565b90601f198316918460005260206000209260005b818110610ae2575091600193918560649897969410610ac9575b505050811b019055610a20565b015160001960f88460031b161c19169055888080610abc565b92936020600181928786015181550195019301610aa2565b836000526020600020601f840160051c81019160208510610b38575b601f0160051c01905b818110610b2c57506109ed565b60008155600101610b1f565b9091508190610b16565b634e487b7160e01b600052604160045260246000fd5b60405162461bcd60e51b8152602060048201526013602482015272115512081d1c985b9cd9995c8819985a5b1959606a1b6044820152606490fd5b610baa60648304336001600160a01b0386166112d7565b610873565b60405162461bcd60e51b81526020600482015260116024820152700a6d8d2e0e0c2ceca40e8dede40d0d2ced607b1b6044820152606490fd5b634e487b7160e01b600052601160045260246000fd5b60405162461bcd60e51b8152602060048201526014602482015273125b98dbdc9c9958dd0811551208185b5bdd5b9d60621b6044820152606490fd5b34610c8957602090610c846040516323b872dd60e01b84820152336024820152306044820152604435606482015260648152610c7581611097565b6001600160a01b038816611323565b610817565b606460405162461bcd60e51b815260206004820152602060248201527f455448206e6f7420616363657074656420666f7220746f6b656e2073776170736044820152fd5b60405162461bcd60e51b815260206004820152601c60248201527f496e73756666696369656e74206578706563746564206f7574707574000000006044820152606490fd5b6107bf9250610d30915060603d60601161029b5761028a81836110b3565b919290506107b5565b60405162461bcd60e51b815260206004820152601860248201527f457865637574696f6e20616c72656164792065786973747300000000000000006044820152606490fd5b60405162461bcd60e51b8152602060048201526012602482015271125b9d985b1a59081b5a5b881bdd5d1c1d5d60721b6044820152606490fd5b604051633ee5aeb560e01b8152600490fd5b346100f75760203660031901126100f757610de3611014565b610deb6112ab565b6001600160a01b03168015610e12576001600160601b0360a01b6002541617600255600080f35b60405162461bcd60e51b8152602060048201526016602482015275496e76616c6964206f7261636c65206164647265737360501b6044820152606490fd5b346100f75760203660031901126100f75761012081610e7060609361107a565b60008152600060208201526000604082015260008382015260006080820152600060a0820152600060c0820152600060e08201526000610100820152015260043560005260036020526101206040600020610f41600960405192610ed38461107a565b80546001600160a01b03908116855260018201548116602086015260028201541660408501526003810154606085015260048101546080850152600581015460a0850152600681015460c0850152600781015460e0850152600881015460ff161515610100850152016110d5565b828201526103646040519283926020845260018060a01b03815116602085015260018060a01b03602082015116604085015260018060a01b03604082015116606085015260608101516080850152608081015160a085015260a081015160c085015260c081015160e085015260e08101516101008501526101008101511515828501520151610140808401526101608301905b919082519283825260005b848110611000575050826000602080949584010152601f8019910116010190565b602081830181015184830182015201610fdf565b600435906001600160a01b03821682036100f757565b602435906001600160a01b03821682036100f757565b90600182811c92168015611070575b602083101461105a57565b634e487b7160e01b600052602260045260246000fd5b91607f169161104f565b610140810190811067ffffffffffffffff821117610b4257604052565b60a0810190811067ffffffffffffffff821117610b4257604052565b90601f8019910116810190811067ffffffffffffffff821117610b4257604052565b906040519182600082546110e881611040565b908184526020946001916001811690816000146111585750600114611119575b505050611117925003836110b3565b565b600090815285812095935091905b8183106111405750506111179350820101388080611108565b85548884018501529485019487945091830191611127565b9250505061111794925060ff191682840152151560051b820101388080611108565b1561118157565b60405162461bcd60e51b815260206004820152600b60248201526a53616d6520746f6b656e7360a81b6044820152606490fd5b156111bb57565b60405162461bcd60e51b815260206004820152600e60248201526d125b9d985b1a5908185b5bdd5b9d60921b6044820152606490fd5b908160609103126100f7578051916040602083015192015180151581036100f75790565b1561121c57565b60405162461bcd60e51b8152602060048201526014602482015273496e76616c6964206f7261636c6520707269636560601b6044820152606490fd5b81810292918115918404141715610be857565b3d156112a6573d9067ffffffffffffffff8211610b42576040519161129a601f8201601f1916602001846110b3565b82523d6000602084013e565b606090565b6000546001600160a01b031633036112bf57565b60405163118cdaa760e01b8152336004820152602490fd5b60405163a9059cbb60e01b60208201526001600160a01b039092166024830152604480830193909352918152608081019167ffffffffffffffff831182841017610b4257611117926040525b906000602091828151910182855af1156102a2576000513d61137657506001600160a01b0381163b155b6113545750565b604051635274afe760e01b81526001600160a01b039091166004820152602490fd5b6001141561134d56fea2646970667358221220823c3b7f9183d2bfe578b179e8bde4ad4e303a1efd962aa6c5df470a9e34281764736f6c63430008180033",
  "linkReferences": {},
  "deployedLinkReferences": {}
}