{
  "_format": "hh-sol-artifact-1",
  "contractName": "SwapSageHTLC",
  "sourceName": "contracts/SwapSageHTLC.sol",
  "abi": [
    {
      "inputs": [
        {
          "internalType": "address",
          "name": "_oracle",
          "type": "address"
        }
      ],
      "stateMutability": "nonpayable",
      "type": "constructor"
    },
    {
      "inputs": [
        {
          "internalType": "address",
          "name": "owner",
          "type": "address"
        }
      ],
      "name": "OwnableInvalidOwner",
      "type": "error"
    },
    {
      "inputs": [
        {
          "internalType": "address",
          "name": "account",
          "type": "address"
        }
      ],
      "name": "OwnableUnauthorizedAccount",
      "type": "error"
    },
    {
      "inputs": [],
      "name": "ReentrancyGuardReentrantCall",
      "type": "error"
    },
    {
      "anonymous": false,
      "inputs": [
        {
          "indexed": true,
          "internalType": "address",
          "name": "oracle",
          "type": "address"
        }
      ],
      "name": "OracleUpdated",
      "type": "event"
    },
    {
      "anonymous": false,
      "inputs": [
        {
          "indexed": true,
          "internalType": "address",
          "name": "previousOwner",
          "type": "address"
        },
        {
          "indexed": true,
          "internalType": "address",
          "name": "newOwner",
          "type": "address"
        }
      ],
      "name": "OwnershipTransferred",
      "type": "event"
    },
    {
      "anonymous": false,
      "inputs": [
        {
          "indexed": true,
          "internalType": "bytes32",
          "name": "swapId",
          "type": "bytes32"
        },
        {
          "indexed": true,
          "internalType": "address",
          "name": "initiator",
          "type": "address"
        },
        {
          "indexed": true,
          "internalType": "address",
          "name": "recipient",
          "type": "address"
        },
        {
          "indexed": false,
          "internalType": "address",
          "name": "fromToken",
          "type": "address"
        },
        {
          "indexed": false,
          "internalType": "address",
          "name": "toToken",
          "type": "address"
        },
        {
          "indexed": false,
          "internalType": "uint256",
          "name": "fromAmount",
          "type": "uint256"
        },
        {
          "indexed": false,
          "internalType": "uint256",
          "name": "toAmount",
          "type": "uint256"
        },
        {
          "indexed": false,
          "internalType": "bytes32",
          "name": "hashlock",
          "type": "bytes32"
        },
        {
          "indexed": false,
          "internalType": "uint256",
          "name": "timelock",
          "type": "uint256"
        },
        {
          "indexed": false,
          "internalType": "uint256",
          "name": "oraclePrice",
          "type": "uint256"
        },
        {
          "indexed": false,
          "internalType": "uint256",
          "name": "confidence",
          "type": "uint256"
        }
      ],
      "name": "SwapInitiated",
      "type": "event"
    },
    {
      "anonymous": false,
      "inputs": [
        {
          "indexed": true,
          "internalType": "bytes32",
          "name": "swapId",
          "type": "bytes32"
        }
      ],
      "name": "SwapRefunded",
      "type": "event"
    },
    {
      "anonymous": false,
      "inputs": [
        {
          "indexed": true,
          "internalType": "bytes32",
          "name": "swapId",
          "type": "bytes32"
        },
        {
          "indexed": false,
          "internalType": "string",
          "name": "secret",
          "type": "string"
        }
      ],
      "name": "SwapWithdrawn",
      "type": "event"
    },
    {
      "inputs": [],
      "name": "FEE_BASIS_POINTS",
      "outputs": [
        {
          "internalType": "uint256",
          "name": "",
          "type": "uint256"
        }
      ],
      "stateMutability": "view",
      "type": "function"
    },
    {
      "inputs": [],
      "name": "MAX_TIMELOCK",
      "outputs": [
        {
          "internalType": "uint256",
          "name": "",
          "type": "uint256"
        }
      ],
      "stateMutability": "view",
      "type": "function"
    },
    {
      "inputs": [],
      "name": "MIN_CONFIDENCE",
      "outputs": [
        {
          "internalType": "uint256",
          "name": "",
          "type": "uint256"
        }
      ],
      "stateMutability": "view",
      "type": "function"
    },
    {
      "inputs": [],
      "name": "MIN_TIMELOCK",
      "outputs": [
        {
          "internalType": "uint256",
          "name": "",
          "type": "uint256"
        }
      ],
      "stateMutability": "view",
      "type": "function"
    },
    {
      "inputs": [],
      "name": "PRICE_TOLERANCE",
      "outputs": [
        {
          "internalType": "uint256",
          "name": "",
          "type": "uint256"
        }
      ],
      "stateMutability": "view",
      "type": "function"
    },
    {
      "inputs": [],
      "name": "emergencyPause",
      "outputs": [],
      "stateMutability": "nonpayable",
      "type": "function"
    },
    {
      "inputs": [
        {
          "internalType": "bytes32",
          "name": "swapId",
          "type": "bytes32"
        }
      ],
      "name": "getSwap",
      "outputs": [
        {
          "components": [
            {
              "internalType": "address",
              "name": "initiator",
              "type": "address"
            },
            {
              "internalType": "address",
              "name": "recipient",
              "type": "address"
            },
            {
              "internalType": "address",
              "name": "fromToken",
              "type": "address"
            },
            {
              "internalType": "address",
              "name": "toToken",
              "type": "address"
            },
            {
              "internalType": "uint256",
              "name": "fromAmount",
              "type": "uint256"
            },
            {
              "internalType": "uint256",
              "name": "toAmount",
              "type": "uint256"
            },
            {
              "internalType": "bytes32",
              "name": "hashlock",
              "type": "bytes32"
            },
            {
              "internalType": "uint256",
              "name": "timelock",
              "type": "uint256"
            },
            {
              "internalType": "bool",
              "name": "withdrawn",
              "type": "bool"
            },
            {
              "internalType": "bool",
              "name": "refunded",
              "type": "bool"
            },
            {
              "internalType": "string",
              "name": "secret",
              "type": "string"
            },
            {
              "internalType": "uint256",
              "name": "oraclePrice",
              "type": "uint256"
            },
            {
              "internalType": "uint256",
              "name": "confidence",
              "type": "uint256"
            }
          ],
          "internalType": "struct SwapSageHTLC.Swap",
          "name": "swap",
          "type": "tuple"
        }
      ],
      "stateMutability": "view",
      "type": "function"
    },
    {
      "inputs": [
        {
          "internalType": "address",
          "name": "recipient",
          "type": "address"
        },
        {
          "internalType": "address",
          "name": "fromToken",
          "type": "address"
        },
        {
          "internalType": "address",
          "name": "toToken",
          "type": "address"
        },
        {
          "internalType": "uint256",
          "name": "fromAmount",
          "type": "uint256"
        },
        {
          "internalType": "uint256",
          "name": "toAmount",
          "type": "uint256"
        },
        {
          "internalType": "bytes32",
          "name": "hashlock",
          "type": "bytes32"
        },
        {
          "internalType": "uint256",
          "name": "timelock",
          "type": "uint256"
        }
      ],
      "name": "initiateSwap",
      "outputs": [],
      "stateMutability": "payable",
      "type": "function"
    },
    {
      "inputs": [],
      "name": "oracle",
      "outputs": [
        {
          "internalType": "contract SwapSageOracle",
          "name": "",
          "type": "address"
        }
      ],
      "stateMutability": "view",
      "type": "function"
    },
    {
      "inputs": [],
      "name": "owner",
      "outputs": [
        {
          "internalType": "address",
          "name": "",
          "type": "address"
        }
      ],
      "stateMutability": "view",
      "type": "function"
    },
    {
      "inputs": [
        {
          "internalType": "bytes32",
          "name": "swapId",
          "type": "bytes32"
        }
      ],
      "name": "refund",
      "outputs": [],
      "stateMutability": "nonpayable",
      "type": "function"
    },
    {
      "inputs": [],
      "name": "renounceOwnership",
      "outputs": [],
      "stateMutability": "nonpayable",
      "type": "function"
    },
    {
      "inputs": [
        {
          "internalType": "bytes32",
          "name": "",
          "type": "bytes32"
        }
      ],
      "name": "swaps",
      "outputs": [
        {
          "internalType": "address",
          "name": "initiator",
          "type": "address"
        },
        {
          "internalType": "address",
          "name": "recipient",
          "type": "address"
        },
        {
          "internalType": "address",
          "name": "fromToken",
          "type": "address"
        },
        {
          "internalType": "address",
          "name": "toToken",
          "type": "address"
        },
        {
          "internalType": "uint256",
          "name": "fromAmount",
          "type": "uint256"
        },
        {
          "internalType": "uint256",
          "name": "toAmount",
          "type": "uint256"
        },
        {
          "internalType": "bytes32",
          "name": "hashlock",
          "type": "bytes32"
        },
        {
          "internalType": "uint256",
          "name": "timelock",
          "type": "uint256"
        },
        {
          "internalType": "bool",
          "name": "withdrawn",
          "type": "bool"
        },
        {
          "internalType": "bool",
          "name": "refunded",
          "type": "bool"
        },
        {
          "internalType": "string",
          "name": "secret",
          "type": "string"
        },
        {
          "internalType": "uint256",
          "name": "oraclePrice",
          "type": "uint256"
        },
        {
          "internalType": "uint256",
          "name": "confidence",
          "type": "uint256"
        }
      ],
      "stateMutability": "view",
      "type": "function"
    },
    {
      "inputs": [
        {
          "internalType": "address",
          "name": "newOwner",
          "type": "address"
        }
      ],
      "name": "transferOwnership",
      "outputs": [],
      "stateMutability": "nonpayable",
      "type": "function"
    },
    {
      "inputs": [
        {
          "internalType": "address",
          "name": "newOracle",
          "type": "address"
        }
      ],
      "name": "updateOracle",
      "outputs": [],
      "stateMutability": "nonpayable",
      "type": "function"
    },
    {
      "inputs": [
        {
          "internalType": "bytes32",
          "name": "swapId",
          "type": "bytes32"
        },
        {
          "internalType": "string",
          "name": "secret",
          "type": "string"
        }
      ],
      "name": "withdraw",
      "outputs": [],
      "stateMutability": "nonpayable",
      "type": "function"
    },
    {
      "inputs": [],
      "name": "withdrawFees",
      "outputs": [],
      "stateMutability": "nonpayable",
      "type": "function"
    },
    {
      "stateMutability": "payable",
      "type": "receive"
    }
  ],
  "bytecode": "0x6080346100ca57601f6118bc38819003918201601f19168301916001600160401b038311848410176100cf578084926020946040528339810103126100ca57516001600160a01b0390818116908190036100ca5733156100b15760005460018060a01b0319903382821617600055604051933391167f8be0079c531659141344cd1fd0a4f28419497f9722a3daafe3b4186f6b6457e0600080a36001805560035416176003556117d690816100e68239f35b604051631e4fbdf760e01b815260006004820152602490fd5b600080fd5b634e487b7160e01b600052604160045260246000fdfe6080604052600436101561001b575b361561001957600080fd5b005b60003560e01c806306a53665146110c25780631cb44dfc1461101b57806320206200146107ad5780633da0e66e146105b957806341f937571461059c578063476343ee146104e257806351858e27146104c9578063715018a6146104705780637249fbb6146103115780637dc0d1d0146102e857806384b96fef146102cb5780638da5cb5b146102a257806394f1825b14610284578063a525ad3c14610268578063eb84e7f214610186578063f2fde38b146100fd5763fb0c75490361000e57346100f85760003660031901126100f8576020604051610e108152f35b600080fd5b346100f85760203660031901126100f857610116611437565b61011e611774565b6001600160a01b0390811690811561016d57600054826001600160601b0360a01b821617600055167f8be0079c531659141344cd1fd0a4f28419497f9722a3daafe3b4186f6b6457e0600080a3005b604051631e4fbdf760e01b815260006004820152602490fd5b346100f85760203660031901126100f857600435600052600260205260408060002060018060a01b03908181541691610257816001840154169382600285015416926003850154169060ff60048601546005870154600688015460078901549160088a0154936101f860098c01611506565b97600b600a8d01549c01549a8e519e8f9e8f906101a09b82526020820152015260608d015260808c015260a08b015260c08a015260e0890152818116151561010089015260081c1615156101208701528061014087015285019061144d565b916101608401526101808301520390f35b346100f85760003660031901126100f857602060405160198152f35b346100f85760003660031901126100f8576020604051620151808152f35b346100f85760003660031901126100f8576000546040516001600160a01b039091168152602090f35b346100f85760003660031901126100f85760206040516101f48152f35b346100f85760003660031901126100f8576003546040516001600160a01b039091168152602090f35b346100f85760203660031901126100f85760043561032d611751565b600081815260026020526040902080546001600160a01b03908116906103548215156115ab565b81330361042b5760088301805461036e60ff8216156115ed565b61037e60ff8260081c161561162d565b600785015442106103ef5761ff0019166101001790556002830154166103e85760008080809360046103bd960154905af16103b76116c2565b50611702565b7fc506b8643b74e7a2fbb400c79e929dd5dfffb301fb07afb3b0e8e7c47925cf5a600080a260018055005b50506103bd565b60405162461bcd60e51b8152602060048201526014602482015273151a5b595b1bd8dac81b9bdd08195e1c1a5c995960621b6044820152606490fd5b60405162461bcd60e51b815260206004820152601960248201527f4f6e6c7920696e69746961746f722063616e20726566756e64000000000000006044820152606490fd5b346100f85760003660031901126100f857610489611774565b600080546001600160a01b0319811682556001600160a01b03167f8be0079c531659141344cd1fd0a4f28419497f9722a3daafe3b4186f6b6457e08280a3005b346100f85760003660031901126100f857610019611774565b346100f85760003660031901126100f8576104fb611774565b4780156105615760008080809360018060a01b038254165af161051c6116c2565b501561052457005b60405162461bcd60e51b8152602060048201526015602482015274119959481dda5d1a191c985dd85b0819985a5b1959605a1b6044820152606490fd5b60405162461bcd60e51b81526020600482015260136024820152724e6f206665657320746f20776974686472617760681b6044820152606490fd5b346100f85760003660031901126100f8576020604051611b588152f35b346100f85760203660031901126100f85760006101806040516105db816114c7565b8281528260208201528260408201528260608201528260808201528260a08201528260c08201528260e08201528261010082015282610120820152606061014082015282610160820152015260043560005260026020526040600020600b60405191610646836114c7565b80546001600160a01b039081168452600182015481166020850152600282015481166040850152600382015416606084015260048101546080840152600581015460a0840152600681015460c0840152600781015460e084015260088082015460ff8181161515610100870152911c1615156101208401526106ca60098201611506565b610140840152600a810154610160840152015461018082015260405180916020825260018060a01b03815116602083015260018060a01b03602082015116604083015260018060a01b03604082015116606083015260018060a01b036060820151166080830152608081015160a083015260a081015160c083015260c081015160e083015260e0810151610100830152610100810151151561012083015261012081015115156101408301526101408101516101806107986101a092836101608701526101c086019061144d565b92610160810151828601520151908301520390f35b60e03660031901126100f8576107c1611437565b6024356001600160a01b03811690036100f8576044356001600160a01b03811690036100f8576107ef611751565b6001600160a01b03811615610fe257606435151580610fd7575b15610fa057610e104201804211610d885760c43510610f6657620151804201804211610d885760c43511610f2d5760a43515610ef5576024356001600160a01b0390811660443590911614610ec257604051903360601b60208301526001600160601b0319808260601b1660348401528060243560601b16604884015260443560601b16605c8301526064356070830152608435609083015260a43560b083015260c43560d083015260d082528161010081011067ffffffffffffffff61010084011117610cec576101008201604052815160208301209182600052600260205260018060a01b0360406000205416610e8157506003546040516341976e0960e01b8152602480356001600160a01b0390811660048401529193926060928592918391165afa8015610e7557600092600091610e31575b5015610df5576064358260643502048214606435151715610d88576305f5e100606435830204608435811115610de35761097c60843582611744565b905b6101f490818102918183041490151715610d8857612710900410610d9e5760643560196064350204601914606435151715610d88576109c861271060196064350204606435611744565b916024356001600160a01b0316610d3e576064353403610d02575b6040516109ef816114c7565b33815260018060a01b038316602082015260018060a01b0360243516604082015260018060a01b0360443516606082015283608082015260843560a082015260a43560c082015260c43560e08201526000610100820152600061012082015260405180602081011067ffffffffffffffff602083011117610cec5760208101604052600081526101408201528161016082015261213461018082015284600052600260205260406000209060018060a01b038151166001600160601b0360a01b8354161782556001820160018060a01b036020830151166001600160601b0360a01b8254161790556002820160018060a01b036040830151166001600160601b0360a01b8254161790556003820160018060a01b036060830151166001600160601b0360a01b8254161790556080810151600483015560a0810151600583015560c0810151600683015560e08101516007830155600882016101008201511515815460ff61ff00610120860151151560081b1692169061ffff19161717905561014081015180519067ffffffffffffffff8211610cec57610ba082610b97600987015461148d565b6009870161166c565b602090601f8311600114610c76578261018093600b9593610bd893600092610c6b575b50508160011b916000199060031b1c19161790565b60098501555b610160810151600a8501550151910155604080516001600160a01b03602435811682526044358116602083015291810194909452608435606085015260a435608085015260c43560a085015260c084019190915261213460e0840152169133917f27e8d1c6b95460c0e268420c9e0b25a8a0486bd3500519ce7639fd63ffbf6fc49061010090a460018055005b015190508b80610bc3565b906009850160005260206000209160005b601f1985168110610cd4575092600b94926001926101809583601f19811610610cbb575b505050811b016009850155610bde565b015160001960f88460031b161c191690558a8080610cab565b91926020600181928685015181550194019201610c87565b634e487b7160e01b600052604160045260246000fd5b60405162461bcd60e51b8152602060048201526014602482015273125b98dbdc9c9958dd0811551208185b5bdd5b9d60621b6044820152606490fd5b34156109e357606460405162461bcd60e51b815260206004820152602060248201527f455448206e6f7420616363657074656420666f7220746f6b656e2073776170736044820152fd5b634e487b7160e01b600052601160045260246000fd5b60405162461bcd60e51b815260206004820152601860248201527f507269636520646576696174696f6e20746f6f206869676800000000000000006044820152606490fd5b610def81608435611744565b9061097e565b60405162461bcd60e51b8152602060048201526014602482015273496e76616c6964206f7261636c6520707269636560601b6044820152606490fd5b9250506060823d606011610e6d575b81610e4d606093836114e4565b810103126100f857604082519201519182151583036100f8579184610940565b3d9150610e40565b6040513d6000823e3d90fd5b61010060649162461bcd60e51b8282015260206101048201526013610124820152725377617020616c72656164792065786973747360681b61014482015201fd5b60405162461bcd60e51b815260206004820152600b60248201526a53616d6520746f6b656e7360a81b6044820152606490fd5b60405162461bcd60e51b815260206004820152601060248201526f496e76616c696420686173686c6f636b60801b6044820152606490fd5b60405162461bcd60e51b815260206004820152601160248201527054696d656c6f636b20746f6f206c6f6e6760781b6044820152606490fd5b60405162461bcd60e51b8152602060048201526012602482015271151a5b595b1bd8dac81d1bdbc81cda1bdc9d60721b6044820152606490fd5b60405162461bcd60e51b815260206004820152600f60248201526e496e76616c696420616d6f756e747360881b6044820152606490fd5b506084351515610809565b60405162461bcd60e51b8152602060048201526011602482015270125b9d985b1a59081c9958da5c1a595b9d607a1b6044820152606490fd5b346100f85760203660031901126100f857611034611437565b61103c611774565b6001600160a01b0316801561108457600380546001600160a01b031916821790557f3df77beb5db05fcdd70a30fc8adf3f83f9501b68579455adbd100b8180940394600080a2005b60405162461bcd60e51b8152602060048201526016602482015275496e76616c6964206f7261636c65206164647265737360501b6044820152606490fd5b346100f85760403660031901126100f85767ffffffffffffffff80602435116100f8573660236024350112156100f85760243560040135116100f85736602480356004013581350101116100f857611118611751565b6004356000908152600260205260409020805461113f906001600160a01b031615156115ab565b60018101546001600160a01b031633036113f25760088101805461116660ff8216156115ed565b61117660ff8260081c161561162d565b60078301544210156113ba57604051602081019060243560040135602480350183376111b86020826024356004013581016000838201520380845201826114e4565b5190206006840154036113845760019060ff19161790556111ef602435600401356111e6600984015461148d565b6009840161166c565b6000601f60243560040135116001146112f95761123190600090602435600401356112ea575b5060243560040135908160011b916000199060031b1c19161790565b60098201555b60028101546001600160a01b03166112e457600080808061126f94600460018060a01b03600183015416910154905af16103b76116c2565b6040516020815260243560040135602082015260243560040135602480350160408301376000604060243560040135830101527f131889cd7db85ba9c0b47ce492c8aeb9dc8b9e732f758ff6dd1263d8c0d6a09560043591604081601f19601f6024356004013501168101030190a260018055005b5061126f565b60248092503501013583611215565b6009820160005260206000209060005b60046024350135601f19168110611368575060046024350135601f19811610611345575b5050600160243560040135811b016009820155611237565b602460001960f882356004013560031b161c19918135010135169055818061132d565b9091602060018192602486813501013581550193019101611309565b60405162461bcd60e51b815260206004820152600e60248201526d125b9d985b1a59081cd958dc995d60921b6044820152606490fd5b60405162461bcd60e51b815260206004820152601060248201526f151a5b595b1bd8dac8195e1c1a5c995960821b6044820152606490fd5b60405162461bcd60e51b815260206004820152601b60248201527f4f6e6c7920726563697069656e742063616e20776974686472617700000000006044820152606490fd5b600435906001600160a01b03821682036100f857565b919082519283825260005b848110611479575050826000602080949584010152601f8019910116010190565b602081830181015184830182015201611458565b90600182811c921680156114bd575b60208310146114a757565b634e487b7160e01b600052602260045260246000fd5b91607f169161149c565b6101a0810190811067ffffffffffffffff821117610cec57604052565b90601f8019910116810190811067ffffffffffffffff821117610cec57604052565b906040519182600082546115198161148d565b90818452602094600191600181169081600014611589575060011461154a575b505050611548925003836114e4565b565b600090815285812095935091905b8183106115715750506115489350820101388080611539565b85548884018501529485019487945091830191611558565b9250505061154894925060ff191682840152151560051b820101388080611539565b156115b257565b60405162461bcd60e51b815260206004820152601360248201527214ddd85c08191bd95cc81b9bdd08195e1a5cdd606a1b6044820152606490fd5b156115f457565b60405162461bcd60e51b815260206004820152601160248201527020b63932b0b23c903bb4ba34323930bbb760791b6044820152606490fd5b1561163457565b60405162461bcd60e51b815260206004820152601060248201526f105b1c9958591e481c99599d5b99195960821b6044820152606490fd5b90601f811161167a57505050565b6000916000526020600020906020601f850160051c830194106116b8575b601f0160051c01915b8281106116ad57505050565b8181556001016116a1565b9092508290611698565b3d156116fd573d9067ffffffffffffffff8211610cec57604051916116f1601f8201601f1916602001846114e4565b82523d6000602084013e565b606090565b1561170957565b60405162461bcd60e51b8152602060048201526013602482015272115512081d1c985b9cd9995c8819985a5b1959606a1b6044820152606490fd5b91908203918211610d8857565b600260015414611762576002600155565b604051633ee5aeb560e01b8152600490fd5b6000546001600160a01b0316330361178857565b60405163118cdaa760e01b8152336004820152602490fdfea26469706673582212208458c0bd7d6eafac3455340b69ebf04a2866dbd2f71bad6e8cf87a302c20a7c764736f6c63430008180033",
  "linkReferences": {},
  "deployedLinkReferences": {}
}