{
  "_format": "hh-sol-artifact-1",
  "contractName": "SwapSageOracle",
  "sourceName": "contracts/SwapSageOracle.sol",
  "abi": [
    {
      "inputs": [],
      "stateMutability": "nonpayable",
      "type": "constructor"
    },
    {
      "inputs": [
        {
          "internalType": "address",
          "name": "owner",
          "type": "address"
        }
      ],
      "name": "OwnableInvalidOwner",
      "type": "error"
    },
    {
      "inputs": [
        {
          "internalType": "address",
          "name": "account",
          "type": "address"
        }
      ],
      "name": "OwnableUnauthorizedAccount",
      "type": "error"
    },
    {
      "inputs": [],
      "name": "ReentrancyGuardReentrantCall",
      "type": "error"
    },
    {
      "anonymous": false,
      "inputs": [
        {
          "indexed": true,
          "internalType": "address",
          "name": "oracle",
          "type": "address"
        },
        {
          "indexed": false,
          "internalType": "bool",
          "name": "isActive",
          "type": "bool"
        }
      ],
      "name": "OracleUpdated",
      "type": "event"
    },
    {
      "anonymous": false,
      "inputs": [
        {
          "indexed": true,
          "internalType": "address",
          "name": "previousOwner",
          "type": "address"
        },
        {
          "indexed": true,
          "internalType": "address",
          "name": "newOwner",
          "type": "address"
        }
      ],
      "name": "OwnershipTransferred",
      "type": "event"
    },
    {
      "anonymous": false,
      "inputs": [
        {
          "indexed": true,
          "internalType": "address",
          "name": "token",
          "type": "address"
        },
        {
          "indexed": false,
          "internalType": "uint256",
          "name": "price",
          "type": "uint256"
        },
        {
          "indexed": false,
          "internalType": "uint256",
          "name": "timestamp",
          "type": "uint256"
        }
      ],
      "name": "PriceFeedUpdated",
      "type": "event"
    },
    {
      "anonymous": false,
      "inputs": [
        {
          "indexed": true,
          "internalType": "bytes32",
          "name": "swapHash",
          "type": "bytes32"
        },
        {
          "indexed": false,
          "internalType": "address",
          "name": "fromToken",
          "type": "address"
        },
        {
          "indexed": false,
          "internalType": "address",
          "name": "toToken",
          "type": "address"
        },
        {
          "indexed": false,
          "internalType": "uint256",
          "name": "expectedAmount",
          "type": "uint256"
        },
        {
          "indexed": false,
          "internalType": "uint256",
          "name": "confidence",
          "type": "uint256"
        }
      ],
      "name": "SwapRecommendationCreated",
      "type": "event"
    },
    {
      "inputs": [],
      "name": "CONFIDENCE_DECIMALS",
      "outputs": [
        {
          "internalType": "uint256",
          "name": "",
          "type": "uint256"
        }
      ],
      "stateMutability": "view",
      "type": "function"
    },
    {
      "inputs": [],
      "name": "PRICE_DECIMALS",
      "outputs": [
        {
          "internalType": "uint256",
          "name": "",
          "type": "uint256"
        }
      ],
      "stateMutability": "view",
      "type": "function"
    },
    {
      "inputs": [
        {
          "internalType": "address",
          "name": "",
          "type": "address"
        }
      ],
      "name": "authorizedOracles",
      "outputs": [
        {
          "internalType": "bool",
          "name": "",
          "type": "bool"
        }
      ],
      "stateMutability": "view",
      "type": "function"
    },
    {
      "inputs": [
        {
          "internalType": "address",
          "name": "fromToken",
          "type": "address"
        },
        {
          "internalType": "address",
          "name": "toToken",
          "type": "address"
        },
        {
          "internalType": "uint256",
          "name": "expectedAmount",
          "type": "uint256"
        },
        {
          "internalType": "uint256",
          "name": "confidence",
          "type": "uint256"
        }
      ],
      "name": "createSwapRecommendation",
      "outputs": [],
      "stateMutability": "nonpayable",
      "type": "function"
    },
    {
      "inputs": [
        {
          "internalType": "address",
          "name": "token",
          "type": "address"
        }
      ],
      "name": "getPrice",
      "outputs": [
        {
          "internalType": "uint256",
          "name": "price",
          "type": "uint256"
        },
        {
          "internalType": "uint256",
          "name": "timestamp",
          "type": "uint256"
        },
        {
          "internalType": "bool",
          "name": "isValid",
          "type": "bool"
        }
      ],
      "stateMutability": "view",
      "type": "function"
    },
    {
      "inputs": [
        {
          "internalType": "bytes32",
          "name": "swapHash",
          "type": "bytes32"
        }
      ],
      "name": "getSwapRecommendation",
      "outputs": [
        {
          "components": [
            {
              "internalType": "address",
              "name": "fromToken",
              "type": "address"
            },
            {
              "internalType": "address",
              "name": "toToken",
              "type": "address"
            },
            {
              "internalType": "uint256",
              "name": "expectedAmount",
              "type": "uint256"
            },
            {
              "internalType": "uint256",
              "name": "confidence",
              "type": "uint256"
            },
            {
              "internalType": "uint256",
              "name": "timestamp",
              "type": "uint256"
            },
            {
              "internalType": "bool",
              "name": "isValid",
              "type": "bool"
            }
          ],
          "internalType": "struct SwapSageOracle.SwapRecommendation",
          "name": "recommendation",
          "type": "tuple"
        }
      ],
      "stateMutability": "view",
      "type": "function"
    },
    {
      "inputs": [
        {
          "internalType": "address",
          "name": "token",
          "type": "address"
        }
      ],
      "name": "invalidatePriceFeed",
      "outputs": [],
      "stateMutability": "nonpayable",
      "type": "function"
    },
    {
      "inputs": [
        {
          "internalType": "bytes32",
          "name": "swapHash",
          "type": "bytes32"
        }
      ],
      "name": "invalidateSwapRecommendation",
      "outputs": [],
      "stateMutability": "nonpayable",
      "type": "function"
    },
    {
      "inputs": [],
      "name": "minConfidence",
      "outputs": [
        {
          "internalType": "uint256",
          "name": "",
          "type": "uint256"
        }
      ],
      "stateMutability": "view",
      "type": "function"
    },
    {
      "inputs": [],
      "name": "owner",
      "outputs": [
        {
          "internalType": "address",
          "name": "",
          "type": "address"
        }
      ],
      "stateMutability": "view",
      "type": "function"
    },
    {
      "inputs": [
        {
          "internalType": "address",
          "name": "",
          "type": "address"
        }
      ],
      "name": "priceFeeds",
      "outputs": [
        {
          "internalType": "address",
          "name": "token",
          "type": "address"
        },
        {
          "internalType": "uint256",
          "name": "price",
          "type": "uint256"
        },
        {
          "internalType": "uint256",
          "name": "timestamp",
          "type": "uint256"
        },
        {
          "internalType": "bool",
          "name": "isValid",
          "type": "bool"
        }
      ],
      "stateMutability": "view",
      "type": "function"
    },
    {
      "inputs": [],
      "name": "renounceOwnership",
      "outputs": [],
      "stateMutability": "nonpayable",
      "type": "function"
    },
    {
      "inputs": [
        {
          "internalType": "address",
          "name": "oracle",
          "type": "address"
        },
        {
          "internalType": "bool",
          "name": "isActive",
          "type": "bool"
        }
      ],
      "name": "setAuthorizedOracle",
      "outputs": [],
      "stateMutability": "nonpayable",
      "type": "function"
    },
    {
      "inputs": [
        {
          "internalType": "uint256",
          "name": "newMinConfidence",
          "type": "uint256"
        }
      ],
      "name": "setMinConfidence",
      "outputs": [],
      "stateMutability": "nonpayable",
      "type": "function"
    },
    {
      "inputs": [
        {
          "internalType": "bytes32",
          "name": "",
          "type": "bytes32"
        }
      ],
      "name": "swapRecommendations",
      "outputs": [
        {
          "internalType": "address",
          "name": "fromToken",
          "type": "address"
        },
        {
          "internalType": "address",
          "name": "toToken",
          "type": "address"
        },
        {
          "internalType": "uint256",
          "name": "expectedAmount",
          "type": "uint256"
        },
        {
          "internalType": "uint256",
          "name": "confidence",
          "type": "uint256"
        },
        {
          "internalType": "uint256",
          "name": "timestamp",
          "type": "uint256"
        },
        {
          "internalType": "bool",
          "name": "isValid",
          "type": "bool"
        }
      ],
      "stateMutability": "view",
      "type": "function"
    },
    {
      "inputs": [
        {
          "internalType": "address",
          "name": "newOwner",
          "type": "address"
        }
      ],
      "name": "transferOwnership",
      "outputs": [],
      "stateMutability": "nonpayable",
      "type": "function"
    },
    {
      "inputs": [
        {
          "internalType": "address",
          "name": "token",
          "type": "address"
        },
        {
          "internalType": "uint256",
          "name": "price",
          "type": "uint256"
        }
      ],
      "name": "updatePriceFeed",
      "outputs": [],
      "stateMutability": "nonpayable",
      "type": "function"
    }
  ],
  "bytecode": "0x60806040908082523461010a5733156100f4575060008054336001600160a01b0319808316821784558451926001600160a01b03929083167f8be0079c531659141344cd1fd0a4f28419497f9722a3daafe3b4186f6b6457e08680a360018055611b58600555608083016001600160401b038111848210176100e0579060039392918652848352602083019063773594008252868401924284528760608601976001895280805260026020522094511690845416178355516001830155516002820155019051151560ff8019835416911617905551610ae090816101108239f35b634e487b7160e01b85526041600452602485fd5b631e4fbdf760e01b815260006004820152602490fd5b600080fdfe6040608081526004908136101561001557600080fd5b600091823560e01c806309e8a4d41461070a5780631a369632146106d6578063226c6d75146106065780632b10f5fd146104c857806341976e091461044e5780635764390c1461041e57806361c992a3146103e2578063715018a6146103855780637c6be6fa146103415780638c3f45ef146102d45780638da5cb5b146102ac5780639dcb511a14610249578063c7a6de4d146101c1578063d52b7a14146101a2578063de3f2afd14610185578063f1a640f8146101655763f2fde38b146100dc57600080fd5b34610161576020366003190112610161576100f5610974565b906100fe610a7e565b6001600160a01b0391821692831561014b57505082546001600160a01b0319811683178455167f8be0079c531659141344cd1fd0a4f28419497f9722a3daafe3b4186f6b6457e08380a380f35b51631e4fbdf760e01b8152908101849052602490fd5b8280fd5b5050346101815781600319360112610181576020905160088152f35b5080fd5b505034610181578160031936011261018157602090516127108152f35b5050346101815781600319360112610181576020906005549051908152f35b5090346101615780600319360112610161576101db610974565b9060243590811515908183036102455761023d6020937f94c9cbe1d9aa7af08484f82ab0179d6db973a391236668c34192d954ff32c06c9561021b610a7e565b60018060a01b03169687895285528288209060ff801983541691151516179055565b51908152a280f35b8580fd5b505034610181576020366003190112610181576080916001600160a01b039190819083610274610974565b168152600260205220918254169160018101549160ff6003600284015493015416928151948552602085015283015215156060820152f35b505034610181578160031936011261018157905490516001600160a01b039091168152602090f35b509034610161576020366003190112610161578060c0938335815260036020522060018060a01b039283825416936001830154169260028301549060ff600560038601549486015495015416948151968752602087015285015260608401526080830152151560a0820152f35b5050346101815760203660031901126101815760039061035f610974565b610367610a7e565b6001600160a01b031683526002602052822001805460ff1916905580f35b83346103df57806003193601126103df5761039e610a7e565b80546001600160a01b03198116825581906001600160a01b03167f8be0079c531659141344cd1fd0a4f28419497f9722a3daafe3b4186f6b6457e08280a380f35b80fd5b50346101615760203660031901126101615760209260ff918391906001600160a01b0361040d610974565b168252855220541690519015158152f35b838234610181576020366003190112610181573561043a610a7e565b6104486127108211156109cc565b60055580f35b505034610181576020366003190112610181576060916001600160a01b0391839181908461047a610974565b16815260026020522081519361048f85610a3f565b815416845260018101549384602082015260ff600360028401549384868501520154161515938491015281519384526020840152820152f35b5090346101615780600319360112610161576104e2610974565b91602435903385528060205260ff838620541680156105f3575b6105059061098f565b61050d610a5b565b81156105c05750907f7f0087464ace68eb51ed07d9daf1bd00eb6e1d36e4889a096a0eaf702f7af558916105ad825161054581610a3f565b600360018060a01b038097169687835260208301858152868401904282526060850192600184528a8c526002602052888c209551166001600160601b0360a01b86541617855551600185015551600284015551151591019060ff801983541691151516179055565b8151908152426020820152a26001805580f35b606490602084519162461bcd60e51b8352820152600d60248201526c496e76616c696420707269636560981b6044820152fd5b5084546001600160a01b031633146104fc565b503461016157602036600319011261016157818360c09460a0835161062a81610a0d565b828152826020820152828582015282606082015282608082015201528235815260036020522082519161065c83610a0d565b60018060a01b0393848354169485855280600185015416906020860191825260028501549183870192835260a060ff600560038901549760608b019889528901549860808b01998a5201541697019615158752835197885251166020870152519085015251606084015251608083015251151560a0820152f35b509034610161576020366003190112610161576005916106f4610a7e565b3583526003602052822001805460ff1916905580f35b5091903461018157608036600319011261018157610726610974565b90602435906001600160a01b039081831680840361024557604435926064359433885260209189835260ff858a2054168015610968575b6107669061098f565b61076e610a5b565b808816978489146109375786156109035761078d6127108911156109cc565b60055488106108cf57855190848201936001600160601b0319809260601b16855260601b1660348201528660488201524260688201526068815260a081019281841067ffffffffffffffff8511176108bc579088888c9d93868a52835190209c8d956107f888610a0d565b8d8852808b60c08701938c855260e088019586526101008801968752610120880197428952610140019960018b52815260038c5220985116906001600160601b0360a01b91828a5416178955600189019251169082541617905551600286015551600385015551908301555115159060050190610880919060ff801983541691151516179055565b8251958652850152830152606082015260807f7a6f15baf00ad1e749ace07cd494c0a2004f12a6889cca6c1ef493d9df3c4f8d91a26001805580f35b634e487b7160e01b8b5260418c5260248bfd5b855162461bcd60e51b8152808c01859052600e60248201526d4c6f7720636f6e666964656e636560901b6044820152606490fd5b855162461bcd60e51b8152808c01859052600e60248201526d125b9d985b1a5908185b5bdd5b9d60921b6044820152606490fd5b855162461bcd60e51b8152808c01859052600b60248201526a53616d6520746f6b656e7360a81b6044820152606490fd5b5088548116331461075d565b600435906001600160a01b038216820361098a57565b600080fd5b1561099657565b60405162461bcd60e51b815260206004820152600e60248201526d139bdd08185d5d1a1bdc9a5e995960921b6044820152606490fd5b156109d357565b60405162461bcd60e51b8152602060048201526012602482015271496e76616c696420636f6e666964656e636560701b6044820152606490fd5b60c0810190811067ffffffffffffffff821117610a2957604052565b634e487b7160e01b600052604160045260246000fd5b6080810190811067ffffffffffffffff821117610a2957604052565b600260015414610a6c576002600155565b604051633ee5aeb560e01b8152600490fd5b6000546001600160a01b03163303610a9257565b60405163118cdaa760e01b8152336004820152602490fdfea26469706673582212205447c930b0aa0bf1e67f1bd021483faef41bc9b39c7d76c10d67b4a5b8b21d4f64736f6c63430008180033",
  "linkReferences": {},
  "deployedLinkReferences": {}
}